:100000000C9465000C948D000C948D000C948D0064
:100010000C948D000C948D000C948D000C948D002C
:100020000C948D000C948D000C948D000C948D001C
:100030000C948D000C948D000C948D000C948D000C
:100040000C94A0050C948D000C94BE080C94F00840
:100050000C948D000C948D000C948D000C948D00EC
:100060000C94FC020C948D000000000800020100BA
:100070000003040700000000000000000102040863
:100080001020408001020408102001020408102002
:10009000040404040404040402020202020203032E
:1000A0000303030300000000250028002B000000CC
:1000B0000000240027002A006364696E6F70737566
:1000C00078585B009401A302200911241FBECFEFD2
:1000D000D8E0DEBFCDBF11E0A0E0B1E0EAE0F0E2A1
:1000E00002C005900D92A836B107D9F723E0A8E623
:1000F000B1E001C01D92AA33B207E1F710E0CAECEB
:10010000D0E004C02297FE010E947E0AC43CD107C1
:10011000C9F70E9464090C9403100C94000061E07C
:1001200080E10E940A0761E081E10E940A0761E024
:100130008EE00E940A0761E08FE00E940A0761E0FA
:1001400087E00E940A0761E088E00E940A0761E0F8
:1001500085E00E940A0761E086E00E940A0761E0EC
:1001600083E00E940A0761E089E00E940A0761E0DB
:100170008AE00E940A0761E08BE00C940A0765E4BC
:1001800070E08AE691E00E949C026BE971E08AE6E9
:1001900091E00E949E0260E082E10E94430760E0DD
:1001A00083E10E94430726E040E855E260E070E00A
:1001B00088E992E00E945C080C948F0085309105DC
:1001C00019F0069769F108956130710571F460E0E6
:1001D0008EE00E94430761E08FE00E94430760E0E9
:1001E00080E10E94430761E00FC0672B79F461E072
:1001F0008EE00E94430760E08FE00E94430761E0C9
:1002000080E10E94430760E081E135C060E08EE05C
:100210000E94430760E08FE00E94430760E0F0CF58
:100220006130710551F461E085E00E94430760E0B0
:1002300086E00E94430761E019C0672B71F460E01B
:1002400085E00E94430761E086E00E94430760E08A
:1002500087E00E94430761E00DC060E085E00E94F6
:10026000430760E086E00E94430760E087E00E9469
:10027000430760E088E00C9443070F931F93CF93EC
:10028000DF9361E088E691E00E9436048C0162E031
:1002900088E691E00E943604EC0117FF03C061E09C
:1002A00070E008C00115110519F464E070E002C0A7
:1002B00060E070E085E090E00E94DE00D7FF03C0C0
:1002C00061E070E007C0209719F464E070E002C0BC
:1002D00060E070E086E090E00E94DE0017FF03C05F
:1002E000119501951109B80183E00E948206B801B9
:1002F00089E00E948206D7FF03C0D195C195D1093C
:10030000BE018AE00E948206BE018BE0DF91CF91A0
:100310001F910F910C9482060E943D0168EC70E0E1
:1003200080E090E00C940D0688E992E090936901DA
:10033000809368010895CF93C0E08AE691E00E941F
:10034000B901181619065CF48AE691E00E94C10111
:10035000682F88E691E00E940305C1E0EECFCC2330
:1003600031F060E088E691E0CF910C940305CF91E5
:10037000089580919D0190E020919E01821B91093A
:10038000089520919E0180919D01281750F4E22F3D
:10039000F0E0E156FE4F808190E02F5F20939E01B8
:1003A00008958FEF9FEF0895E0919E0180919D0148
:1003B000E81730F4F0E0E156FE4F808190E00895B8
:1003C0008FEF9FEF08950895E0917601F091770106
:1003D0003097E1F030919E0120919D013217B0F0ED
:1003E00040E0242F30E02617370754F4DC01A20F39
:1003F000B31F5C91D901A156BE4F5C934F5FF1CF03
:1004000010929E0160939D01CB0109940895E091A3
:100410007801F0917901309729F010927C011092C7
:100420007B0109940895CF92DF92EF92FF920F9390
:100430001F93CF93DF937C01CB018A0120917A0136
:10044000222389F0EB016B01C40ED51ECC15DD050E
:1004500069F06991D701ED91FC910190F081E02D57
:10046000C7010995F3CF642F0E94C902C801DF912B
:10047000CF911F910F91FF90EF90DF90CF90089553
:10048000CF93DF931F92CDB7DEB7698320917A01B6
:100490002223D1F020917B01203240F021E030E096
:1004A000FC013383228380E090E015C080917C01C1
:1004B000E82FF0E0E358FE4F998190838F5F80939F
:1004C0007C0180937B0105C061E0CE0101960E9412
:1004D000C90281E090E00F90DF91CF910895FC0177
:1004E0001382128248EE53E060E070E0448355834B
:1004F000668377838AE291E09183808308951092E6
:100500009E0110929D0110927C0110927B010C942F
:10051000A702CF93DF93EC01862F0E94C50287E0EC
:1005200092E00E94E70284EE91E00E94E202CE0196
:10053000DF91CF910C947F020C9489027093770124
:100540006093760108958AE691E00C946F02109210
:100550002C0281E080932A021092290261E082E15C
:100560000E94430761E083E10E944307E9EBF0E06A
:1005700080818E7F808380818D7F808388E48093DB
:10058000B80085E48093BC000895880F8093BA007A
:100590000895613298F420912C02243089F46093FC
:1005A000E101FC0183EE91E0DC012A2F281B2617D4
:1005B00018F421912D93F9CF80E0089581E00895FA
:1005C00082E00895909326028093250208959093E7
:1005D000280280932702089585ED8093BC008091C6
:1005E000BC0084FDFCCF10922C02089585EC809312
:1005F000BC0010922C0208951F920F920FB60F921A
:1006000011242F933F934F935F936F937F938F9317
:100610009F93AF93BF93EF93FF938091B900887F2F
:10062000803609F49EC078F5883209F45DC090F4F4
:10063000803109F456C038F4882309F4F5C08830B5
:1006400009F44FC0F5C0883109F44EC0803209F476
:100650005FC0EEC0803409F46AC058F4803309F4F6
:1006600057C0883309F0E4C08093BF010E94F602AE
:10067000DFC0803509F44FC0883509F45DC0883487
:1006800009F0D6C0D3C0883909F4C4C0A8F48837AB
:1006900009F467C038F4883609F463C0803709F478
:1006A00060C0C6C0883809F4B5C0803909F45FC09D
:1006B000803809F0BDC05BC0803B09F483C038F4CA
:1006C000803A09F466C0883A09F47CC0B1C0803C25
:1006D00009F4A4C0883C09F4A1C0883B09F487C090
:1006E000A7C080912B0210C0909104028091030258
:1006F000981770F5E091040281E08E0F8093040258
:10070000F0E0EB5FFD4F80818093BB0085EC83C000
:100710008093BF018BC0E091040281E08E0F809333
:1007200004028091BB00F0E0EB5FFD4F808390916D
:100730000402809103026BC0E091040281E08E0FFD
:10074000809304028091BB00F0E0EB5FFD4F80835B
:1007500080912A0281116AC081E08093290284EA93
:100760005EC083E080932C021092C001CFCF8091B5
:10077000C001803208F04EC0E091C00181E08E0FD0
:100780008093C0018091BB00F0E0EF53FE4F808367
:10079000BDCF0E94F6028091C001803230F4E0911A
:1007A000C001F0E0EF53FE4F10826091C00170E095
:1007B000E0912502F091260281EC91E009951092DA
:1007C000C00136C084E080932C021092E2011092A6
:1007D000E101E0912702F091280209958091E10161
:1007E000811105C081E08093E1011092E301E09165
:1007F000E20181E08E0F8093E201F0E0ED51FE4FC7
:1008000080818093BB009091E2018091E101981773
:1008100008F47CCF85E88093BC000AC085EC809307
:10082000BC0010922C0204C01092BF010E94EC0286
:10083000FF91EF91BF91AF919F918F917F916F91B8
:100840005F914F913F912F910F900FBE0F901F908E
:1008500018958FEF860F8F3040F4E62FF0E0EE0F03
:10086000FF1FE159FD4F5183408308958FEF860F9D
:100870008F3048F4E62FF0E0EE0FFF1FE159FD4FF7
:1008800080819181089580E090E008955F926F9259
:100890007F928F929F92AF92BF92CF92DF92EF9210
:1008A000FF920F931F93CF93DF9300D000D0CDB76B
:1008B000DEB74C017B011C821B821A821982FB016C
:1008C00001900020E9F78F0101501109061B170B59
:1008D000053008F453C0FB01528026E0A22E21E02F
:1008E000B22EC12CD12C3B01F3E06F0E711CF5012F
:1008F000608171816115710589F0FB010190002013
:10090000E9F7AF0141505109461B570BC3010E9443
:100910008B0CF4E0AF0EB11C892B21F4CA94CD28C6
:1009200029F02CC03FEFC31AD30AE1CFF4E25F12E3
:1009300025C080910C0190E008171907F9F4CE0149
:1009400001969F938F9302969F938F9386E391E0F6
:100950009F938F9326E0E20EF11CFF92EF920E948C
:10096000990C0FB6F894DEBF0FBECDBF029731F4DD
:1009700049815A816B81C4010E9429040F900F9014
:100980000F900F90DF91CF911F910F91FF90EF90FB
:10099000DF90CF90BF90AF909F908F907F906F909F
:1009A0005F900895CF92DF92EF92FF920F931F9383
:1009B000CF93DF937B01FB01C480D580C0E0D0E002
:1009C00000E010E0CC15DD057CF4BE01C7010E94FB
:1009D0001F0AFC012081332727FD30952052310961
:1009E000020F131F2196EECFC8016FE570E00E9441
:1009F000320A8096DF91CF911F910F91FF90EF9077
:100A0000DF90CF900895DF92EF92FF920F931F93A4
:100A1000CF93DF9300D000D000D0CDB7DEB78C01EC
:100A2000D62E61110BC080E2E1E5F2E0DF011D92FC
:100A30008A95E9F710922F0210922E0280913002CF
:100A40008823D1F180912D02882309F46AC061E5E1
:100A500072E0CE0101960E94090ABE016F5F7F4FCE
:100A6000C8010E94D2047C01CE0101960E949B091C
:100A70002D2D30E080E2E1E5F2E0E216F30699F494
:100A8000A1E3B2E001900D928A95E1F780E2E1E501
:100A9000F2E0DF011D928A95E9F761E372E0C80197
:100AA0000E94460404C0DF011D928A95E9F7109266
:100AB0002D021092300235C080912F02882321F13F
:100AC000BBE7DB1621F1E0912E028DE7D81671F01D
:100AD000AE2FB0E0AF5ABD4FDC92EF5FE0932E0235
:100AE000E032F8F08FE180932E021BC0F0E0EF5A65
:100AF000FD4F108210922E0210922F0281E08093FF
:100B0000300280932D020DC0ABE7DA120AC081E0FB
:100B100080932F0280E2E1E5F2E0DF011D928A95E9
:100B2000E9F78D2D26960FB6F894DEBF0FBECDBF28
:100B3000DF91CF911F910F91FF90EF90DF9008957B
:100B40001F920F920FB60F9211242F933F938F9302
:100B50009F93AF93BF938091900290919102A09147
:100B60009202B091930230918F0223E0230F2D3730
:100B700020F40196A11DB11D05C026E8230F0296A1
:100B8000A11DB11D20938F0280939002909391023A
:100B9000A0939202B0939302809194029091950257
:100BA000A0919602B09197020196A11DB11D80936C
:100BB000940290939502A0939602B0939702BF91EE
:100BC000AF919F918F913F912F910F900FBE0F90FA
:100BD0001F9018953FB7F8948091940290919502D8
:100BE000A0919602B091970226B5A89B05C02F3F11
:100BF00019F00196A11DB11D3FBF6627782F892FDF
:100C00009A2F620F711D811D911D42E0660F771FA3
:100C1000881F991F4A95D1F708958F929F92AF929E
:100C2000BF92CF92DF92EF92FF926B017C010E9404
:100C3000EA054B015C01C114D104E104F104F1F0B7
:100C40000E94310A0E94EA05681979098A099B09FC
:100C5000683E73408105910570F321E0C21AD10806
:100C6000E108F10888EE880E83E0981EA11CB11CF3
:100C7000C114D104E104F10429F7DDCFFF90EF9016
:100C8000DF90CF90BF90AF909F908F900895789411
:100C900084B5826084BD84B5816084BD85B5826081
:100CA00085BD85B5816085BDEEE6F0E0808181601F
:100CB0008083E1E8F0E0108280818260808380811F
:100CC00081608083E0E8F0E0808181608083E1EBF7
:100CD000F0E0808184608083E0EBF0E080818160DF
:100CE0008083EAE7F0E08081846080838081826095
:100CF000808380818160808380818068808310927E
:100D0000C10008951F93CF93DF93182FEB0161E08B
:100D10000E940A07209711F460E004C0CF3FD1057C
:100D200039F461E0812FDF91CF911F910C9443073B
:100D3000E12FF0E0E859FF4FE491E330F9F048F497
:100D4000E130B9F0E230A1F584B5806284BDC8BD60
:100D500034C0E730E9F0E83019F1E43049F580912A
:100D60008000806280938000D0938B00C0938A00C3
:100D700024C084B5806884BDC7BD1FC08091800039
:100D8000806880938000D0938900C093880015C04C
:100D90008091B00080688093B000C093B3000DC014
:100DA0008091B00080628093B000C093B40005C011
:100DB000C038D1050CF0B5CFAFCFDF91CF911F91E7
:100DC0000895833081F028F4813099F08230A1F0C9
:100DD00008958730A9F08830B9F08430D1F480913B
:100DE00080008F7D03C0809180008F77809380008A
:100DF000089584B58F7702C084B58F7D84BD089532
:100E00008091B0008F7703C08091B0008F7D809378
:100E1000B0000895CF93DF9390E0FC01E458FF4FBA
:100E20002491FC01E057FF4F8491882349F190E021
:100E3000880F991FFC01E255FF4FA591B4918C5585
:100E40009F4FFC01C591D4919FB7611108C0F894E0
:100E50008C91209582238C93888182230AC06230F2
:100E600051F4F8948C91322F309583238C938881A0
:100E7000822B888304C0F8948C91822B8C939FBF23
:100E8000DF91CF9108950F931F93CF93DF931F921C
:100E9000CDB7DEB7282F30E0F901E859FF4F849134
:100EA000F901E458FF4F1491F901E057FF4F049105
:100EB0000023C9F0882321F069830E94E10669813B
:100EC000E02FF0E0EE0FFF1FEC55FF4FA591B4911E
:100ED0009FB7F8948C91611103C01095812301C0D4
:100EE000812B8C939FBF0F90DF91CF911F910F911A
:100EF0000895FC01818D228D90E0805C9F4F821BC4
:100F000091098F7399270895FC01918D828D98170F
:100F100031F0828DE80FF11D858D90E008958FEFFF
:100F20009FEF0895FC01918D828D981761F0828D5D
:100F3000DF01A80FB11D5D968C91928D9F5F9F730D
:100F4000928F90E008958FEF9FEF089586E199E0EA
:100F5000892B49F080E090E0892B29F00E94160946
:100F600081110C9400000895FC01848DDF01A80F0D
:100F7000B11DA35ABF4F2C91848D90E001968F73C1
:100F80009927848FA689B7892C93A089B1898C91E0
:100F900080648C93938D848D981306C00288F389A6
:100FA000E02D80818F7D80830895CF93DF93EC01C6
:100FB000888D8823C9F0EA89FB89808185FD05C079
:100FC000A889B9898C9186FD0FC00FB607FCF5CFB3
:100FD000808185FFF2CFA889B9898C9185FFEDCFFB
:100FE000CE010E94B407E7CFDF91CF910895CF9251
:100FF000DF92FF920F931F93CF93DF931F92CDB792
:10100000DEB76C0181E0D60158968C9358975B96B9
:101010009C915B975C968C915C97981307C0509657
:10102000ED91FC915197808185FD2EC0F601038DD5
:1010300010E00F5F1F4F0F731127F02EF601848D04
:10104000F81211C00FB607FCF9CFD6015096ED91FA
:10105000FC915197808185FFF1CFC60169830E9481
:10106000B4076981EBCF838DE80FF11DE35AFF4F81
:101070006083D6015B960C935B975296ED91FC9141
:101080005397808180620CC0D6015696ED91FC91F9
:10109000579760835096ED91FC91519780818064C1
:1010A000808381E090E00F90DF91CF911F910F91AD
:1010B000FF90DF90CF900895BF92CF92DF92EF9292
:1010C000FF92CF93DF93EC016A017B01B22EE88996
:1010D000F98982E08083411581EE58076105710529
:1010E000A1F060E079E08DE390E0A70196010E9415
:1010F000460A2150310941095109569547953795BE
:101100002795211580E1380798F0E889F989108240
:1011100060E874E88EE190E0A70196010E94460A1B
:101120002150310941095109569547953795279521
:10113000EC85FD853083EE85FF852083188EEC8954
:10114000FD89B082EA89FB89808180618083EA8998
:10115000FB89808188608083EA89FB89808180683F
:101160008083EA89FB8980818F7D8083DF91CF91A5
:10117000FF90EF90DF90CF90BF9008951F920F9255
:101180000FB60F9211242F938F939F93EF93FF939A
:10119000E091A802F091A9028081E091AE02F09165
:1011A000AF0282FD12C090818091B1028F5F8F7378
:1011B0002091B202821751F0E091B102F0E0E856BE
:1011C000FD4F958F8093B10201C08081FF91EF9117
:1011D0009F918F912F910F900FBE0F901F90189598
:1011E0001F920F920FB60F9211242F933F934F939C
:1011F0005F936F937F938F939F93AF93BF93EF937F
:10120000FF9388E992E00E94B407FF91EF91BF91AC
:10121000AF919F918F917F916F915F914F913F918E
:101220002F910F900FBE0F901F90189588E992E0B4
:101230000E94790721E0892B09F420E0822F08958C
:1012400010929B0210929A0288EE93E0A0E0B0E028
:1012500080939C0290939D02A0939E02B0939F0264
:101260008BE591E0909399028093980285EC90E051
:101270009093A5028093A40284EC90E09093A7023F
:101280008093A60280EC90E09093A9028093A8023C
:1012900081EC90E09093AB028093AA0282EC90E004
:1012A0009093AD028093AC0286EC90E09093AF02F5
:1012B0008093AE021092B1021092B2021092B30269
:1012C0001092B402089508950E9447060E9463098F
:1012D0000E94BF00C6EAD7E00E948C012097E1F38C
:1012E0000E94A607F9CFCF92DF92EF92FF920F9361
:1012F0001F93CF93DF937C016A01EB0100E010E0C4
:101300000C151D0571F06991D701ED91FC910190CB
:10131000F081E02DC7010995892B19F00F5F1F4F50
:10132000EFCFC801DF91CF911F910F91FF90EF9008
:10133000DF90CF900895FC01808191810C941A0B6D
:10134000CF93DF93EC0188819981009711F00E947F
:101350001A0B198218821D821C821B821A82DF914D
:10136000CF9108950F931F93CF93DF93EC018B01DF
:101370006F5F7F4F888199810E94A90B009731F0A0
:10138000998388831B830A8381E001C080E0DF9119
:10139000CF911F910F910895CF93DF93EC01888136
:1013A0009981892B29F08A819B818617970760F4A0
:1013B000CE010E94B209882341F08C819D81892B46
:1013C00019F4E881F981108281E0DF91CF910895CD
:1013D000EF92FF920F931F93CF93DF93EC017B016A
:1013E0008A01BA010E94CC09811104C0CE010E9479
:1013F000A00907C01D830C83B701888199810E94D1
:10140000840CCE01DF91CF911F910F91FF90EF904F
:101410000895FC01118210821382128215821482B7
:101420006115710559F0FB0101900020E9F7AF014A
:1014300041505109461B570B0C94E8090895FC01D3
:10144000848195816817790720F4808191810097C4
:1014500029F41092350385E393E00895860F971FD2
:101460000895089597FB072E16F4009407D077FD92
:1014700009D00E94680A07FC05D03EF4909581953A
:101480009F4F0895709561957F4F0895A1E21A2EA0
:10149000AA1BBB1BFD010DC0AA1FBB1FEE1FFF1F18
:1014A000A217B307E407F50720F0A21BB30BE40B68
:1014B000F50B661F771F881F991F1A9469F76095AF
:1014C0007095809590959B01AC01BD01CF01089569
:1014D000AA1BBB1B51E107C0AA1FBB1FA617B7075A
:1014E00010F0A61BB70B881F991F5A95A9F7809576
:1014F0009095BC01CD010895EE0FFF1F0590F4916A
:10150000E02D0994CF93DF938230910510F482E0AF
:1015100090E0E0913803F091390320E030E0A0E062
:10152000B0E0309739F14081518148175907B8F040
:101530004817590771F482819381109729F0139607
:101540009C938E9312972CC0909339038093380309
:1015500027C02115310531F04217530718F0A901B2
:10156000DB0101C0EF019A01BD01DF010280F381BF
:10157000E02DD7CF21153105F9F0281B390B243088
:10158000310580F48A819B816115710521F0FB0191
:101590009383828304C09093390380933803FE01C0
:1015A000329644C0FE01E20FF31F819391932250C3
:1015B0003109398328833AC02091360330913703AB
:1015C000232B41F420910201309103013093370322
:1015D000209336032091000130910101211531053E
:1015E00041F42DB73EB74091040150910501241BF1
:1015F000350BE0913603F0913703E217F307A0F4BF
:101600002E1B3F0B2817390778F0AC014E5F5F4F58
:101610002417350748F04E0F5F1F50933703409350
:1016200036038193919302C0E0E0F0E0CF01DF91B7
:10163000CF910895CF93DF93009709F487C0FC0101
:10164000329713821282C0913803D09139032097C8
:1016500081F420813181280F391F809136039091C8
:1016600037038217930779F5F0933703E093360336
:101670006DC0DE0120E030E0AE17BF0750F41296D7
:101680004D915C9113979D014115510509F1DA01C6
:10169000F3CFB383A28340815181840F951F8A17B2
:1016A0009B0771F48D919C911197840F951F029661
:1016B0009183808312968D919C911397938382835B
:1016C0002115310529F4F0933903E09338033EC026
:1016D000D9011396FC93EE9312974D915D91A40F4F
:1016E000B51FEA17FB0779F480819181840F951F5C
:1016F0000296D90111969C938E93828193811396C1
:101700009C938E931297E0E0F0E08A819B81009792
:1017100019F0FE01EC01F9CFCE0102962881398142
:10172000820F931F20913603309137032817390712
:1017300069F4309729F4109239031092380302C0EB
:1017400013821282D0933703C0933603DF91CF9177
:101750000895A0E0B0E0EFEAFBE00C94D00FEC01BC
:10176000CB01209719F40E94820AB8C0FE01E60F4F
:10177000F71F9E0122503109E217F30708F4ACC0AD
:10178000D9010D911C91119706171707B8F0053074
:10179000110508F49FC0A801445051094617570786
:1017A00008F498C002501109061B170B01931193FE
:1017B0006D937C93CF010E941A0B8CC05B01A01A21
:1017C000B10A4E01800E911EA0913803B0913903E9
:1017D000612C712C60E070E0109709F449C0A815E5
:1017E000B905C9F5ED90FC901197670142E0C40E70
:1017F000D11CCA14DB0478F147018A189B086401E4
:1018000042E0C40ED11C1296BC9012971396AC9174
:10181000B5E0CB16D10440F0B282A38391828082DE
:10182000D9018D939C9309C00E5F1F4F0E0D1F1D94
:10183000F90111830083EB2DFA2F6115710531F049
:10184000DB011396FC93EE93129744C0F093390397
:10185000E09338033FC06D917C911197661677062F
:1018600008F43B01BD0112960D90BC91A02DB4CFA0
:10187000609136037091370368157905E9F46816AD
:101880007906D0F4409100015091010141155105B4
:1018900041F44DB75EB76091040170910501461B9C
:1018A000570BE417F507C0F4F0933703E0933603C2
:1018B000F901918380830EC00E94820A7C01009707
:1018C00059F0A801BE010E947B0CCE010E941A0BA8
:1018D000C70104C0CE0102C080E090E0CDB7DEB702
:1018E000EEE00C94EC0F9111F2C2803219F08950A5
:1018F0008550D0F70895FB01DC0102C001900D92E4
:1019000041505040D8F70895FB01DC0101900D9241
:101910000020E1F70895FB01DC014150504030F018
:101920008D910190801919F40020B9F7881B990B4B
:101930000895AEE0B0E0EFE9FCE00C94DC0F85E048
:101940008C838B899C899A838983AE01495E5F4F22
:101950006D897E89CE0101960E94300E2E96E2E0BE
:101960000C94F80F20FD09C0FC0123FD05C022FFE7
:1019700002C07383628351834083089544FD10C085
:1019800046FD10C0DB01FC01AA0FBB1FEE1FFF1FAD
:101990001094D1F76A0F7B1F8E1F9F1F31E003C089
:1019A00033E001C034E0660F771F881F991F315064
:1019B000D1F7620F711D811D911D08950F931F9323
:1019C000CF93DF938C01C8010E94750FEC0197FD46
:1019D00008C00E94730C892BB1F7B801CE010E9498
:1019E000B30FCE01DF91CF911F910F9108958F9288
:1019F0009F92AF92CF92DF92EF92FF920F931F933D
:101A0000CF93DF93EC01A62E4A01022F0E94750F9F
:101A1000AC0155274B32510521F04D32510551F49F
:101A20000068AA9411F480E067C0CE010E94750F8F
:101A300097FDF9CF102F1D7F302F307301F58033C4
:101A4000F1F4FF24FA94FA0C09F442C0CE010E948A
:101A5000750F97FD3DC0382F3F7D383551F4126426
:101A6000AA94AA94A9F1CE010E94750F97FF07C00E
:101A70002FC006FF02C0126001C01261AF2CC12C42
:101A8000D12C760120ED280F283080F014FF04C0FF
:101A9000BE010E94B30F19C02A3040F016FFF8CFE4
:101AA0002F7D3FEE320F363098F72750412FC70178
:101AB000B6010E94BE0C6B017C011260AA9459F021
:101AC000CE010E94750F97FFDDCF11FD04C0ABCF93
:101AD000C12CD12C760117FF08C0F094E094D0946B
:101AE000C094C11CD11CE11CF11C212FB701A6011F
:101AF000C4010E94B20C81E0DF91CF911F910F9140
:101B0000FF90EF90DF90CF90AF909F908F900895CF
:101B1000A1E2B0E0EEE8FDE00C94D10F5C017A01A7
:101B20008E010F5F1F4F680180E2D8011D928A95D8
:101B3000E9F7F501738040E050E0812CB0E0912C92
:101B400081E090E0F90173FCA59173FEA1918F01F2
:101B50007A2F9F01A11103C080E090E07DC0AE35D7
:101B600019F44115510559F1E92DF0E0E417F50795
:101B70003CF4AD3569F1AD3219F4BB2319F103C062
:101B8000B11101C08A2EE72FE695E695E69586010C
:101B90000E0F111DF801A72FA7708C0102C0000FB6
:101BA000111FAA95E2F7D801B081BA2BB08378153E
:101BB00059F0781510F47F5FE6CF7150E4CF992487
:101BC000939403C0B1E001C0B0E04F5F5F4FBACF64
:101BD000BB2319F08E8180628E83911003C09924FB
:101BE000939415C0F601CE01819620812095219312
:101BF000E817F907D1F7F3CFE114F10429F0D70181
:101C00008C93F70131967F01615001F1912CC50150
:101C100069A30E94750F69A197FD16C0282F26950C
:101C200026952695F601E20FF11D208130E0AC01EA
:101C30004770552702C0359527954A95E2F720FD54
:101C4000DBCFB5010E94B30F911086CFE114F104F0
:101C500011F0D7011C92C801A196EDE00C94ED0F94
:101C60004F925F927F928F929F92AF92BF92CF924C
:101C7000DF92EF92FF920F931F93CF93DF931F9208
:101C8000CDB7DEB78C012B017A01FC0117821682D9
:101C9000A12CF801D380F201D3FC8591D3FE819170
:101CA000382F2F01882309F4FCC090E039830E946B
:101CB000730C3981892B21F0C8010E94DE0CE9CF19
:101CC000353241F4F201D3FC3591D3FE31912F012D
:101CD000353269F4C80139830E94750F398197FD47
:101CE000DEC03817B1F2B8010E94B30FDAC03A3241
:101CF00041F4D3FC3591D3FE31912F01BB24B39431
:101D000001C0B12C712C20ED230F2A3090F4FB2D53
:101D1000F260BF2E672D70E080E090E040E20E940C
:101D2000BE0C762EF201D3FC3591D3FE31912F01FA
:101D3000EACFB1FE03C0711003C0B3C077247A9418
:101D4000383619F03C3661F014C0F201D3FC3591FD
:101D5000D3FE31912F01383661F4FB2DF860BF2E90
:101D60008B2D8460B82EF201D3FC3591D3FE3191D6
:101D70002F01332309F495C0632F70E088EB90E0C6
:101D800039830E946A0F3981892B09F48AC0B0FC1B
:101D900007C0F701C080D180C70102967C0102C054
:101DA000C12CD12C3E3651F4F8014681578160E0B8
:101DB00070E02B2DC6010E94B20C6BCF3336A1F41C
:101DC000B1FC02C077247394C8010E94750F97FD7F
:101DD00066C0C114D10429F0F6018083C6010196C2
:101DE0006C017A9489F757C03B3559F49201A601EA
:101DF000672DC8010E94880D2C01009709F04BC087
:101E000045C0C80139830E94DE0C398197FD47C067
:101E10003F3669F128F4343631F1393679F12BC087
:101E2000333769F03537F9F026C0C114D10429F0F1
:101E3000F6018082C60101966C017A9471F0C801A6
:101E40000E94750F4C0197FD08C00E94730C892BEE
:101E500061F3B801C4010E94B30FC114D104D9F0D9
:101E6000F601108218C0FB2DF062BF2E07C08B2D2B
:101E70008061B82E03C09B2D9064B92E2B2DA60136
:101E8000672DC8010E94F70C811105C0F8018381FC
:101E9000807329F406C0B0FCFCCEA394FACEAA202D
:101EA00019F08A2D90E002C08FEF9FEF0F90DF9125
:101EB000CF911F910F91FF90EF90DF90CF90BF9047
:101EC000AF909F908F907F905F904F90089599274B
:101ED00088270895FC010590061621F00020D9F707
:101EE000C00108953197CF010895CF93DF93EC019E
:101EF0002B8120FF33C026FF0AC02F7B2B838E81CE
:101F00009F8101969F838E838A8190E029C022FF62
:101F10000FC0E881F9818081992787FD909500970E
:101F200019F420622B831AC03196F983E8830EC01E
:101F3000EA85FB85099597FF09C02B81019611F46D
:101F400080E101C080E2822B8B8308C02E813F811B
:101F50002F5F3F4F3F832E83992702C08FEF9FEF64
:101F6000DF91CF910895FB01238120FF12C026FD50
:101F700010C08F3F3FEF930761F082832F7D206475
:101F8000238326813781215031093783268399277E
:101F900008958FEF9FEF08952F923F924F925F9297
:101FA0006F927F928F929F92AF92BF92CF92DF9269
:101FB000EF92FF920F931F93CF93DF93CDB7DEB7CE
:101FC000CA1BDB0B0FB6F894DEBF0FBECDBF099462
:101FD0002A88398848885F846E847D848C849B84B9
:101FE000AA84B984C884DF80EE80FD800C811B81C7
:101FF000AA81B981CE0FD11D0FB6F894DEBF0FBEF6
:0A200000CDBFED010895F894FFCF65
:10200A0000003A0380003B0101073F010B0743012F
:10201A000B0747010B074B010B074F010107530140
:10202A000107000000000000000040021302B9018D
:10203A00C101D401E301256425640041524D004DDC
:10204A0054520053525600554C54004952530044BE
:10205A00475400414E4C0000000000F7077309790D
:08206A000792078407D5070067
:00000001FF
