:100000000C9465000C948D000C948D000C948D0064
:100010000C948D000C948D000C948D000C948D002C
:100020000C948D000C948D000C948D000C948D001C
:100030000C948D000C948D000C948D000C948D000C
:100040000C9432050C948D000C94F1070C94230849
:100050000C948D000C948D000C948D000C948D00EC
:100060000C9478020C948D0000000008000201003E
:100070000003040700000000000000000102040863
:100080001020408001020408102001020408102002
:10009000040404040404040402020202020203032E
:1000A0000303030300000000250028002B000000CC
:1000B0000000240027002A006364696E6F70737566
:1000C00078585B00EA001F02530811241FBECFEFCF
:1000D000D8E0DEBFCDBF11E0A0E0B1E0E4E6F0E2A1
:1000E00002C005900D92AA38B107D9F723E0AAE81B
:1000F000B1E001C01D92AD35B207E1F710E0CAECE6
:10010000D0E004C02297FE010E94AB0AC43CD10794
:10011000C9F70E9497080C9430100C94000061E01D
:1001200080E10E943D0661E081E10E943D0661E0C0
:100130008EE00E943D0661E08FE00E943D0661E096
:1001400087E00E943D0661E088E00E943D0661E094
:100150008CE00E943D0661E08DE00E943D0661E07A
:1001600083E00E943D0661E089E00E943D0661E077
:100170008AE00E943D0661E08BE00C943D06E1E8D8
:10018000F0E08081887F81608083E1EBF0E0808116
:10019000887F8160808365E470E08CE891E00E9454
:1001A000180267E171E08CE891E00E941A0260E0B9
:1001B00082E10E94760660E083E10E94760626E0F6
:1001C00040E855E260E070E08BEB92E00E948F0720
:1001D0000C948F008BEB92E090938B0180938A01BB
:1001E0000895CF93C0E08BEB92E00E94AC06181606
:1001F00019065CF48BEB92E00E94C506682F8AE832
:1002000091E00E947D04C1E0EECFCC2331F060E0AC
:100210008AE891E0CF910C947D04CF9108950E94DB
:10022000F10068EC70E080E090E00C949F05CF93C3
:10023000C0E08CE891E00E943501181619065CF4C4
:100240008CE891E00E943D01682F8AE891E00E94CD
:100250007D04C1E0EECFCC2331F060E08AE891E08C
:10026000CF910C947D04CF9108958091BF0190E0CF
:100270002091C001821B910908952091C0018091B5
:10028000BF01281750F4E22FF0E0EF53FE4F8081BA
:1002900090E02F5F2093C00108958FEF9FEF0895A6
:1002A000E091C0018091BF01E81730F4F0E0EF5316
:1002B000FE4F808190E008958FEF9FEF089508959D
:1002C000E0919801F09199013097E1F03091C001EF
:1002D0002091BF013217B0F040E0242F30E0261704
:1002E000370754F4DC01A20FB31F5C91D901AF535F
:1002F000BE4F5C934F5FF1CF1092C0016093BF017E
:10030000CB0109940895E0919A01F0919B013097F7
:1003100029F010929E0110929D0109940895CF92A8
:10032000DF92EF92FF920F931F93CF93DF937C01A5
:10033000CB018A0120919C01222389F0EB016B0102
:10034000C40ED51ECC15DD0569F06991D701ED917C
:10035000FC910190F081E02DC7010995F3CF642F46
:100360000E944502C801DF91CF911F910F91FF902C
:10037000EF90DF90CF900895CF93DF931F92CDB78A
:10038000DEB7698320919C012223D1F020919D0149
:10039000203240F021E030E0FC013383228380E012
:1003A00090E015C080919E01E82FF0E0E156FE4FED
:1003B000998190838F5F80939E0180939D0105C0FA
:1003C00061E0CE0101960E94450281E090E00F902D
:1003D000DF91CF910895FC011382128248EE53E021
:1003E00060E070E044835583668377838AE291E01E
:1003F0009183808308951092C0011092BF011092E2
:100400009E0110929D010C942302CF93DF93EC0187
:10041000862F0E94410283E891E00E94630280E6F9
:1004200091E00E945E02CE01DF91CF910C94FB011E
:100430000C940502709399016093980108958CE8DB
:1004400091E00C94EB0110924E0281E080934C02FB
:1004500010924B0261E082E10E94760661E083E146
:100460000E947606E9EBF0E080818E7F80838081B8
:100470008D7F808388E48093B80085E48093BC00FE
:100480000895880F8093BA000895613298F42091FE
:100490004E02243089F460930302FC0185E092E06F
:1004A000DC012A2F281B261718F421912D93F9CF50
:1004B00080E0089581E0089582E0089590934802D5
:1004C00080934702089590934A02809349020895C9
:1004D00085ED8093BC008091BC0084FDFCCF109220
:1004E0004E02089585EC8093BC0010924E02089550
:1004F0001F920F920FB60F9211242F933F934F9399
:100500005F936F937F938F939F93AF93BF93EF937B
:10051000FF938091B900887F803609F49EC078F5FA
:10052000883209F45DC090F4803109F456C038F483
:10053000882309F4F5C0883009F44FC0F5C088312C
:1005400009F44EC0803209F45FC0EEC0803409F473
:100550006AC058F4803309F457C0883309F0E4C006
:100560008093E1010E947202DFC0803509F44FC020
:10057000883509F45DC0883409F0D6C0D3C0883905
:1005800009F4C4C0A8F4883709F467C038F4883681
:1005900009F463C0803709F460C0C6C0883809F424
:1005A000B5C0803909F45FC0803809F0BDC05BC0B8
:1005B000803B09F483C038F4803A09F466C0883A75
:1005C00009F47CC0B1C0803C09F4A4C0883C09F4A3
:1005D000A1C0883B09F487C0A7C080914D0210C01C
:1005E0009091260280912502981770F5E0912602DD
:1005F00081E08E0F80932602F0E0E95DFD4F80815F
:100600008093BB0085EC83C08093E1018BC0E091B7
:10061000260281E08E0F809326028091BB00F0E0DD
:10062000E95DFD4F808390912602809125026BC089
:10063000E091260281E08E0F809326028091BB001C
:10064000F0E0E95DFD4F808380914C0281116AC02A
:1006500081E080934B0284EA5EC083E080934E0287
:100660001092E201CFCF8091E201803208F04EC0BB
:10067000E091E20181E08E0F8093E2018091BB0066
:10068000F0E0ED51FE4F8083BDCF0E947202809159
:10069000E201803230F4E091E201F0E0ED51FE4FF2
:1006A00010826091E20170E0E0914702F09148020F
:1006B00083EE91E009951092E20136C084E08093C8
:1006C0004E021092040210920302E0914902F0914E
:1006D0004A02099580910302811105C081E080934F
:1006E000030210920502E091040281E08E0F8093D4
:1006F0000402F0E0EB5FFD4F80818093BB0090919E
:10070000040280910302981708F47CCF85E8809357
:10071000BC000AC085EC8093BC0010924E0204C05D
:100720001092E1010E946802FF91EF91BF91AF9199
:100730009F918F917F916F915F914F913F912F91F9
:100740000F900FBE0F901F9018958FEF860F8F3070
:1007500040F4E62FF0E0EE0FFF1FEE56FD4F518301
:10076000408308956F927F928F929F92AF92BF9233
:10077000CF92DF92EF92FF920F931F93CF93DF936D
:1007800000D000D0CDB7DEB77C018B011C821B826C
:100790001A821982FB0101900020E9F73197E61BCC
:1007A000F70BE53008F465C0FB016180728026E03C
:1007B000A22E21E0B22EC12CD12C4B01F3E08F0EE2
:1007C000911CF501608171816115710589F0FB0152
:1007D00001900020E9F7AF0141505109461B570B2A
:1007E000C4010E94B80CF4E0AF0EB11C892B61F477
:1007F00080915102681661F066E371E0F701808133
:1008000091810E94F10804C02FEFC21AD20AD9CFF9
:10081000CA94CD2871F524E272122BC0F801019020
:100820000020E9F73197E01BF10B80910C0190E07B
:10083000E817F907F1F4CE0101969F938F93029682
:100840009F938F9386E491E09F938F930A5F1F4F4E
:100850001F930F930E94C60C0FB6F894DEBF0FBE15
:10086000CDBF029731F449815A816B81C7010E9443
:10087000A5030F900F900F900F90DF91CF911F91D4
:100880000F91FF90EF90DF90CF90BF90AF909F902F
:100890008F907F906F900895CF92DF92EF92FF92AA
:1008A0000F931F93CF93DF937B01FB01C480D5800F
:1008B000C0E0D0E000E010E0CC15DD057CF4BE0126
:1008C000C7010E944C0AFC012081332727FD309587
:1008D00020523109020F131F2196EECFC8016FE598
:1008E00070E00E945F0A8096DF91CF911F910F9177
:1008F000FF90EF90DF90CF900895DF92EF92FF92FC
:100900000F931F93CF93DF9300D000D000D0CDB7CB
:10091000DEB78C01D62E61110BC080E2E4E7F2E075
:10092000DF011D928A95E9F710925202109250024F
:1009300080915302882309F451C080914F0288238B
:1009400009F481C064E772E0CE0101960E94360A84
:10095000BE016F5F7F4FC8010E944C047C01CE0135
:1009600001960E94C8094AE050E06D2DF80180818F
:1009700091810E94C1096BE471E0D8018D919C9135
:100980000E94E4084AE050E0B701F80180819181BB
:100990000E949C092D2D30E080E2E4E7F2E0E216AF
:1009A000F30699F4A4E5B2E001900D928A95E1F77F
:1009B00080E2E4E7F2E0DF011D928A95E9F764E561
:1009C00072E0C8010E94B20304C0DF011D928A9543
:1009D000E9F710924F021092530235C080915202F3
:1009E000882321F1BBE7DB1621F1E0915002FDE7FE
:1009F000DF1671F0AE2FB0E0AC58BD4FDC92EF5F68
:100A0000E0935002E032F8F08FE1809350021BC077
:100A1000F0E0EC58FD4F10821092500210925202FA
:100A200081E08093530280934F020DC08BE7D81270
:100A30000AC081E08093520280E2E4E7F2E0DF0145
:100A40001D928A95E9F78D2D26960FB6F894DEBF94
:100A50000FBECDBFDF91CF911F910F91FF90EF900F
:100A6000DF9008951F920F920FB60F9211242F93CB
:100A70003F938F939F93AF93BF938091B3029091D5
:100A8000B402A091B502B091B6023091B20223E057
:100A9000230F2D3720F40196A11DB11D05C026E8B6
:100AA000230F0296A11DB11D2093B2028093B302C1
:100AB0009093B402A093B502B093B6028091B702AE
:100AC0009091B802A091B902B091BA020196A11D0D
:100AD000B11D8093B7029093B802A093B902B0936E
:100AE000BA02BF91AF919F918F913F912F910F903B
:100AF0000FBE0F901F9018953FB7F8948091B702E2
:100B00009091B802A091B902B091BA0226B5A89B03
:100B100005C02F3F19F00196A11DB11D3FBF6627EB
:100B2000782F892F9A2F620F711D811D911D42E030
:100B3000660F771F881F991F4A95D1F708958F92E6
:100B40009F92AF92BF92CF92DF92EF92FF926B0192
:100B50007C010E947C054B015C01C114D104E104BD
:100B6000F104F1F00E945E0A0E947C05681979097F
:100B70008A099B09683E73408105910570F321E065
:100B8000C21AD108E108F10888EE880E83E0981EA9
:100B9000A11CB11CC114D104E104F10429F7DDCF7B
:100BA000FF90EF90DF90CF90BF90AF909F908F908D
:100BB0000895789484B5826084BD84B5816084BDD5
:100BC00085B5826085BD85B5816085BDEEE6F0E0C6
:100BD000808181608083E1E8F0E010828081826022
:100BE0008083808181608083E0E8F0E080818160A3
:100BF0008083E1EBF0E0808184608083E0EBF0E0D3
:100C0000808181608083EAE7F0E080818460808376
:100C10008081826080838081816080838081806820
:100C200080831092C1000895833081F028F48130D0
:100C300099F08230A1F008958730A9F08830B9F09A
:100C40008430D1F4809180008F7D03C0809180003A
:100C50008F7780938000089584B58F7702C084B524
:100C60008F7D84BD08958091B0008F7703C08091FF
:100C7000B0008F7D8093B0000895CF93DF9390E014
:100C8000FC01E458FF4F2491FC01E057FF4F849191
:100C9000882349F190E0880F991FFC01E255FF4F2E
:100CA000A591B4918C559F4FFC01C591D4919FB7EC
:100CB000611108C0F8948C91209582238C938881CF
:100CC00082230AC0623051F4F8948C91322F30950F
:100CD00083238C938881822B888304C0F8948C9121
:100CE000822B8C939FBFDF91CF9108950F931F9319
:100CF000CF93DF931F92CDB7DEB7282F30E0F901F5
:100D0000E859FF4F8491F901E458FF4F1491F9011C
:100D1000E057FF4F04910023C9F0882321F0698335
:100D20000E9414066981E02FF0E0EE0FFF1FEC55E2
:100D3000FF4FA591B4919FB7F8948C91611103C0B6
:100D40001095812301C0812B8C939FBF0F90DF9161
:100D5000CF911F910F910895FC01818D228D90E01C
:100D6000805C9F4F821B91098F7399270895FC0126
:100D7000918D828D981731F0828DE80FF11D858D50
:100D800090E008958FEF9FEF0895FC01918D828D83
:100D9000981761F0828DDF01A80FB11D5D968C91CF
:100DA000928D9F5F9F73928F90E008958FEF9FEFDA
:100DB000089589E498E0892B49F080E090E0892B40
:100DC00029F00E94490881110C9400000895FC014B
:100DD000848DDF01A80FB11DA35ABF4F2C91848DC4
:100DE00090E001968F739927848FA689B7892C93F9
:100DF000A089B1898C9180648C93938D848D981394
:100E000006C00288F389E02D80818F7D808308955C
:100E1000CF93DF93EC01888D8823C9F0EA89FB89A1
:100E2000808185FD05C0A889B9898C9186FD0FC098
:100E30000FB607FCF5CF808185FFF2CFA889B9896D
:100E40008C9185FFEDCFCE010E94E706E7CFDF91C1
:100E5000CF910895CF92DF92FF920F931F93CF937C
:100E6000DF931F92CDB7DEB76C0181E0D6015896B3
:100E70008C9358975B969C915B975C968C915C9752
:100E8000981307C05096ED91FC915197808185FD94
:100E90002EC0F601038D10E00F5F1F4F0F73112757
:100EA000F02EF601848DF81211C00FB607FCF9CFB1
:100EB000D6015096ED91FC915197808185FFF1CF3D
:100EC000C60169830E94E7066981EBCF838DE80F35
:100ED000F11DE35AFF4F6083D6015B960C935B973D
:100EE0005296ED91FC915397808180620CC0D6019F
:100EF0005696ED91FC91579760835096ED91FC9139
:100F0000519780818064808381E090E00F90DF9131
:100F1000CF911F910F91FF90DF90CF900895BF92D6
:100F2000CF92DF92EF92FF92CF93DF93EC016A01B1
:100F30007B01B22EE889F98982E08083411581EE38
:100F4000580761057105A1F060E079E08DE390E05C
:100F5000A70196010E94730A2150310941095109E4
:100F60005695479537952795211580E1380798F0D4
:100F7000E889F989108260E874E88EE190E0A701C1
:100F800096010E94730A2150310941095109569571
:100F9000479537952795EC85FD853083EE85FF8550
:100FA0002083188EEC89FD89B082EA89FB898081D3
:100FB00080618083EA89FB89808188608083EA89F7
:100FC000FB89808180688083EA89FB8980818F7DAD
:100FD0008083DF91CF91FF90EF90DF90CF90BF9013
:100FE00008951F920F920FB60F9211242F938F9393
:100FF0009F93EF93FF93E091CB02F091CC0280811D
:10100000E091D102F091D20282FD12C090818091D4
:10101000D4028F5F8F732091D502821751F0E09137
:10102000D402F0E0E554FD4F958F8093D40201C0C7
:101030008081FF91EF919F918F912F910F900FBE23
:101040000F901F9018951F920F920FB60F921124B8
:101050002F933F934F935F936F937F938F939F93C0
:10106000AF93BF93EF93FF938BEB92E00E94E70661
:10107000FF91EF91BF91AF919F918F917F916F9170
:101080005F914F913F912F910F900FBE0F901F9046
:1010900018958BEB92E00E94AC0621E0892B09F4B5
:1010A00020E0822F08951092BE021092BD0288EEB9
:1010B00093E0A0E0B0E08093BF029093C002A093C1
:1010C000C102B093C2028DE691E09093BC0280937E
:1010D000BB0285EC90E09093C8028093C70284EC39
:1010E00090E09093CA028093C90280EC90E09093C4
:1010F000CC028093CB0281EC90E09093CE0280935F
:10110000CD0282EC90E09093D0028093CF0286ECE7
:1011100090E09093D2028093D1021092D402109268
:10112000D5021092D6021092D702089508950E9417
:10113000D9050E9496080E94BF00C9EDD6E00E9422
:101140000F012097E1F30E94D906F9CFCF92DF92E9
:10115000EF92FF920F931F93CF93DF937C016A016D
:10116000EB0100E010E00C151D0571F06991D7014D
:10117000ED91FC910190F081E02DC7010995892B3B
:1011800019F00F5F1F4FEFCFC801DF91CF911F9173
:101190000F91FF90EF90DF90CF900895611571054A
:1011A00081F0DB010D900020E9F7AD0141505109BC
:1011B000461B570BDC01ED91FC910280F381E02D81
:1011C000099480E090E008950C94CE08DC01ED9144
:1011D000FC910190F081E02D099469E771E00C9495
:1011E000CE080F931F93CF93DF93EC010E94CE089C
:1011F0008C01CE010E94ED08800F911FDF91CF91ED
:101200001F910F9108958F929F92AF92BF92DF929C
:10121000EF92FF920F931F93CF93DF93CDB7DEB77B
:10122000A1970FB6F894DEBF0FBECDBF7C01F42F9F
:10123000D52ECB0119A2223008F42AE08E010F5DD1
:101240001F4F822E912CA12CB12C6F2F7D2DA5012B
:1012500094010E94730AF22FD32ECA010150110982
:101260006A3014F4E0E301C0E7E3E60FD801EC9341
:10127000232B242B252B49F7B801C7010E94CE0848
:10128000A1960FB6F894DEBF0FBECDBFDF91CF9110
:101290001F910F91FF90EF90DF90BF90AF909F90C4
:1012A0008F900895CF92DF92EF92FF920F931F934A
:1012B000CF93DF93EC016A017B012115310579F4AD
:1012C000E881F9810190F081E02D642FDF91CF91C9
:1012D0001F910F91FF90EF90DF90CF9009942A30EB
:1012E0003105E9F477FF1AC06DE20E94E6088C012F
:1012F00044275527BA014C195D096E097F092AE078
:10130000CE010E940309800F911FDF91CF911F91A1
:101310000F91FF90EF90DF90CF9008952AE0B701F2
:10132000A601CE01DF91CF911F910F91FF90EF9019
:10133000DF90CF900C9403090F931F93CF93DF930B
:10134000EC019A01AB01662757FD6095762F0E944C
:1013500052098C01CE010E94ED08800F911FDF9190
:10136000CF911F910F9108952115310541F4DC01B2
:10137000ED91FC910190F081E02D642F09940C9483
:1013800003099A01462F50E060E070E00C94B40924
:10139000FC01808191810C94470BCF93DF93EC018A
:1013A00088819981009711F00E94470B1982188259
:1013B0001D821C821B821A82DF91CF9108950F93A8
:1013C0001F93CF93DF93EC018B016F5F7F4F888179
:1013D00099810E94D60B009731F0998388831B83F3
:1013E0000A8381E001C080E0DF91CF911F910F91CE
:1013F0000895CF93DF93EC0188819981892B29F09F
:101400008A819B818617970760F4CE010E94DF09CD
:10141000882341F08C819D81892B19F4E881F98121
:10142000108281E0DF91CF910895EF92FF920F93A8
:101430001F93CF93DF93EC017B018A01BA010E94D5
:10144000F909811104C0CE010E94CD0907C01D8396
:101450000C83B701888199810E94B10CCE01DF9184
:10146000CF911F910F91FF90EF900895FC01118291
:10147000108213821282158214826115710559F04F
:10148000FB0101900020E9F7AF0141505109461BD3
:10149000570B0C94150A0895FC01848195816817F7
:1014A000790720F480819181009729F410925803E4
:1014B00088E593E00895860F971F0895089597FB98
:1014C000072E16F4009407D077FD09D00E94950AE4
:1014D00007FC05D03EF4909581959F4F0895709537
:1014E00061957F4F0895A1E21A2EAA1BBB1BFD0137
:1014F0000DC0AA1FBB1FEE1FFF1FA217B307E407F3
:10150000F50720F0A21BB30BE40BF50B661F771F4A
:10151000881F991F1A9469F760957095809590952A
:101520009B01AC01BD01CF010895AA1BBB1B51E17A
:1015300007C0AA1FBB1FA617B70710F0A61BB70B43
:10154000881F991F5A95A9F780959095BC01CD01E8
:101550000895EE0FFF1F0590F491E02D0994CF93AD
:10156000DF938230910510F482E090E0E0915B031C
:10157000F0915C0320E030E0A0E0B0E0309739F17A
:101580004081518148175907B8F04817590771F43D
:1015900082819381109729F013969C938E931297D2
:1015A0002CC090935C0380935B0327C02115310509
:1015B00031F04217530718F0A901DB0101C0EF0118
:1015C0009A01BD01DF010280F381E02DD7CF211503
:1015D0003105F9F0281B390B2430310580F48A815C
:1015E0009B816115710521F0FB019383828304C007
:1015F00090935C0380935B03FE01329644C0FE012E
:10160000E20FF31F8193919322503109398328838C
:101610003AC02091590330915A03232B41F4209171
:1016200002013091030130935A0320935903209112
:101630000001309101012115310541F42DB73EB76C
:101640004091040150910501241B350BE091590391
:10165000F0915A03E217F307A0F42E1B3F0B281753
:10166000390778F0AC014E5F5F4F2417350748F01B
:101670004E0F5F1F50935A034093590381939193E8
:1016800002C0E0E0F0E0CF01DF91CF910895CF9369
:10169000DF93009709F487C0FC013297138212820E
:1016A000C0915B03D0915C03209781F4208131814C
:1016B000280F391F8091590390915A03821793077D
:1016C00079F5F0935A03E09359036DC0DE0120E0F1
:1016D00030E0AE17BF0750F412964D915C9113970E
:1016E0009D014115510509F1DA01F3CFB383A283BE
:1016F00040815181840F951F8A179B0771F48D914A
:101700009C911197840F951F029691838083129666
:101710008D919C911397938382832115310529F430
:10172000F0935C03E0935B033EC0D9011396FC93F6
:10173000EE9312974D915D91A40FB51FEA17FB0729
:1017400079F480819181840F951F0296D9011196B9
:101750009C938E938281938113969C938E93129780
:10176000E0E0F0E08A819B81009719F0FE01EC0136
:10177000F9CFCE01029628813981820F931F2091E3
:10178000590330915A032817390769F4309729F41F
:1017900010925C0310925B0302C013821282D093FA
:1017A0005A03C0935903DF91CF910895A0E0B0E0B0
:1017B000ECEDFBE00C94FD0FEC01CB01209719F44C
:1017C0000E94AF0AB8C0FE01E60FF71F9E0122502B
:1017D0003109E217F30708F4ACC0D9010D911C914F
:1017E000119706171707B8F00530110508F49FC0C8
:1017F000A801445051094617570708F498C00250F1
:101800001109061B170B019311936D937C93CF0164
:101810000E94470B8CC05B01A01AB10A4E01800EDA
:10182000911EA0915B03B0915C03612C712C60E070
:1018300070E0109709F449C0A815B905C9F5ED90F5
:10184000FC901197670142E0C40ED11CCA14DB045E
:1018500078F147018A189B08640142E0C40ED11C4C
:101860001296BC9012971396AC91B5E0CB16D104AA
:1018700040F0B282A38391828082D9018D939C93A0
:1018800009C00E5F1F4F0E0D1F1DF901118300834C
:10189000EB2DFA2F6115710531F0DB011396FC93E6
:1018A000EE93129744C0F0935C03E0935B033FC058
:1018B0006D917C9111976616770608F43B01BD0186
:1018C00012960D90BC91A02DB4CF609159037091E8
:1018D0005A0368157905E9F468167906D0F4409141
:1018E0000001509101014115510541F44DB75EB71A
:1018F0006091040170910501461B570BE417F50731
:10190000C0F4F0935A03E0935903F9019183808363
:101910000EC00E94AF0A7C01009759F0A801BE01D9
:101920000E94A80CCE010E94470BC70104C0CE0143
:1019300002C080E090E0CDB7DEB7EEE00C94191065
:101940009111F2C2803219F089508550D0F7089574
:10195000FB01DC0102C001900D9241505040D8F7CC
:101960000895FB01DC0101900D920020E1F708953C
:10197000FB01DC014150504030F08D910190801905
:1019800019F40020B9F7881B990B0895AEE0B0E078
:10199000ECECFCE00C94091085E08C838B899C892D
:1019A0009A838983AE01495E5F4F6D897E89CE013E
:1019B00001960E945D0E2E96E2E00C94251020FD0B
:1019C00009C0FC0123FD05C022FF02C073836283AE
:1019D00051834083089544FD10C046FD10C0DB01D3
:1019E000FC01AA0FBB1FEE1FFF1F1094D1F76A0F57
:1019F0007B1F8E1F9F1F31E003C033E001C034E026
:101A0000660F771F881F991F3150D1F7620F711D24
:101A1000811D911D08950F931F93CF93DF938C0128
:101A2000C8010E94A20FEC0197FD08C00E94A00C03
:101A3000892BB1F7B801CE010E94E00FCE01DF91F2
:101A4000CF911F910F9108958F929F92AF92CF9255
:101A5000DF92EF92FF920F931F93CF93DF93EC01EE
:101A6000A62E4A01022F0E94A20FAC0155274B322D
:101A7000510521F04D32510551F40068AA9411F43A
:101A800080E067C0CE010E94A20F97FDF9CF102F12
:101A90001D7F302F307301F58033F1F4FF24FA9469
:101AA000FA0C09F442C0CE010E94A20F97FD3DC07E
:101AB000382F3F7D383551F41264AA94AA94A9F1C5
:101AC000CE010E94A20F97FF07C02FC006FF02C0E1
:101AD000126001C01261AF2CC12CD12C760120ED17
:101AE000280F283080F014FF04C0BE010E94E00FD0
:101AF00019C02A3040F016FFF8CF2F7D3FEE320F8D
:101B0000363098F72750412FC701B6010E94EB0CE1
:101B10006B017C011260AA9459F0CE010E94A20FC1
:101B200097FFDDCF11FD04C0ABCFC12CD12C7601C6
:101B300017FF08C0F094E094D094C094C11CD11C4D
:101B4000E11CF11C212FB701A601C4010E94DF0C8A
:101B500081E0DF91CF911F910F91FF90EF90DF9087
:101B6000CF90AF909F908F900895A1E2B0E0EBEB03
:101B7000FDE00C94FE0F5C017A018E010F5F1F4F98
:101B8000680180E2D8011D928A95E9F7F50173801A
:101B900040E050E0812CB0E0912C81E090E0F90130
:101BA00073FCA59173FEA1918F017A2F9F01A11162
:101BB00003C080E090E07DC0AE3519F441155105B9
:101BC00059F1E92DF0E0E417F5073CF4AD3569F182
:101BD000AD3219F4BB2319F103C0B11101C08A2E33
:101BE000E72FE695E695E69586010E0F111DF801A3
:101BF000A72FA7708C0102C0000F111FAA95E2F752
:101C0000D801B081BA2BB083781559F0781510F44B
:101C10007F5FE6CF7150E4CF9924939403C0B1E085
:101C200001C0B0E04F5F5F4FBACFBB2319F08E8188
:101C300080628E83911003C09924939415C0F6019D
:101C4000CE018196208120952193E817F907D1F7DD
:101C5000F3CFE114F10429F0D7018C93F701319609
:101C60007F01615001F1912CC50169A30E94A20F6F
:101C700069A197FD16C0282F269526952695F60171
:101C8000E20FF11D208130E0AC014770552702C002
:101C9000359527954A95E2F720FDDBCFB5010E94E7
:101CA000E00F911086CFE114F10411F0D7011C92DE
:101CB000C801A196EDE00C941A104F925F927F92AA
:101CC0008F929F92AF92BF92CF92DF92EF92FF924C
:101CD0000F931F93CF93DF931F92CDB7DEB78C0185
:101CE0002B017A01FC0117821682A12CF801D38006
:101CF000F201D3FC8591D3FE8191382F2F018823E7
:101D000009F4FCC090E039830E94A00C3981892B32
:101D100021F0C8010E940B0DE9CF353241F4F201E8
:101D2000D3FC3591D3FE31912F01353269F4C801CE
:101D300039830E94A20F398197FDDEC03817B1F2B6
:101D4000B8010E94E00FDAC03A3241F4D3FC359179
:101D5000D3FE31912F01BB24B39401C0B12C712C5F
:101D600020ED230F2A3090F4FB2DF260BF2E672D5B
:101D700070E080E090E040E20E94EB0C762EF201F1
:101D8000D3FC3591D3FE31912F01EACFB1FE03C0D0
:101D9000711003C0B3C077247A94383619F03C36FA
:101DA00061F014C0F201D3FC3591D3FE31912F01C3
:101DB000383661F4FB2DF860BF2E8B2D8460B82E71
:101DC000F201D3FC3591D3FE31912F01332309F475
:101DD00095C0632F70E088EB90E039830E94970FE5
:101DE0003981892B09F48AC0B0FC07C0F701C08093
:101DF000D180C70102967C0102C0C12CD12C3E3695
:101E000051F4F8014681578160E070E02B2DC60146
:101E10000E94DF0C6BCF3336A1F4B1FC02C07724F3
:101E20007394C8010E94A20F97FD66C0C114D1042B
:101E300029F0F6018083C60101966C017A9489F736
:101E400057C03B3559F49201A601672DC8010E9485
:101E5000B50D2C01009709F04BC045C0C80139836E
:101E60000E940B0D398197FD47C03F3669F128F478
:101E7000343631F1393679F12BC0333769F03537E3
:101E8000F9F026C0C114D10429F0F6018082C60100
:101E900001966C017A9471F0C8010E94A20F4C0166
:101EA00097FD08C00E94A00C892B61F3B801C40102
:101EB0000E94E00FC114D104D9F0F601108218C0BD
:101EC000FB2DF062BF2E07C08B2D8061B82E03C0A2
:101ED0009B2D9064B92E2B2DA601672DC8010E9461
:101EE000240D811105C0F8018381807329F406C097
:101EF000B0FCFCCEA394FACEAA2019F08A2D90E073
:101F000002C08FEF9FEF0F90DF91CF911F910F9144
:101F1000FF90EF90DF90CF90BF90AF909F908F9009
:101F20007F905F904F900895992788270895FC012E
:101F30000590061621F00020D9F7C00108953197C9
:101F4000CF010895CF93DF93EC012B8120FF33C0A5
:101F500026FF0AC02F7B2B838E819F8101969F8352
:101F60008E838A8190E029C022FF0FC0E881F98129
:101F70008081992787FD9095009719F420622B8323
:101F80001AC03196F983E8830EC0EA85FB8509956E
:101F900097FF09C02B81019611F480E101C080E216
:101FA000822B8B8308C02E813F812F5F3F4F3F8361
:101FB0002E83992702C08FEF9FEFDF91CF91089575
:101FC000FB01238120FF12C026FD10C08F3F3FEF91
:101FD000930761F082832F7D2064238326813781DC
:101FE0002150310937832683992708958FEF9FEF7A
:101FF00008952F923F924F925F926F927F928F92AD
:102000009F92AF92BF92CF92DF92EF92FF920F9387
:102010001F93CF93DF93CDB7DEB7CA1BDB0B0FB691
:10202000F894DEBF0FBECDBF09942A88398848884E
:102030005F846E847D848C849B84AA84B984C884E4
:10204000DF80EE80FD800C811B81AA81B981CE0FDB
:10205000D11D0FB6F894DEBF0FBECDBFED010895C0
:04206000F894FFCF22
:1020640000005D0380004D01010751010B0755017C
:102074000B0759010B075D010B076101010765019E
:1020840001070000000000000000BC018F013501C1
:102094003D0150015F01494E56414C4944204144A1
:1020A4004452455353002564256400200041524D99
:1020B400004D54520053525600554C54004952534B
:1020C4000044475400414E4C00000000002A07A67B
:1020D40008AC06C506B70608070D0A006E616E0057
:0A20E400696E66006F7666002E003C
:107800000C94343C0C94513C0C94513C0C94513CE1
:107810000C94513C0C94513C0C94513C0C94513CB4
:107820000C94513C0C94513C0C94513C0C94513CA4
:107830000C94513C0C94513C0C94513C0C94513C94
:107840000C94513C0C94513C0C94513C0C94513C84
:107850000C94513C0C94513C0C94513C0C94513C74
:107860000C94513C0C94513C11241FBECFEFD8E036
:10787000DEBFCDBF11E0A0E0B1E0ECE9FFE702C060
:1078800005900D92A230B107D9F712E0A2E0B1E065
:1078900001C01D92AD30B107E1F70E942D3D0C945F
:1078A000CC3F0C94003C982F959595959595959582
:1078B000905D8F708A307CF0282F295A8091C0000B
:1078C00085FFFCCF9093C6008091C00085FFFCCF60
:1078D0002093C6000895282F205DF0CF982F809127
:1078E000C00085FFFCCF9093C6000895EF92FF92F1
:1078F0000F931F93EE24FF2487018091C00087FD22
:1079000017C00894E11CF11C011D111D81E4E8164B
:1079100082E4F8068FE0080780E0180770F3E09132
:107920000401F091050109958091C00087FFE9CF1E
:107930008091C6001F910F91FF90EF9008950E94D3
:10794000763C982F8091C00085FFFCCF9093C600B5
:1079500091362CF490330CF09053892F089597555D
:10796000892F08951F930E949F3C182F0E949F3CCF
:107970001295107F810F1F9108951F93182F882350
:1079800021F00E94763C1150E1F71F9108951F935A
:10799000182F0E94763C803249F0809103018F5F5E
:1079A000809303018530C1F01F9108958091C0003C
:1079B00085FFFCCF84E18093C6008091C00085FFE5
:1079C000FCCF1093C6008091C00085FFFCCF80E102
:1079D0008093C6001F910895E0910401F091050184
:1079E00009951F9108950E94763C803241F0809164
:1079F00003018F5F80930301853081F008958091AA
:107A0000C00085FFFCCF84E18093C6008091C00058
:107A100085FFFCCF80E18093C6000895E0910401CA
:107A2000F09105010995089540E951E08823A1F0FE
:107A30002D9A28EE33E0FA013197F1F721503040CA
:107A4000D1F72D9828EE33E0FA013197F1F7215064
:107A50003040D1F7815061F708953F924F925F9285
:107A60006F927F928F929F92AF92BF92CF92DF924E
:107A7000EF92FF920F931F93CF93DF93000080E16B
:107A80008093C4001092C50088E18093C10086E015
:107A90008093C2005098589A259A81E00E94143D24
:107AA00024E1F22E9EE1E92E85E9D82E0FE0C02ECA
:107AB00010E1B12EAA24A394B1E49B2EA6E58A2E50
:107AC000F2E57F2EE0E26E2E79E4572E63E5462E36
:107AD00050E5352E0E94763C8033B1F18133B9F107
:107AE000803409F46FC0813409F476C0823409F41B
:107AF00085C0853409F488C0803531F1823521F1A3
:107B0000813511F1853509F485C0863509F48DC0BC
:107B1000843609F496C0843709F403C1853709F423
:107B200072C1863709F466C0809103018F5F80932C
:107B30000301853079F6E0910401F0910501099582
:107B40000E94763C803351F60E94F33CC3CF0E94E2
:107B5000763C803249F78091C00085FFFCCFF092DF
:107B6000C6008091C00085FFFCCF9092C600809136
:107B7000C00085FFFCCF8092C6008091C00085FFC9
:107B8000FCCF7092C6008091C00085FFFCCF609250
:107B9000C6008091C00085FFFCCF5092C600809146
:107BA000C00085FFFCCF4092C6008091C00085FFD9
:107BB000FCCF3092C6008091C00085FFFCCFB09210
:107BC000C60088CF0E94763C863808F4BDCF0E945C
:107BD000763C0E94F33C7ECF0E94763C803809F4CC
:107BE0009CC0813809F40BC1823809F43CC1883942
:107BF00009F48FC080E00E94C73C6CCF84E10E94F2
:107C0000BD3C0E94F33C66CF85E00E94BD3C0E94D3
:107C1000F33C60CF0E94763C809306010E94763C44
:107C2000809307010E94F33C55CF0E94763C80333D
:107C300009F41DC183E00E94BD3C80E00E94C73C66
:107C400049CF0E94763C809309020E94763C809343
:107C5000080280910C028E7F80930C020E94763C79
:107C6000853409F415C18091080290910902892B8D
:107C700089F000E010E00E94763CF801E85FFE4FDA
:107C800080830F5F1F4F80910802909109020817AF
:107C9000190788F30E94763C803209F045CF809125
:107CA0000C0280FF01C16091060170910701660F0F
:107CB000771F7093070160930601A0910802B091AD
:107CC00009021097C9F0E8E0F1E09B01AD014E0F09
:107CD0005F1FF999FECF32BD21BD819180BDFA9A17
:107CE000F99A2F5F3F4FE417F50799F76A0F7B1F4B
:107CF00070930701609306018091C00085FFFCCF5F
:107D0000F092C6008091C00085FFFCCFB092C60003
:107D1000E1CE83E00E94C73CDDCE82E00E94C73CFA
:107D2000D9CE0E94763C809309020E94763C8093D3
:107D300008028091060190910701880F991F909386
:107D40000701809306010E94763C853409F4A6C0A1
:107D500080910C028E7F80930C020E94763C8032D0
:107D600009F0B8CE8091C00085FFFCCFF092C6002C
:107D7000609108027091090261157105B9F140E046
:107D800050E080910C02A82FA170B82FB27011C0E2
:107D9000BB2309F45CC0E0910601F0910701319624
:107DA000F0930701E09306014F5F5F4F46175707B7
:107DB000E8F4AA2369F3F999FECF209106013091E6
:107DC000070132BD21BDF89A90B58091C00085FFB2
:107DD000FCCF9093C6002F5F3F4F30930701209355
:107DE00006014F5F5F4F4617570718F38091C00099
:107DF00085FDE5CE8091C00085FFF8CFE0CE81E023
:107E00000E94C73C67CE0E94763C803209F08CCE3F
:107E10008091C00085FFFCCFF092C6008091C00029
:107E200085FFFCCFE092C6008091C00085FFFCCFAB
:107E3000D092C6008091C00085FFFCCFC092C600E2
:107E40008091C00085FFFCCFB092C60043CEE09188
:107E50000601F091070194918091C00085FFFCCF4D
:107E60009093C6009CCF80E10E94C73C33CE0E9415
:107E7000763C0E94763C182F0E94763C112309F430
:107E800083C0113009F484C08FE00E94C73C22CE29
:107E900080910C02816080930C02E5CE80910C02EF
:107EA000816080930C0259CF809107018823880F4D
:107EB000880B8A2180930B02809106019091070123
:107EC000880F991F90930701809306018091080203
:107ED00080FF09C080910802909109020196909359
:107EE000090280930802F894F999FECF1127E091D6
:107EF0000601F0910701C8E0D1E08091080290915D
:107F00000902103091F40091570001700130D9F34B
:107F100003E000935700E89500915700017001308D
:107F2000D9F301E100935700E89509901990009169
:107F3000570001700130D9F301E000935700E89534
:107F40001395103498F011270091570001700130FB
:107F5000D9F305E000935700E895009157000170B0
:107F60000130D9F301E100935700E895329602976A
:107F700009F0C7CF103011F00296E5CF112480919F
:107F8000C00085FFB9CEBCCE8EE10E94C73CA2CD19
:0C7F900085E90E94C73C9ECDF894FFCF0D
:027F9C00800063
:040000030000780081
:00000001FF