:100000000C9465000C948D000C948D000C948D0064
:100010000C948D000C948D000C948D000C948D002C
:100020000C948D000C948D000C948D000C948D001C
:100030000C948D000C948D000C948D000C948D000C
:100040000C9407060C948D000C9425090C94570908
:100050000C948D000C948D000C948D000C948D00EC
:100060000C9463030C948D00000000080002010052
:100070000003040700000000000000000102040863
:100080001020408001020408102001020408102002
:10009000040404040404040402020202020203032E
:1000A0000303030300000000250028002B000000CC
:1000B0000000240027002A006364696E6F70737566
:1000C00078585B00FB010A03870911241FBECFEF9C
:1000D000D8E0DEBFCDBF11E0A0E0B1E0E8EFF1E293
:1000E00002C005900D92AC36B107D9F723E0ACE61B
:1000F000B1E001C01D92AE33B207E1F710E0CAECE7
:10010000D0E004C02297FE010E94660BC43CD107D8
:10011000C9F70E94CB090C94FA100C94000061E01E
:1001200080E10E94710761E081E10E94710761E056
:100130008EE00E94710761E08FE00E94710761E02C
:1001400087E00E94710761E088E00E94710761E02A
:1001500085E00E94710761E086E00E94710761E01E
:1001600083E00E94710761E089E00E94710761E00D
:100170008AE00E94710761E08BE00C94710765E4EE
:1001800070E08EE691E00E94030362E072E08EE68A
:1001900091E00E94050360E082E10E94AA0760E00E
:1001A00083E10E94AA0726E040E855E260E070E0A3
:1001B0008CE992E00E94C3080C948F008530910571
:1001C00019F0069769F108956130710571F460E0E6
:1001D0008EE00E94AA0761E08FE00E94AA0760E01B
:1001E00080E10E94AA0761E00FC0672B79F461E00B
:1001F0008EE00E94AA0760E08FE00E94AA0761E0FB
:1002000080E10E94AA0760E081E135C060E08EE0F5
:100210000E94AA0760E08FE00E94AA0760E0F0CF8A
:100220006130710551F461E085E00E94AA0760E049
:1002300086E00E94AA0761E019C0672B71F460E0B4
:1002400085E00E94AA0761E086E00E94AA0760E0BC
:1002500087E00E94AA0761E00DC060E085E00E948F
:10026000AA0760E086E00E94AA0760E087E00E949B
:10027000AA0760E088E00C94AA078F929F92AF9241
:10028000BF92CF92DF92EF92FF920F931F93CF9383
:10029000DF9361E08CE691E00E949D044C0162E0F6
:1002A0008CE691E00E949D04EC0197FE03C061E0A2
:1002B00070E008C08114910419F464E070E002C099
:1002C00060E070E085E090E00E94DE00D7FF03C0B0
:1002D00061E070E007C0209719F464E070E002C0AC
:1002E00060E070E086E090E00E94DE0081149104FE
:1002F00031F1B40197FE03C07195619571098827AA
:1003000077FD8095982F1F921F921F922FEF2F93AA
:1003100046E4A42EB12CC12CD12C1EEFE12EF12CE1
:1003200000E010E021E030E040E050E00E94020AEE
:10033000962E872E0F900F900F900F9002C0912C49
:10034000812C209729F1BE01D7FF03C071956195DB
:100350007109882777FD8095982F1F921F921F9211
:100360002FEF2F9326E4A22EB12CC12CD12C1EEFFF
:10037000E12EF12C00E010E021E030E040E050E020
:100380000E94020A8B010F900F900F900F9002C0F5
:1003900000E010E0C92DD82DD7FF03C0D195C1953D
:1003A000D109BE0183E00E94E906BE0189E00E94F6
:1003B000E906E80117FF03C0D195C195D109BE0137
:1003C0008AE00E94E906BE018BE0DF91CF911F9188
:1003D0000F91FF90EF90DF90CF90BF90AF909F90E4
:1003E0008F900C94E9060E943D0168EC70E080E07B
:1003F00090E00C9474068CE992E090936D018093E8
:100400006C010895CF93C0E08EE691E00E94200237
:10041000181619065CF48EE691E00E942802682FF7
:100420008CE691E00E946A05C1E0EECFCC2331F06A
:1004300060E08CE691E0CF910C946A05CF9108952D
:100440008091A10190E02091A201821B9109089561
:100450002091A2018091A101281750F4E22FF0E031
:10046000ED55FE4F808190E02F5F2093A20108950B
:100470008FEF9FEF0895E091A2018091A101E8170D
:1004800030F4F0E0ED55FE4F808190E008958FEF5D
:100490009FEF08950895E0917A01F0917B013097E4
:1004A000E1F03091A2012091A1013217B0F040E0BB
:1004B000242F30E02617370754F4DC01A20FB31FB6
:1004C0005C91D901AD55BE4F5C934F5FF1CF109257
:1004D000A2016093A101CB0109940895E0917C01F0
:1004E000F0917D01309729F01092800110927F01E8
:1004F00009940895CF92DF92EF92FF920F931F938A
:10050000CF93DF937C01CB018A0120917E012223CE
:1005100089F0EB016B01C40ED51ECC15DD0569F029
:100520006991D701ED91FC910190F081E02DC70117
:100530000995F3CF642F0E943003C801DF91CF915A
:100540001F910F91FF90EF90DF90CF900895CF9380
:10055000DF931F92CDB7DEB7698320917E012223FE
:10056000D1F020917F01203240F021E030E0FC0109
:100570003383228380E090E015C080918001E82FD2
:10058000F0E0EF57FE4F998190838F5F8093800159
:1005900080937F0105C061E0CE0101960E94300387
:1005A00081E090E00F90DF91CF910895FC011382DC
:1005B000128248EE53E060E070E044835583668326
:1005C00077838EE291E09183808308951092A20157
:1005D0001092A1011092800110927F010C940E03E1
:1005E000CF93DF93EC01862F0E942C038EE692E0DE
:1005F0000E944E038BE492E00E944903CE01DF91FA
:10060000CF910C94E6020C94F00270937B016093FE
:100610007A0108958EE691E00C94D6021092300291
:1006200081E080932E0210922D0261E082E10E940F
:10063000AA0761E083E10E94AA07E9EBF0E080816C
:100640008E7F808380818D7F808388E48093B80053
:1006500085E48093BC000895880F8093BA000895C4
:10066000613298F420913002243089F46093E501DE
:10067000FC0187EE91E0DC012A2F281B261718F4D5
:1006800021912D93F9CF80E0089581E0089582E0D3
:10069000089590932A0280932902089590932C0242
:1006A00080932B02089585ED8093BC008091BC005F
:1006B00084FDFCCF10923002089585EC8093BC003D
:1006C0001092300208951F920F920FB60F921124CC
:1006D0002F933F934F935F936F937F938F939F934A
:1006E000AF93BF93EF93FF938091B900887F8036DB
:1006F00009F49EC078F5883209F45DC090F4803129
:1007000009F456C038F4882309F4F5C0883009F498
:100710004FC0F5C0883109F44EC0803209F45FC083
:10072000EEC0803409F46AC058F4803309F457C02D
:10073000883309F0E4C08093C3010E945D03DFC0E9
:10074000803509F44FC0883509F45DC0883409F05C
:10075000D6C0D3C0883909F4C4C0A8F4883709F4D6
:1007600067C038F4883609F463C0803709F460C084
:10077000C6C0883809F4B5C0803909F45FC0803834
:1007800009F0BDC05BC0803B09F483C038F4803AF7
:1007900009F466C0883A09F47CC0B1C0803C09F411
:1007A000A4C0883C09F4A1C0883B09F487C0A7C055
:1007B00080912F0210C09091080280910702981733
:1007C00070F5E091080281E08E0F80930802F0E05E
:1007D000E75FFD4F80818093BB0085EC83C08093F1
:1007E000C3018BC0E091080281E08E0F8093080264
:1007F0008091BB00F0E0E75FFD4F8083909108029D
:10080000809107026BC0E091080281E08E0F809317
:1008100008028091BB00F0E0E75FFD4F808380918C
:100820002E0281116AC081E080932D0284EA5EC0AD
:1008300083E0809330021092C401CFCF8091C40135
:10084000803208F04EC0E091C40181E08E0F8093A9
:10085000C4018091BB00F0E0EB53FE4F8083BDCF1D
:100860000E945D038091C401803230F4E091C401A4
:10087000F0E0EB53FE4F10826091C40170E0E09114
:100880002902F0912A0285EC91E009951092C401A9
:1008900036C084E0809330021092E6011092E501A8
:1008A000E0912B02F0912C0209958091E5018111D4
:1008B00005C081E08093E5011092E701E091E60137
:1008C00081E08E0F8093E601F0E0E951FE4F8081D8
:1008D0008093BB009091E6018091E501981708F4A0
:1008E0007CCF85E88093BC000AC085EC8093BC0077
:1008F0001092300204C01092C3010E945303FF9172
:10090000EF91BF91AF919F918F917F916F915F9187
:100910004F913F912F910F900FBE0F901F90189500
:100920008FEF860F8F3040F4E62FF0E0EE0FFF1FC1
:10093000ED58FD4F5183408308958FEF860F8F3020
:1009400048F4E62FF0E0EE0FFF1FED58FD4F8081D9
:100950009181089580E090E008955F926F927F9278
:100960008F929F92AF92BF92CF92DF92EF92FF92BF
:100970000F931F93CF93DF9300D000D0CDB7DEB796
:100980004C017B011C821B821A821982FB0101909F
:100990000020E9F78F0101501109061B170B0530E4
:1009A00008F453C0FB0152802AE0A22E21E0B22EAF
:1009B000C12CD12C3B01F3E06F0E711CF50160815D
:1009C00071816115710589F0FB0101900020E9F743
:1009D000AF0141505109461B570BC3010E94820DC4
:1009E000F4E0AF0EB11C892B21F4CA94CD2829F074
:1009F0002CC03FEFC31AD30AE1CFF4E25F1225C047
:100A00008091100190E008171907F9F4CE010196C2
:100A10009F938F9302969F938F938AE391E09F9386
:100A20008F9326E0E20EF11CFF92EF920E94900D50
:100A30000FB6F894DEBF0FBECDBF029731F44981E7
:100A40005A816B81C4010E9490040F900F900F9007
:100A50000F90DF91CF911F910F91FF90EF90DF905A
:100A6000CF90BF90AF909F908F907F906F905F904E
:100A70000895CF92DF92EF92FF920F931F93CF933F
:100A8000DF937B01FB01C480D580C0E0D0E000E0B3
:100A900010E0CC15DD057CF4BE01C7010E94CD0A33
:100AA000FC012081332727FD309520523109020FA8
:100AB000131F2196EECFC8016FE570E00E94F00A87
:100AC0008096DF91CF911F910F91FF90EF90DF9073
:100AD000CF900895DF92EF92FF920F931F93CF93E1
:100AE000DF9300D000D000D0CDB7DEB78C01D62E7A
:100AF00061110BC080E2E5E5F2E0DF011D928A950D
:100B0000E9F7109233021092320280913402882366
:100B1000D1F180913102882309F46AC065E572E061
:100B2000CE0101960E94B70ABE016F5F7F4FC801D8
:100B30000E9439057C01CE0101960E94490A2D2DA3
:100B400030E080E2E5E5F2E0E216F30699F4A5E391
:100B5000B2E001900D928A95E1F780E2E5E5F2E0DE
:100B6000DF011D928A95E9F765E372E0C8010E94F2
:100B7000AD0404C0DF011D928A95E9F7109231029D
:100B80001092340235C080913302882321F1BBE7F3
:100B9000DB1621F1E09132028DE7D81671F0AE2F0D
:100BA000B0E0AB5ABD4FDC92EF5FE0933202E0322F
:100BB000F8F08FE1809332021BC0F0E0EB5AFD4F5A
:100BC0001082109232021092330281E0809334023C
:100BD000809331020DC0ABE7DA120AC081E0809346
:100BE000330280E2E5E5F2E0DF011D928A95E9F744
:100BF0008D2D26960FB6F894DEBF0FBECDBFDF91C8
:100C0000CF911F910F91FF90EF90DF9008951F9269
:100C10000F920FB60F9211242F933F938F939F93B0
:100C2000AF93BF938091940290919502A091960208
:100C3000B09197023091930223E0230F2D3720F4D7
:100C40000196A11DB11D05C026E8230F0296A11D26
:100C5000B11D209393028093940290939502A093E8
:100C60009602B09397028091980290919902A09178
:100C70009A02B0919B020196A11DB11D809398022A
:100C800090939902A0939A02B0939B02BF91AF9167
:100C90009F918F913F912F910F900FBE0F901F90BA
:100CA00018953FB7F8948091980290919902A0917D
:100CB0009A02B0919B0226B5A89B05C02F3F19F060
:100CC0000196A11DB11D3FBF6627782F892F9A2F4E
:100CD000620F711D811D911D42E0660F771F881FF5
:100CE000991F4A95D1F708958F929F92AF92BF9224
:100CF000CF92DF92EF92FF926B017C010E9451062E
:100D00004B015C01C114D104E104F104F1F00E9433
:100D1000DF0A0E945106681979098A099B09683E11
:100D200073408105910570F321E0C21AD108E108F2
:100D3000F10888EE880E83E0981EA11CB11CC11436
:100D4000D104E104F10429F7DDCFFF90EF90DF90AB
:100D5000CF90BF90AF909F908F900895789484B576
:100D6000826084BD84B5816084BD85B5826085BDA7
:100D700085B5816085BDEEE6F0E08081816080838D
:100D8000E1E8F0E010828081826080838081816070
:100D90008083E0E8F0E0808181608083E1EBF0E037
:100DA000808184608083E0EBF0E0808181608083DB
:100DB000EAE7F0E0808184608083808182608083C4
:100DC0008081816080838081806880831092C100EF
:100DD00008951F93CF93DF93182FEB0161E00E94DA
:100DE0007107209711F460E004C0CF3FD10539F4BA
:100DF00061E0812FDF91CF911F910C94AA07E12F21
:100E0000F0E0E859FF4FE491E330F9F048F4E130C5
:100E1000B9F0E230A1F584B5806284BDC8BD34C0AC
:100E2000E730E9F0E83019F1E43049F580918000CD
:100E3000806280938000D0938B00C0938A0024C08E
:100E400084B5806884BDC7BD1FC080918000806864
:100E500080938000D0938900C093880015C0809152
:100E6000B00080688093B000C093B3000DC0809143
:100E7000B00080628093B000C093B40005C0C03859
:100E8000D1050CF0B5CFAFCFDF91CF911F91089571
:100E9000833081F028F4813099F08230A1F00895F8
:100EA0008730A9F08830B9F08430D1F48091800087
:100EB0008F7D03C0809180008F778093800008959C
:100EC00084B58F7702C084B58F7D84BD08958091ED
:100ED000B0008F7703C08091B0008F7D8093B00009
:100EE0000895CF93DF9390E0FC01E458FF4F2491E5
:100EF000FC01E057FF4F8491882349F190E0880F6F
:100F0000991FFC01E255FF4FA591B4918C559F4F5D
:100F1000FC01C591D4919FB7611108C0F8948C91E0
:100F2000209582238C93888182230AC0623051F4F9
:100F3000F8948C91322F309583238C938881822B67
:100F4000888304C0F8948C91822B8C939FBFDF918F
:100F5000CF9108950F931F93CF93DF931F92CDB737
:100F6000DEB7282F30E0F901E859FF4F8491F901ED
:100F7000E458FF4F1491F901E057FF4F049100230B
:100F8000C9F0882321F069830E9448076981E02F16
:100F9000F0E0EE0FFF1FEC55FF4FA591B4919FB706
:100FA000F8948C91611103C01095812301C0812BAD
:100FB0008C939FBF0F90DF91CF911F910F91089558
:100FC000FC01818D228D90E0805C9F4F821B9109F6
:100FD0008F7399270895FC01918D828D981731F0B8
:100FE000828DE80FF11D858D90E008958FEF9FEFC2
:100FF0000895FC01918D828D981761F0828DDF013B
:10100000A80FB11D5D968C91928D9F5F9F73928FFB
:1010100090E008958FEF9FEF08958DE799E0892B79
:1010200049F080E090E0892B29F00E947D09811130
:101030000C9400000895FC01848DDF01A80FB11D00
:10104000A35ABF4F2C91848D90E001968F739927FE
:10105000848FA689B7892C93A089B1898C918064EB
:101060008C93938D848D981306C00288F389E02DAC
:1010700080818F7D80830895CF93DF93EC01888DED
:101080008823C9F0EA89FB89808185FD05C0A8898C
:10109000B9898C9186FD0FC00FB607FCF5CF808112
:1010A00085FFF2CFA889B9898C9185FFEDCFCE015C
:1010B0000E941B08E7CFDF91CF910895CF92DF9276
:1010C000FF920F931F93CF93DF931F92CDB7DEB79D
:1010D0006C0181E0D60158968C9358975B969C9151
:1010E0005B975C968C915C97981307C05096ED9136
:1010F000FC915197808185FD2EC0F601038D10E093
:101100000F5F1F4F0F731127F02EF601848DF81219
:1011100011C00FB607FCF9CFD6015096ED91FC91A6
:101120005197808185FFF1CFC60169830E941B081A
:101130006981EBCF838DE80FF11DE35AFF4F608388
:10114000D6015B960C935B975296ED91FC91539769
:10115000808180620CC0D6015696ED91FC91579724
:1011600060835096ED91FC915197808180648083DB
:1011700081E090E00F90DF91CF911F910F91FF9050
:10118000DF90CF900895BF92CF92DF92EF92FF92BF
:10119000CF93DF93EC016A017B01B22EE889F989D4
:1011A00082E08083411581EE580761057105A1F049
:1011B00060E079E08DE390E0A70196010E94040BC6
:1011C0002150310941095109569547953795279581
:1011D000211580E1380798F0E889F989108260E8E4
:1011E00074E88EE190E0A70196010E94040B215063
:1011F0003109410951095695479537952795EC8551
:10120000FD853083EE85FF852083188EEC89FD896E
:10121000B082EA89FB89808180618083EA89FB89C9
:10122000808188608083EA89FB89808180688083EF
:10123000EA89FB8980818F7D8083DF91CF91FF9048
:10124000EF90DF90CF90BF9008951F920F920FB64E
:101250000F9211242F938F939F93EF93FF93E0911D
:10126000AC02F091AD028081E091B202F091B30244
:1012700082FD12C090818091B5028F5F8F732091A3
:10128000B602821751F0E091B502F0E0E456FD4F4E
:10129000958F8093B50201C08081FF91EF919F915E
:1012A0008F912F910F900FBE0F901F9018951F9246
:1012B0000F920FB60F9211242F933F934F935F938A
:1012C0006F937F938F939F93AF93BF93EF93FF930E
:1012D0008CE992E00E941B08FF91EF91BF91AF91C2
:1012E0009F918F917F916F915F914F913F912F913E
:1012F0000F900FBE0F901F9018958CE992E00E94FE
:10130000E00721E0892B09F420E0822F0895109254
:101310009F0210929E0288EE93E0A0E0B0E08093DE
:10132000A0029093A102A093A202B093A3028FE522
:1013300091E090939D0280939C0285EC90E09093C5
:10134000A9028093A80284EC90E09093AB02809372
:10135000AA0280EC90E09093AD028093AC0281EC05
:1013600090E09093AF028093AE0282EC90E0909375
:10137000B1028093B00286EC90E09093B302809328
:10138000B2021092B5021092B6021092B7021092F9
:10139000B802089508950E94AE060E94CA090E94EC
:1013A000BF00CDE0D8E00E94F3012097E1F30E9456
:1013B0000D08F9CFCF92DF92EF92FF920F931F9318
:1013C000CF93DF937C016A01EB0100E010E00C1584
:1013D0001D0571F06991D701ED91FC910190F081AB
:1013E000E02DC7010995892B19F00F5F1F4FEFCF33
:1013F000C801DF91CF911F910F91FF90EF90DF9087
:10140000CF9008954F925F926F927F92AF92BF926A
:10141000CF92DF92EF92FF920F931F93CF93DF93C0
:10142000CDB7DEB729013A01621B730B840B950B14
:1014300029893A894B895C892A193B094C095D093C
:10144000298B3A8B4B8B5C8B9B01AC0169897A8928
:101450008B899C890E94E00AE418F508060917099F
:10146000A80197010E94260B2A0D3B1D4C1D5D1DF6
:10147000CA01B901DF91CF911F910F91FF90EF90B9
:10148000DF90CF90BF90AF907F906F905F904F9024
:101490000895FC01808191810C94110CCF93DF930E
:1014A000EC0188819981009711F00E94110C19823A
:1014B00018821D821C821B821A82DF91CF910895AF
:1014C0000F931F93CF93DF93EC018B016F5F7F4FDF
:1014D000888199810E94A00C009731F099838883BC
:1014E0001B830A8381E001C080E0DF91CF911F91CF
:1014F0000F910895CF93DF93EC0188819981892B17
:1015000029F08A819B818617970760F4CE010E949B
:10151000600A882341F08C819D81892B19F4E88130
:10152000F981108281E0DF91CF910895EF92FF92CF
:101530000F931F93CF93DF93EC017B018A01BA01D4
:101540000E947A0A811104C0CE010E944E0A07C08F
:101550001D830C83B701888199810E947B0DCE0188
:10156000DF91CF911F910F91FF90EF900895FC01B3
:101570001182108213821282158214826115710504
:1015800059F0FB0101900020E9F7AF0141505109EA
:10159000461B570B0C94960A0895FC018481958193
:1015A0006817790720F480819181009729F41092BF
:1015B000390389E393E00895860F971F08950895EE
:1015C000DB018F939F930E94450BBF91AF91A29F28
:1015D000800D911DA39F900DB29F900D1124089531
:1015E00097FB072E16F4009407D077FD09D00E94D0
:1015F000500B07FC05D03EF4909581959F4F0895C0
:10160000709561957F4F0895A1E21A2EAA1BBB1B0E
:10161000FD010DC0AA1FBB1FEE1FFF1FA217B307BE
:10162000E407F50720F0A21BB30BE40BF50B661FD4
:10163000771F881F991F1A9469F760957095809598
:1016400090959B01AC01BD01CF010895052E97FB3C
:101650001EF400940E943D0B57FD07D00E94040B1E
:1016600007FC03D04EF40C943D0B509540953095FB
:1016700021953F4F4F4F5F4F0895909580957095FE
:1016800061957F4F8F4F9F4F08950E946A0BA59FD2
:10169000900DB49F900DA49F800D911D112408956D
:1016A000AA1BBB1B51E107C0AA1FBB1FA617B70788
:1016B00010F0A61BB70B881F991F5A95A9F78095A4
:1016C0009095BC01CD010895EE0FFF1F0590F49198
:1016D000E02D0994A29FB001B39FC001A39F700D9C
:1016E000811D1124911DB29F700D811D1124911D2A
:1016F0000895CF93DF938230910510F482E090E05B
:10170000E0913C03F0913D0320E030E0A0E0B0E048
:10171000309739F14081518148175907B8F048177F
:10172000590771F482819381109729F013969C9345
:101730008E9312972CC090933D0380933C0327C057
:101740002115310531F04217530718F0A901DB01CB
:1017500001C0EF019A01BD01DF010280F381E02D9C
:10176000D7CF21153105F9F0281B390B243031056D
:1017700080F48A819B816115710521F0FB019383BF
:10178000828304C090933D0380933C03FE01329614
:1017900044C0FE01E20FF31F81939193225031095F
:1017A000398328833AC020913A0330913B03232B9D
:1017B00041F4209102013091030130933B032093C7
:1017C0003A0320910001309101012115310541F4C6
:1017D0002DB73EB74091040150910501241B350BF4
:1017E000E0913A03F0913B03E217F307A0F42E1BBC
:1017F0003F0B2817390778F0AC014E5F5F4F241775
:10180000350748F04E0F5F1F50933B0340933A0358
:101810008193919302C0E0E0F0E0CF01DF91CF919E
:101820000895CF93DF93009709F487C0FC013297A6
:1018300013821282C0913C03D0913D03209781F422
:1018400020813181280F391F80913A0390913B0309
:101850008217930779F5F0933B03E0933A036DC049
:10186000DE0120E030E0AE17BF0750F412964D9134
:101870005C9113979D014115510509F1DA01F3CFF0
:10188000B383A28340815181840F951F8A179B07E0
:1018900071F48D919C911197840F951F02969183FD
:1018A000808312968D919C91139793838283211547
:1018B000310529F4F0933D03E0933C033EC0D90188
:1018C0001396FC93EE9312974D915D91A40FB51F63
:1018D000EA17FB0779F480819181840F951F0296A6
:1018E000D90111969C938E938281938113969C9338
:1018F0008E931297E0E0F0E08A819B81009719F0C7
:10190000FE01EC01F9CFCE01029628813981820FC8
:10191000931F20913A0330913B032817390769F44C
:10192000309729F410923D0310923C0302C01382B9
:101930001282D0933B03C0933A03DF91CF91089575
:10194000A0E0B0E0E6EAFCE00C94C710EC01CB01AB
:10195000209719F40E94790BB8C0FE01E60FF71F1B
:101960009E0122503109E217F30708F4ACC0D901F7
:101970000D911C91119706171707B8F00530110546
:1019800008F49FC0A801445051094617570708F4AE
:1019900098C002501109061B170B019311936D9308
:1019A0007C93CF010E94110C8CC05B01A01AB10A7C
:1019B0004E01800E911EA0913C03B0913D03612C1D
:1019C000712C60E070E0109709F449C0A815B905C2
:1019D000C9F5ED90FC901197670142E0C40ED11C4F
:1019E000CA14DB0478F147018A189B08640142E0BD
:1019F000C40ED11C1296BC9012971396AC91B5E010
:101A0000CB16D10440F0B282A38391828082D901A7
:101A10008D939C9309C00E5F1F4F0E0D1F1DF90182
:101A200011830083EB2DFA2F6115710531F0DB0175
:101A30001396FC93EE93129744C0F0933D03E0930A
:101A40003C033FC06D917C9111976616770608F4B0
:101A50003B01BD0112960D90BC91A02DB4CF6091B9
:101A60003A0370913B0368157905E9F46816790625
:101A7000D0F440910001509101014115510541F40C
:101A80004DB75EB76091040170910501461B570B7D
:101A9000E417F507C0F4F0933B03E0933A03F90130
:101AA000918380830EC00E94790B7C01009759F0CE
:101AB000A801BE010E94720DCE010E94110CC70147
:101AC00004C0CE0102C080E090E0CDB7DEB7EEE00A
:101AD0000C94E3109111F2C2803219F089508550B4
:101AE000D0F70895FB01DC0102C001900D92415036
:101AF0005040D8F70895FB01DC0101900D920020C1
:101B0000E1F70895FB01DC014150504030F08D9128
:101B10000190801919F40020B9F7881B990B0895DA
:101B2000AEE0B0E0E6E9FDE00C94D31085E08C83F4
:101B30008B899C899A838983AE01495E5F4F6D8949
:101B40007E89CE0101960E94270F2E96E2E00C942A
:101B5000EF1020FD09C0FC0123FD05C022FF02C0DB
:101B60007383628351834083089544FD10C046FD12
:101B700010C0DB01FC01AA0FBB1FEE1FFF1F10945A
:101B8000D1F76A0F7B1F8E1F9F1F31E003C033E028
:101B900001C034E0660F771F881F991F3150D1F7BD
:101BA000620F711D811D911D08950F931F93CF9397
:101BB000DF938C01C8010E946C10EC0197FD08C0F6
:101BC0000E946A0D892BB1F7B801CE010E94AA10BC
:101BD000CE01DF91CF911F910F9108958F929F9227
:101BE000AF92CF92DF92EF92FF920F931F93CF931A
:101BF000DF93EC01A62E4A01022F0E946C10AC016B
:101C000055274B32510521F04D32510551F40068F2
:101C1000AA9411F480E067C0CE010E946C1097FD79
:101C2000F9CF102F1D7F302F307301F58033F1F481
:101C3000FF24FA94FA0C09F442C0CE010E946C1001
:101C400097FD3DC0382F3F7D383551F41264AA947A
:101C5000AA94A9F1CE010E946C1097FF07C02FC073
:101C600006FF02C0126001C01261AF2CC12CD12C42
:101C7000760120ED280F283080F014FF04C0BE014B
:101C80000E94AA1019C02A3040F016FFF8CF2F7D0D
:101C90003FEE320F363098F72750412FC701B6017B
:101CA0000E94B50D6B017C011260AA9459F0CE011F
:101CB0000E946C1097FFDDCF11FD04C0ABCFC12C8B
:101CC000D12C760117FF08C0F094E094D094C09412
:101CD000C11CD11CE11CF11C212FB701A601C401BC
:101CE0000E94A90D81E0DF91CF911F910F91FF908C
:101CF000EF90DF90CF90AF909F908F900895A1E2EA
:101D0000B0E0E5E8FEE00C94C8105C017A018E01B9
:101D10000F5F1F4F680180E2D8011D928A95E9F795
:101D2000F501738040E050E0812CB0E0912C81E01F
:101D300090E0F90173FCA59173FEA1918F017A2FB8
:101D40009F01A11103C080E090E07DC0AE3519F481
:101D50004115510559F1E92DF0E0E417F5073CF480
:101D6000AD3569F1AD3219F4BB2319F103C0B111DE
:101D700001C08A2EE72FE695E695E69586010E0FBF
:101D8000111DF801A72FA7708C0102C0000F111FB1
:101D9000AA95E2F7D801B081BA2BB083781559F033
:101DA000781510F47F5FE6CF7150E4CF99249394B7
:101DB00003C0B1E001C0B0E04F5F5F4FBACFBB23BB
:101DC00019F08E8180628E83911003C099249394C0
:101DD00015C0F601CE018196208120952193E81748
:101DE000F907D1F7F3CFE114F10429F0D7018C936F
:101DF000F70131967F01615001F1912CC50169A372
:101E00000E946C1069A197FD16C0282F2695269573
:101E10002695F601E20FF11D208130E0AC014770FC
:101E2000552702C0359527954A95E2F720FDDBCF6F
:101E3000B5010E94AA10911086CFE114F10411F0AF
:101E4000D7011C92C801A196EDE00C94E4104F92CA
:101E50005F927F928F929F92AF92BF92CF92DF92CA
:101E6000EF92FF920F931F93CF93DF931F92CDB703
:101E7000DEB78C012B017A01FC0117821682A12C9E
:101E8000F801D380F201D3FC8591D3FE8191382FE4
:101E90002F01882309F4FCC090E039830E946A0D69
:101EA0003981892B21F0C8010E94D50DE9CF353247
:101EB00041F4F201D3FC3591D3FE31912F0135323B
:101EC00069F4C80139830E946C10398197FDDEC026
:101ED0003817B1F2B8010E94AA10DAC03A3241F4C0
:101EE000D3FC3591D3FE31912F01BB24B39401C0B3
:101EF000B12C712C20ED230F2A3090F4FB2DF260D1
:101F0000BF2E672D70E080E090E040E20E94B50DAA
:101F1000762EF201D3FC3591D3FE31912F01EACF19
:101F2000B1FE03C0711003C0B3C077247A94383671
:101F300019F03C3661F014C0F201D3FC3591D3FEA8
:101F400031912F01383661F4FB2DF860BF2E8B2DB7
:101F50008460B82EF201D3FC3591D3FE31912F016C
:101F6000332309F495C0632F70E088EB90E0398348
:101F70000E9461103981892B09F48AC0B0FC07C026
:101F8000F701C080D180C70102967C0102C0C12C3C
:101F9000D12C3E3651F4F8014681578160E070E063
:101FA0002B2DC6010E94A90D6BCF3336A1F4B1FCD5
:101FB00002C077247394C8010E946C1097FD66C01C
:101FC000C114D10429F0F6018083C60101966C0189
:101FD0007A9489F757C03B3559F49201A601672DD1
:101FE000C8010E947F0E2C01009709F04BC045C02C
:101FF000C80139830E94D50D398197FD47C03F360E
:1020000069F128F4343631F1393679F12BC03337A0
:1020100069F03537F9F026C0C114D10429F0F60172
:102020008082C60101966C017A9471F0C8010E9409
:102030006C104C0197FD08C00E946A0D892B61F35A
:10204000B801C4010E94AA10C114D104D9F0F6014C
:10205000108218C0FB2DF062BF2E07C08B2D80614F
:10206000B82E03C09B2D9064B92E2B2DA601672D91
:10207000C8010E94EE0D811105C0F80183818073B3
:1020800029F406C0B0FCFCCEA394FACEAA2019F025
:102090008A2D90E002C08FEF9FEF0F90DF91CF91DC
:1020A0001F910F91FF90EF90DF90CF90BF90AF9076
:1020B0009F908F907F905F904F90089599278827E9
:1020C0000895FC010590061621F00020D9F7C00103
:1020D00008953197CF010895CF93DF93EC012B81C1
:1020E00020FF33C026FF0AC02F7B2B838E819F8168
:1020F00001969F838E838A8190E029C022FF0FC0C2
:10210000E881F9818081992787FD9095009719F4DE
:1021100020622B831AC03196F983E8830EC0EA85CA
:10212000FB85099597FF09C02B81019611F480E189
:1021300001C080E2822B8B8308C02E813F812F5FFC
:102140003F4F3F832E83992702C08FEF9FEFDF9190
:10215000CF910895FB01238120FF12C026FD10C0FE
:102160008F3F3FEF930761F082832F7D20642383AD
:102170002681378121503109378326839927089595
:102180008FEF9FEF08952F923F924F925F926F9241
:102190007F928F929F92AF92BF92CF92DF92EF92F7
:1021A000FF920F931F93CF93DF93CDB7DEB7CA1B78
:1021B000DB0B0FB6F894DEBF0FBECDBF09942A88A3
:1021C000398848885F846E847D848C849B84AA844B
:1021D000B984C884DF80EE80FD800C811B81AA81D8
:1021E000B981CE0FD11D0FB6F894DEBF0FBECDBFA3
:0821F000ED010895F894FFCF02
:1021F80000003E038000010000003F010107430189
:102208000B0747010B074B010B074F010B07530146
:102218000107570101070000000000000000A702A5
:102228007A02200228023B024A0225642564004102
:10223800524D004D54520053525600554C540049CB
:1022480052530044475400414E4C00000000005EC9
:0C22580008DA09E007F907EB073C080072
:00000001FF
