:100000000C9465000C948D000C948D000C948D0064
:100010000C948D000C948D000C948D000C948D002C
:100020000C948D000C948D000C948D000C948D001C
:100030000C948D000C948D000C948D000C948D000C
:100040000C94CE050C948D000C94EC080C941E09B5
:100050000C948D000C948D000C948D000C948D00EC
:100060000C942A030C948D0000000008000201008B
:100070000003040700000000000000000102040863
:100080001020408001020408102001020408102002
:10009000040404040404040402020202020203032E
:1000A0000303030300000000250028002B000000CC
:1000B0000000240027002A006364696E6F70737566
:1000C00078585B009A01D1024E0911241FBECFEF70
:1000D000D8E0DEBFCDBF11E0A0E0B1E0E6E6F0E29F
:1000E00002C005900D92A836B107D9F723E0A8E623
:1000F000B1E001C01D92AA33B207E1F710E0CAECEB
:10010000D0E004C02297FE010E94AC0AC43CD10793
:10011000C9F70E9492090C9431100C94000061E020
:1001200080E10E94380761E081E10E94380761E0C8
:100130008EE00E94380761E08FE00E94380761E09E
:1001400087E00E94380761E088E00E94380761E09C
:100150008CE00E94380761E08DE00E94380761E082
:1001600083E00E94380761E089E00E94380761E07F
:100170008AE00E94380761E08BE00C943807E1E8E0
:10018000F0E08081887F81608083E1EBF0E0808116
:10019000887F8160808365E470E08AE691E00E9458
:1001A000CA0269EC71E08AE691E00E94CC0260E04C
:1001B00082E10E94710760E083E10E94710726E0FE
:1001C00040E855E260E070E088E992E00E948A0829
:1001D0000C948F008530910519F0069771F1089500
:1001E0006115710571F460E08EE00E94710761E0B5
:1001F0008FE00E94710760E080E10E94710761E07A
:1002000010C06130710579F461E08EE00E947107E1
:1002100060E08FE00E94710761E080E10E94710759
:1002200060E081E136C060E08EE00E94710760E02E
:100230008FE00E94710760E0F0CF6115710551F405
:1002400061E08CE00E94710760E08DE00E94710720
:1002500061E01AC06130710571F460E08CE00E94C9
:10026000710761E08DE00E94710760E087E00E9405
:10027000710761E00DC060E08CE00E94710760E0F2
:100280008DE00E94710760E087E00E94710760E0E6
:1002900088E00C9471070F931F93CF93DF9361E075
:1002A00088E691E00E9464048C0162E088E691E0B7
:1002B0000E946404EC0117FF03C061E070E008C015
:1002C0000115110519F464E070E002C060E070E00F
:1002D00085E090E00E94EA00D7FF03C061E070E093
:1002E00007C0209719F464E070E002C060E070E09D
:1002F00086E090E00E94EA0017FF03C01195019587
:100300001109B80183E00E94B006B80189E00E949B
:10031000B006D7FF03C0D195C195D109BE018AE0CF
:100320000E94B006BE018BE0DF91CF911F910F912B
:100330000C94B00688E992E090936901809368017B
:100340000895CF93C0E088E992E00E94A7071816AD
:1003500019065CF488E992E00E94C007682F88E6DD
:1003600091E00E943105C1E0EECFCC2331F060E096
:1003700088E691E0CF910C943105CF9108950E94C9
:10038000A1010E944B0168EC70E080E090E00C94C9
:100390003B06CF93C0E08AE691E00E94E701181681
:1003A00019065CF48AE691E00E94EF01682F88E666
:1003B00091E00E943105C1E0EECFCC2331F060E046
:1003C00088E691E0CF910C943105CF91089580910A
:1003D0009D0190E020919E01821B9109089520913A
:1003E0009E0180919D01281750F4E22FF0E0E15624
:1003F000FE4F808190E02F5F20939E0108958FEF44
:100400009FEF0895E0919E0180919D01E81730F4DF
:10041000F0E0E156FE4F808190E008958FEF9FEF6E
:1004200008950895E0917601F09177013097E1F019
:1004300030919E0120919D013217B0F040E0242FB1
:1004400030E02617370754F4DC01A20FB31F5C918C
:10045000D901A156BE4F5C934F5FF1CF10929E0120
:1004600060939D01CB0109940895E0917801F0918A
:100470007901309729F010927C0110927B01099448
:100480000895CF92DF92EF92FF920F931F93CF9335
:10049000DF937C01CB018A0120917A01222389F02C
:1004A000EB016B01C40ED51ECC15DD0569F0699119
:1004B000D701ED91FC910190F081E02DC7010995E4
:1004C000F3CF642F0E94F702C801DF91CF911F91F3
:1004D0000F91FF90EF90DF90CF900895CF93DF932F
:1004E0001F92CDB7DEB7698320917A012223D1F024
:1004F00020917B01203240F021E030E0FC01338389
:10050000228380E090E015C080917C01E82FF0E02C
:10051000E358FE4F998190838F5F80937C01809395
:100520007B0105C061E0CE0101960E94F70281E0E7
:1005300090E00F90DF91CF910895FC011382128219
:1005400048EE53E060E070E0448355836683778330
:100550008AE291E091838083089510929E01109227
:100560009D0110927C0110927B010C94D502CF93D7
:10057000DF93EC01862F0E94F30285E392E00E9454
:10058000150382E192E00E941003CE01DF91CF912A
:100590000C94AD020C94B7027093770160937601CE
:1005A00008958AE691E00C949D0210922C0281E05D
:1005B00080932A021092290261E082E10E94710771
:1005C00061E083E10E947107E9EBF0E080818E7FBA
:1005D000808380818D7F808388E48093B80085E468
:1005E0008093BC000895880F8093BA00089561320B
:1005F00098F420912C02243089F46093E101FC01ED
:1006000083EE91E0DC012A2F281B261718F4219194
:100610002D93F9CF80E0089581E0089582E0089558
:100620009093260280932502089590932802809348
:100630002702089585ED8093BC008091BC0084FD65
:10064000FCCF10922C02089585EC8093BC00109290
:100650002C0208951F920F920FB60F9211242F9320
:100660003F934F935F936F937F938F939F93AF933A
:10067000BF93EF93FF938091B900887F803609F490
:100680009EC078F5883209F45DC090F4803109F499
:1006900056C038F4882309F4F5C0883009F44FC0F7
:1006A000F5C0883109F44EC0803209F45FC0EEC055
:1006B000803409F46AC058F4803309F457C0883391
:1006C00009F0E4C08093BF010E942403DFC080359D
:1006D00009F44FC0883509F45DC0883409F0D6C0EC
:1006E000D3C0883909F4C4C0A8F4883709F467C0B6
:1006F00038F4883609F463C0803709F460C0C6C096
:10070000883809F4B5C0803909F45FC0803809F031
:10071000BDC05BC0803B09F483C038F4803A09F463
:1007200066C0883A09F47CC0B1C0803C09F4A4C01A
:10073000883C09F4A1C0883B09F487C0A7C0809118
:100740002B0210C09091040280910302981770F55B
:10075000E091040281E08E0F80930402F0E0EB5FF1
:10076000FD4F80818093BB0085EC83C08093BF01E7
:100770008BC0E091040281E08E0F8093040280918F
:10078000BB00F0E0EB5FFD4F80839091040280910D
:1007900003026BC0E091040281E08E0F809304029B
:1007A0008091BB00F0E0EB5FFD4F808380912A02D7
:1007B00081116AC081E08093290284EA5EC083E0EF
:1007C00080932C021092C001CFCF8091C001803263
:1007D00008F04EC0E091C00181E08E0F8093C0010F
:1007E0008091BB00F0E0EF53FE4F8083BDCF0E94AD
:1007F00024038091C001803230F4E091C001F0E028
:10080000EF53FE4F10826091C00170E0E09125022D
:10081000F091260281EC91E009951092C00136C05A
:1008200084E080932C021092E2011092E101E091A9
:100830002702F091280209958091E101811105C0FC
:1008400081E08093E1011092E301E091E20181E017
:100850008E0F8093E201F0E0ED51FE4F8081809396
:10086000BB009091E2018091E101981708F47CCFE0
:1008700085E88093BC000AC085EC8093BC00109290
:100880002C0204C01092BF010E941A03FF91EF9145
:10089000BF91AF919F918F917F916F915F914F9198
:1008A0003F912F910F900FBE0F901F9018958FEFD3
:1008B000860F8F3040F4E62FF0E0EE0FFF1FE15976
:1008C000FD4F5183408308958FEF860F8F3048F49A
:1008D000E62FF0E0EE0FFF1FE159FD4F808191817F
:1008E000089580E090E008955F926F927F928F92DA
:1008F0009F92AF92BF92CF92DF92EF92FF920F93AF
:100900001F93CF93DF9300D000D0CDB7DEB74C015B
:100910007B011C821B821A821982FB01019000203C
:10092000E9F78F0101501109061B170B053008F478
:1009300053C0FB01528026E0A22E21E0B22EC12C32
:10094000D12C3B01F3E06F0E711CF50160817181C8
:100950006115710589F0FB0101900020E9F7AF01F5
:1009600041505109461B570BC3010E94B90CF4E0DA
:10097000AF0EB11C892B21F4CA94CD2829F02CC0CC
:100980003FEFC31AD30AE1CFF4E25F1225C0809192
:100990000C0190E008171907F9F4CE0101969F9316
:1009A0008F9302969F938F9386E391E09F938F930B
:1009B00026E0E20EF11CFF92EF920E94C70C0FB6E8
:1009C000F894DEBF0FBECDBF029731F449815A8142
:1009D0006B81C4010E9457040F900F900F900F90ED
:1009E000DF91CF911F910F91FF90EF90DF90CF900B
:1009F000BF90AF909F908F907F906F905F90089581
:100A0000CF92DF92EF92FF920F931F93CF93DF93DA
:100A10007B01FB01C480D580C0E0D0E000E010E0A5
:100A2000CC15DD057CF4BE01C7010E944D0AFC0116
:100A30002081332727FD309520523109020F131FE3
:100A40002196EECFC8016FE570E00E94600A8096A3
:100A5000DF91CF911F910F91FF90EF90DF90CF909A
:100A60000895DF92EF92FF920F931F93CF93DF933E
:100A700000D000D000D0CDB7DEB78C01D62E6111EA
:100A80000BC080E2E1E5F2E0DF011D928A95E9F713
:100A900010922F0210922E02809130028823D1F101
:100AA00080912D02882309F46AC061E572E0CE01CD
:100AB00001960E94370ABE016F5F7F4FC8010E94F6
:100AC00000057C01CE0101960E94C9092D2D30E060
:100AD00080E2E1E5F2E0E216F30699F4A1E3B2E088
:100AE00001900D928A95E1F780E2E1E5F2E0DF0105
:100AF0001D928A95E9F761E372E0C8010E947404CF
:100B000004C0DF011D928A95E9F710922D02109220
:100B1000300235C080912F02882321F1BBE7DB161C
:100B200021F1E0912E028DE7D81671F0AE2FB0E0E2
:100B3000AF5ABD4FDC92EF5FE0932E02E032F8F047
:100B40008FE180932E021BC0F0E0EF5AFD4F108220
:100B500010922E0210922F0281E080933002809337
:100B60002D020DC0ABE7DA120AC081E080932F029C
:100B700080E2E1E5F2E0DF011D928A95E9F78D2D33
:100B800026960FB6F894DEBF0FBECDBFDF91CF9192
:100B90001F910F91FF90EF90DF9008951F920F9299
:100BA0000FB60F9211242F933F938F939F93AF9380
:100BB000BF938091900290919102A0919202B09186
:100BC000930230918F0223E0230F2D3720F40196FA
:100BD000A11DB11D05C026E8230F0296A11DB11D60
:100BE00020938F028093900290939102A09392029F
:100BF000B09393028091940290919502A0919602F5
:100C0000B09197020196A11DB11D8093940290931B
:100C10009502A0939602B0939702BF91AF919F91D6
:100C20008F913F912F910F900FBE0F901F901895AD
:100C30003FB7F8948091940290919502A09196020A
:100C4000B091970226B5A89B05C02F3F19F00196D9
:100C5000A11DB11D3FBF6627782F892F9A2F620FE4
:100C6000711D811D911D42E0660F771F881F991F1E
:100C70004A95D1F708958F929F92AF92BF92CF92EB
:100C8000DF92EF92FF926B017C010E9418064B01EC
:100C90005C01C114D104E104F104F1F00E945F0A87
:100CA0000E941806681979098A099B09683E7340F1
:100CB0008105910570F321E0C21AD108E108F1081D
:100CC00088EE880E83E0981EA11CB11CC114D104CB
:100CD000E104F10429F7DDCFFF90EF90DF90CF9092
:100CE000BF90AF909F908F900895789484B5826064
:100CF00084BD84B5816084BD85B5826085BD85B5C0
:100D0000816085BDEEE6F0E0808181608083E1E86E
:100D1000F0E01082808182608083808181608083A6
:100D2000E0E8F0E0808181608083E1EBF0E08081A9
:100D300084608083E0EBF0E0808181608083EAE77B
:100D4000F0E0808184608083808182608083808104
:100D5000816080838081806880831092C1000895C3
:100D60001F93CF93DF93182FEB0161E00E943807A8
:100D7000209711F460E004C0CF3FD10539F461E061
:100D8000812FDF91CF911F910C947107E12FF0E03B
:100D9000E859FF4FE491E330F9F048F4E130B9F05D
:100DA000E230A1F584B5806284BDC8BD34C0E730AF
:100DB000E9F0E83019F1E43049F580918000806273
:100DC00080938000D0938B00C0938A0024C084B5A8
:100DD000806884BDC7BD1FC08091800080688093FB
:100DE0008000D0938900C093880015C08091B00026
:100DF00080688093B000C093B3000DC08091B000B4
:100E000080628093B000C093B40005C0C038D105A3
:100E10000CF0B5CFAFCFDF91CF911F910895833004
:100E200081F028F4813099F08230A1F00895873064
:100E3000A9F08830B9F08430D1F4809180008F7DA2
:100E400003C0809180008F7780938000089584B5DF
:100E50008F7702C084B58F7D84BD08958091B000E6
:100E60008F7703C08091B0008F7D8093B00008958C
:100E7000CF93DF9390E0FC01E458FF4F2491FC01F5
:100E8000E057FF4F8491882349F190E0880F991F24
:100E9000FC01E255FF4FA591B4918C559F4FFC0189
:100EA000C591D4919FB7611108C0F8948C91209599
:100EB00082238C93888182230AC0623051F4F89493
:100EC0008C91322F309583238C938881822B888359
:100ED00004C0F8948C91822B8C939FBFDF91CF91AB
:100EE00008950F931F93CF93DF931F92CDB7DEB773
:100EF000282F30E0F901E859FF4F8491F901E458B7
:100F0000FF4F1491F901E057FF4F04910023C9F0FE
:100F1000882321F069830E940F076981E02FF0E0A8
:100F2000EE0FFF1FEC55FF4FA591B4919FB7F894BA
:100F30008C91611103C01095812301C0812B8C938A
:100F40009FBF0F90DF91CF911F910F910895FC01EA
:100F5000818D228D90E0805C9F4F821B91098F7361
:100F600099270895FC01918D828D981731F0828D1B
:100F7000E80FF11D858D90E008958FEF9FEF0895A4
:100F8000FC01918D828D981761F0828DDF01A80F91
:100F9000B11D5D968C91928D9F5F9F73928F90E0B3
:100FA00008958FEF9FEF089584E499E0892B49F02D
:100FB00080E090E0892B29F00E94440981110C9473
:100FC00000000895FC01848DDF01A80FB11DA35A14
:100FD000BF4F2C91848D90E001968F739927848F59
:100FE000A689B7892C93A089B1898C9180648C9350
:100FF000938D848D981306C00288F389E02D80813B
:101000008F7D80830895CF93DF93EC01888D8823B3
:10101000C9F0EA89FB89808185FD05C0A889B98965
:101020008C9186FD0FC00FB607FCF5CF808185FF40
:10103000F2CFA889B9898C9185FFEDCFCE010E94AE
:10104000E207E7CFDF91CF910895CF92DF92FF9231
:101050000F931F93CF93DF931F92CDB7DEB76C0131
:1010600081E0D60158968C9358975B969C915B973C
:101070005C968C915C97981307C05096ED91FC910B
:101080005197808185FD2EC0F601038D10E00F5F22
:101090001F4F0F731127F02EF601848DF81211C027
:1010A0000FB607FCF9CFD6015096ED91FC91519700
:1010B000808185FFF1CFC60169830E94E2076981C3
:1010C000EBCF838DE80FF11DE35AFF4F6083D6010C
:1010D0005B960C935B975296ED91FC9153978081B0
:1010E00080620CC0D6015696ED91FC9157976083B3
:1010F0005096ED91FC91519780818064808381E0CE
:1011000090E00F90DF91CF911F910F91FF90DF90B2
:10111000CF900895BF92CF92DF92EF92FF92CF933C
:10112000DF93EC016A017B01B22EE889F98982E044
:101130008083411581EE580761057105A1F060E0DB
:1011400079E08DE390E0A70196010E94740A215096
:10115000310941095109569547953795279521152C
:1011600080E1380798F0E889F989108260E874E82E
:101170008EE190E0A70196010E94740A2150310986
:10118000410951095695479537952795EC85FD8579
:101190003083EE85FF852083188EEC89FD89B0822F
:1011A000EA89FB89808180618083EA89FB8980816B
:1011B00088608083EA89FB89808180688083EA89EE
:1011C000FB8980818F7D8083DF91CF91FF90EF90AD
:1011D000DF90CF90BF9008951F920F920FB60F929D
:1011E00011242F938F939F93EF93FF93E091A80285
:1011F000F091A9028081E091AE02F091AF0282FDF0
:1012000012C090818091B1028F5F8F732091B202E2
:10121000821751F0E091B102F0E0E856FD4F958F52
:101220008093B10201C08081FF91EF919F918F91D6
:101230002F910F900FBE0F901F9018951F920F9235
:101240000FB60F9211242F933F934F935F936F9399
:101250007F938F939F93AF93BF93EF93FF9388E90F
:1012600092E00E94E207FF91EF91BF91AF919F91B1
:101270008F917F916F915F914F913F912F910F903F
:101280000FBE0F901F90189588E992E00E94A70763
:1012900021E0892B09F420E0822F089510929B020F
:1012A00010929A0288EE93E0A0E0B0E080939C0256
:1012B00090939D02A0939E02B0939F028BE591E0D4
:1012C000909399028093980285EC90E09093A50208
:1012D0008093A40284EC90E09093A7028093A602EE
:1012E00080EC90E09093A9028093A80281EC90E0BA
:1012F0009093AB028093AA0282EC90E09093AD02AF
:101300008093AC0286EC90E09093AF028093AE02A3
:101310001092B1021092B2021092B3021092B40273
:10132000089508950E9475060E9491090E94BF00C9
:10133000C4EDD7E00E94BF012097E1F30E94D407DB
:10134000F9CFCF92DF92EF92FF920F931F93CF933B
:10135000DF937C016A01EB0100E010E00C151D0534
:1013600071F06991D701ED91FC910190F081E02D30
:10137000C7010995892B19F00F5F1F4FEFCFC801E7
:10138000DF91CF911F910F91FF90EF90DF90CF9061
:101390000895FC01808191810C94480BCF93DF93D9
:1013A000EC0188819981009711F00E94480B198205
:1013B00018821D821C821B821A82DF91CF910895B0
:1013C0000F931F93CF93DF93EC018B016F5F7F4FE0
:1013D000888199810E94D70B009731F09983888387
:1013E0001B830A8381E001C080E0DF91CF911F91D0
:1013F0000F910895CF93DF93EC0188819981892B18
:1014000029F08A819B818617970760F4CE010E949C
:10141000E009882341F08C819D81892B19F4E881B2
:10142000F981108281E0DF91CF910895EF92FF92D0
:101430000F931F93CF93DF93EC017B018A01BA01D5
:101440000E94FA09811104C0CE010E94CE0907C092
:101450001D830C83B701888199810E94B20CCE0153
:10146000DF91CF911F910F91FF90EF900895FC01B4
:101470001182108213821282158214826115710505
:1014800059F0FB0101900020E9F7AF0141505109EB
:10149000461B570B0C94160A0895FC018481958114
:1014A0006817790720F480819181009729F41092C0
:1014B000350385E393E00895860F971F08950895F7
:1014C00097FB072E16F4009407D077FD09D00E94F1
:1014D000960A07FC05D03EF4909581959F4F08959C
:1014E000709561957F4F0895A1E21A2EAA1BBB1B30
:1014F000FD010DC0AA1FBB1FEE1FFF1FA217B307E0
:10150000E407F50720F0A21BB30BE40BF50B661FF5
:10151000771F881F991F1A9469F7609570958095B9
:1015200090959B01AC01BD01CF010895AA1BBB1B87
:1015300051E107C0AA1FBB1FA617B70710F0A61BD3
:10154000B70B881F991F5A95A9F780959095BC01F4
:10155000CD010895EE0FFF1F0590F491E02D099441
:10156000CF93DF938230910510F482E090E0E09118
:101570003803F091390320E030E0A0E0B0E030978C
:1015800039F14081518148175907B8F04817590778
:1015900071F482819381109729F013969C938E9316
:1015A00012972CC0909339038093380327C02115DC
:1015B000310531F04217530718F0A901DB0101C0D2
:1015C000EF019A01BD01DF010280F381E02DD7CF49
:1015D00021153105F9F0281B390B2430310580F431
:1015E0008A819B816115710521F0FB0193838283C0
:1015F00004C09093390380933803FE01329644C0AF
:10160000FE01E20FF31F8193919322503109398338
:1016100028833AC02091360330913703232B41F4BD
:101620002091020130910301309337032093360358
:1016300020910001309101012115310541F42DB7B0
:101640003EB74091040150910501241B350BE091F8
:101650003603F0913703E217F307A0F42E1B3F0B7C
:101660002817390778F0AC014E5F5F4F2417350714
:1016700048F04E0F5F1F509337034093360381931A
:10168000919302C0E0E0F0E0CF01DF91CF910895A7
:10169000CF93DF93009709F487C0FC013297138240
:1016A0001282C0913803D0913903209781F42081B0
:1016B0003181280F391F80913603909137038217AB
:1016C000930779F5F0933703E09336036DC0DE019D
:1016D00020E030E0AE17BF0750F412964D915C91B8
:1016E00013979D014115510509F1DA01F3CFB38339
:1016F000A28340815181840F951F8A179B0771F443
:101700008D919C911197840F951F029691838083F0
:1017100012968D919C9113979383828321153105A5
:1017200029F4F0933903E09338033EC0D9011396AE
:10173000FC93EE9312974D915D91A40FB51FEA179C
:10174000FB0779F480819181840F951F0296D9015E
:1017500011969C938E938281938113969C938E9382
:101760001297E0E0F0E08A819B81009719F0FE017A
:10177000EC01F9CFCE01029628813981820F931FA7
:1017800020913603309137032817390769F43097D1
:1017900029F4109239031092380302C01382128286
:1017A000D0933703C0933603DF91CF910895A0E023
:1017B000B0E0EDEDFBE00C94FE0FEC01CB012097C7
:1017C00019F40E94B00AB8C0FE01E60FF71F9E018F
:1017D00022503109E217F30708F4ACC0D9010D918A
:1017E0001C91119706171707B8F00530110508F47A
:1017F0009FC0A801445051094617570708F498C0E4
:1018000002501109061B170B019311936D937C93E2
:10181000CF010E94480B8CC05B01A01AB10A4E0197
:10182000800E911EA0913803B0913903612C712C68
:1018300060E070E0109709F449C0A815B905C9F532
:10184000ED90FC901197670142E0C40ED11CCA14C0
:10185000DB0478F147018A189B08640142E0C40E5A
:10186000D11C1296BC9012971396AC91B5E0CB1692
:10187000D10440F0B282A38391828082D9018D93FA
:101880009C9309C00E5F1F4F0E0D1F1DF9011183A0
:101890000083EB2DFA2F6115710531F0DB011396F2
:1018A000FC93EE93129744C0F0933903E09338030E
:1018B0003FC06D917C9111976616770608F43B0145
:1018C000BD0112960D90BC91A02DB4CF609136034E
:1018D0007091370368157905E9F468167906D0F434
:1018E00040910001509101014115510541F44DB75E
:1018F0005EB76091040170910501461B570BE41718
:10190000F507C0F4F0933703E0933603F9019183B0
:1019100080830EC00E94B00A7C01009759F0A80194
:10192000BE010E94A90CCE010E94480BC70104C051
:10193000CE0102C080E090E0CDB7DEB7EEE00C94BF
:101940001A109111F2C2803219F089508550D0F7E7
:101950000895FB01DC0102C001900D9241505040FE
:10196000D8F70895FB01DC0101900D920020E1F70A
:101970000895FB01DC014150504030F08D91019001
:10198000801919F40020B9F7881B990B0895AEE06F
:10199000B0E0EDECFCE00C940A1085E08C838B89C0
:1019A0009C899A838983AE01495E5F4F6D897E89E8
:1019B000CE0101960E945E0E2E96E2E00C94261057
:1019C00020FD09C0FC0123FD05C022FF02C0738376
:1019D000628351834083089544FD10C046FD10C0CA
:1019E000DB01FC01AA0FBB1FEE1FFF1F1094D1F7F4
:1019F0006A0F7B1F8E1F9F1F31E003C033E001C0C1
:101A000034E0660F771F881F991F3150D1F7620F9E
:101A1000711D811D911D08950F931F93CF93DF9327
:101A20008C01C8010E94A30FEC0197FD08C00E9421
:101A3000A10C892BB1F7B801CE010E94E10FCE01B4
:101A4000DF91CF911F910F9108958F929F92AF9246
:101A5000CF92DF92EF92FF920F931F93CF93DF937A
:101A6000EC01A62E4A01022F0E94A30FAC015527BC
:101A70004B32510521F04D32510551F40068AA94C2
:101A800011F480E067C0CE010E94A30F97FDF9CF4B
:101A9000102F1D7F302F307301F58033F1F4FF24B8
:101AA000FA94FA0C09F442C0CE010E94A30F97FDEC
:101AB0003DC0382F3F7D383551F41264AA94AA9462
:101AC000A9F1CE010E94A30F97FF07C02FC006FF08
:101AD00002C0126001C01261AF2CC12CD12C760162
:101AE00020ED280F283080F014FF04C0BE010E94B2
:101AF000E10F19C02A3040F016FFF8CF2F7D3FEEDE
:101B0000320F363098F72750412FC701B6010E9497
:101B1000EC0C6B017C011260AA9459F0CE010E947A
:101B2000A30F97FFDDCF11FD04C0ABCFC12CD12C8B
:101B3000760117FF08C0F094E094D094C094C11CC3
:101B4000D11CE11CF11C212FB701A601C4010E9488
:101B5000E00C81E0DF91CF911F910F91FF90EF900A
:101B6000DF90CF90AF909F908F900895A1E2B0E06A
:101B7000ECEBFDE00C94FF0F5C017A018E010F5F2E
:101B80001F4F680180E2D8011D928A95E9F7F5019F
:101B9000738040E050E0812CB0E0912C81E090E037
:101BA000F90173FCA59173FEA1918F017A2F9F011A
:101BB000A11103C080E090E07DC0AE3519F441155D
:101BC000510559F1E92DF0E0E417F5073CF4AD3586
:101BD00069F1AD3219F4BB2319F103C0B11101C091
:101BE0008A2EE72FE695E695E69586010E0F111DE4
:101BF000F801A72FA7708C0102C0000F111FAA9532
:101C0000E2F7D801B081BA2BB083781559F0781576
:101C100010F47F5FE6CF7150E4CF9924939403C012
:101C2000B1E001C0B0E04F5F5F4FBACFBB2319F006
:101C30008E8180628E83911003C09924939415C085
:101C4000F601CE018196208120952193E817F907AE
:101C5000D1F7F3CFE114F10429F0D7018C93F70108
:101C600031967F01615001F1912CC50169A30E9459
:101C7000A30F69A197FD16C0282F269526952695B6
:101C8000F601E20FF11D208130E0AC0147705527CD
:101C900002C0359527954A95E2F720FDDBCFB501C7
:101CA0000E94E10F911086CFE114F10411F0D701E9
:101CB0001C92C801A196EDE00C941B104F925F920C
:101CC0007F928F929F92AF92BF92CF92DF92EF92CC
:101CD000FF920F931F93CF93DF931F92CDB7DEB781
:101CE0008C012B017A01FC0117821682A12CF801CC
:101CF000D380F201D3FC8591D3FE8191382F2F013F
:101D0000882309F4FCC090E039830E94A10C39813A
:101D1000892B21F0C8010E940C0DE9CF353241F426
:101D2000F201D3FC3591D3FE31912F01353269F4A4
:101D3000C80139830E94A30F398197FDDEC038178F
:101D4000B1F2B8010E94E10FDAC03A3241F4D3FC9B
:101D50003591D3FE31912F01BB24B39401C0B12C36
:101D6000712C20ED230F2A3090F4FB2DF260BF2E52
:101D7000672D70E080E090E040E20E94EC0C762E4F
:101D8000F201D3FC3591D3FE31912F01EACFB1FEA0
:101D900003C0711003C0B3C077247A94383619F0A9
:101DA0003C3661F014C0F201D3FC3591D3FE319181
:101DB0002F01383661F4FB2DF860BF2E8B2D846027
:101DC000B82EF201D3FC3591D3FE31912F0133238C
:101DD00009F495C0632F70E088EB90E039830E948E
:101DE000980F3981892B09F48AC0B0FC07C0F7012C
:101DF000C080D180C70102967C0102C0C12CD12CC9
:101E00003E3651F4F8014681578160E070E02B2D99
:101E1000C6010E94E00C6BCF3336A1F4B1FC02C0C6
:101E200077247394C8010E94A30F97FD66C0C11464
:101E3000D10429F0F6018083C60101966C017A94E1
:101E400089F757C03B3559F49201A601672DC801A7
:101E50000E94B60D2C01009709F04BC045C0C80187
:101E600039830E940C0D398197FD47C03F3669F1D7
:101E700028F4343631F1393679F12BC0333769F033
:101E80003537F9F026C0C114D10429F0F60180825B
:101E9000C60101966C017A9471F0C8010E94A30FEB
:101EA0004C0197FD08C00E94A10C892B61F3B80179
:101EB000C4010E94E10FC114D104D9F0F6011082CF
:101EC00018C0FB2DF062BF2E07C08B2D8061B82E8D
:101ED00003C09B2D9064B92E2B2DA601672DC80140
:101EE0000E94250D811105C0F8018381807329F4BA
:101EF00006C0B0FCFCCEA394FACEAA2019F08A2D1D
:101F000090E002C08FEF9FEF0F90DF91CF911F9174
:101F10000F91FF90EF90DF90CF90BF90AF909F9088
:101F20008F907F905F904F9008959927882708950C
:101F3000FC010590061621F00020D9F7C001089594
:101F40003197CF010895CF93DF93EC012B8120FFD0
:101F500033C026FF0AC02F7B2B838E819F81019681
:101F60009F838E838A8190E029C022FF0FC0E88181
:101F7000F9818081992787FD9095009719F4206257
:101F80002B831AC03196F983E8830EC0EA85FB855E
:101F9000099597FF09C02B81019611F480E101C0DA
:101FA00080E2822B8B8308C02E813F812F5F3F4FC1
:101FB0003F832E83992702C08FEF9FEFDF91CF9150
:101FC0000895FB01238120FF12C026FD10C08F3F22
:101FD0003FEF930761F082832F7D20642383268166
:101FE00037812150310937832683992708958FEF50
:101FF0009FEF08952F923F924F925F926F927F9240
:102000008F929F92AF92BF92CF92DF92EF92FF9208
:102010000F931F93CF93DF93CDB7DEB7CA1BDB0BB4
:102020000FB6F894DEBF0FBECDBF09942A88398859
:1020300048885F846E847D848C849B84AA84B98460
:10204000C884DF80EE80FD800C811B81AA81B9816C
:10205000CE0FD11D0FB6F894DEBF0FBECDBFED0180
:062060000895F894FFCF83
:1020660000003A0380003B0101073F010B074301D3
:102076000B0747010B074B010B074F0101075301E4
:10208600010700000000000000006E024102E701A7
:10209600EF0102021102256425640041524D004DF4
:1020A60054520053525600554C5400495253004462
:1020B600475400414E4C00000000002508A109A726
:0820C60007C007B20703080080
:107800000C94343C0C94513C0C94513C0C94513CE1
:107810000C94513C0C94513C0C94513C0C94513CB4
:107820000C94513C0C94513C0C94513C0C94513CA4
:107830000C94513C0C94513C0C94513C0C94513C94
:107840000C94513C0C94513C0C94513C0C94513C84
:107850000C94513C0C94513C0C94513C0C94513C74
:107860000C94513C0C94513C11241FBECFEFD8E036
:10787000DEBFCDBF11E0A0E0B1E0ECE9FFE702C060
:1078800005900D92A230B107D9F712E0A2E0B1E065
:1078900001C01D92AD30B107E1F70E942D3D0C945F
:1078A000CC3F0C94003C982F959595959595959582
:1078B000905D8F708A307CF0282F295A8091C0000B
:1078C00085FFFCCF9093C6008091C00085FFFCCF60
:1078D0002093C6000895282F205DF0CF982F809127
:1078E000C00085FFFCCF9093C6000895EF92FF92F1
:1078F0000F931F93EE24FF2487018091C00087FD22
:1079000017C00894E11CF11C011D111D81E4E8164B
:1079100082E4F8068FE0080780E0180770F3E09132
:107920000401F091050109958091C00087FFE9CF1E
:107930008091C6001F910F91FF90EF9008950E94D3
:10794000763C982F8091C00085FFFCCF9093C600B5
:1079500091362CF490330CF09053892F089597555D
:10796000892F08951F930E949F3C182F0E949F3CCF
:107970001295107F810F1F9108951F93182F882350
:1079800021F00E94763C1150E1F71F9108951F935A
:10799000182F0E94763C803249F0809103018F5F5E
:1079A000809303018530C1F01F9108958091C0003C
:1079B00085FFFCCF84E18093C6008091C00085FFE5
:1079C000FCCF1093C6008091C00085FFFCCF80E102
:1079D0008093C6001F910895E0910401F091050184
:1079E00009951F9108950E94763C803241F0809164
:1079F00003018F5F80930301853081F008958091AA
:107A0000C00085FFFCCF84E18093C6008091C00058
:107A100085FFFCCF80E18093C6000895E0910401CA
:107A2000F09105010995089540E951E08823A1F0FE
:107A30002D9A28EE33E0FA013197F1F721503040CA
:107A4000D1F72D9828EE33E0FA013197F1F7215064
:107A50003040D1F7815061F708953F924F925F9285
:107A60006F927F928F929F92AF92BF92CF92DF924E
:107A7000EF92FF920F931F93CF93DF93000080E16B
:107A80008093C4001092C50088E18093C10086E015
:107A90008093C2005098589A259A81E00E94143D24
:107AA00024E1F22E9EE1E92E85E9D82E0FE0C02ECA
:107AB00010E1B12EAA24A394B1E49B2EA6E58A2E50
:107AC000F2E57F2EE0E26E2E79E4572E63E5462E36
:107AD00050E5352E0E94763C8033B1F18133B9F107
:107AE000803409F46FC0813409F476C0823409F41B
:107AF00085C0853409F488C0803531F1823521F1A3
:107B0000813511F1853509F485C0863509F48DC0BC
:107B1000843609F496C0843709F403C1853709F423
:107B200072C1863709F466C0809103018F5F80932C
:107B30000301853079F6E0910401F0910501099582
:107B40000E94763C803351F60E94F33CC3CF0E94E2
:107B5000763C803249F78091C00085FFFCCFF092DF
:107B6000C6008091C00085FFFCCF9092C600809136
:107B7000C00085FFFCCF8092C6008091C00085FFC9
:107B8000FCCF7092C6008091C00085FFFCCF609250
:107B9000C6008091C00085FFFCCF5092C600809146
:107BA000C00085FFFCCF4092C6008091C00085FFD9
:107BB000FCCF3092C6008091C00085FFFCCFB09210
:107BC000C60088CF0E94763C863808F4BDCF0E945C
:107BD000763C0E94F33C7ECF0E94763C803809F4CC
:107BE0009CC0813809F40BC1823809F43CC1883942
:107BF00009F48FC080E00E94C73C6CCF84E10E94F2
:107C0000BD3C0E94F33C66CF85E00E94BD3C0E94D3
:107C1000F33C60CF0E94763C809306010E94763C44
:107C2000809307010E94F33C55CF0E94763C80333D
:107C300009F41DC183E00E94BD3C80E00E94C73C66
:107C400049CF0E94763C809309020E94763C809343
:107C5000080280910C028E7F80930C020E94763C79
:107C6000853409F415C18091080290910902892B8D
:107C700089F000E010E00E94763CF801E85FFE4FDA
:107C800080830F5F1F4F80910802909109020817AF
:107C9000190788F30E94763C803209F045CF809125
:107CA0000C0280FF01C16091060170910701660F0F
:107CB000771F7093070160930601A0910802B091AD
:107CC00009021097C9F0E8E0F1E09B01AD014E0F09
:107CD0005F1FF999FECF32BD21BD819180BDFA9A17
:107CE000F99A2F5F3F4FE417F50799F76A0F7B1F4B
:107CF00070930701609306018091C00085FFFCCF5F
:107D0000F092C6008091C00085FFFCCFB092C60003
:107D1000E1CE83E00E94C73CDDCE82E00E94C73CFA
:107D2000D9CE0E94763C809309020E94763C8093D3
:107D300008028091060190910701880F991F909386
:107D40000701809306010E94763C853409F4A6C0A1
:107D500080910C028E7F80930C020E94763C8032D0
:107D600009F0B8CE8091C00085FFFCCFF092C6002C
:107D7000609108027091090261157105B9F140E046
:107D800050E080910C02A82FA170B82FB27011C0E2
:107D9000BB2309F45CC0E0910601F0910701319624
:107DA000F0930701E09306014F5F5F4F46175707B7
:107DB000E8F4AA2369F3F999FECF209106013091E6
:107DC000070132BD21BDF89A90B58091C00085FFB2
:107DD000FCCF9093C6002F5F3F4F30930701209355
:107DE00006014F5F5F4F4617570718F38091C00099
:107DF00085FDE5CE8091C00085FFF8CFE0CE81E023
:107E00000E94C73C67CE0E94763C803209F08CCE3F
:107E10008091C00085FFFCCFF092C6008091C00029
:107E200085FFFCCFE092C6008091C00085FFFCCFAB
:107E3000D092C6008091C00085FFFCCFC092C600E2
:107E40008091C00085FFFCCFB092C60043CEE09188
:107E50000601F091070194918091C00085FFFCCF4D
:107E60009093C6009CCF80E10E94C73C33CE0E9415
:107E7000763C0E94763C182F0E94763C112309F430
:107E800083C0113009F484C08FE00E94C73C22CE29
:107E900080910C02816080930C02E5CE80910C02EF
:107EA000816080930C0259CF809107018823880F4D
:107EB000880B8A2180930B02809106019091070123
:107EC000880F991F90930701809306018091080203
:107ED00080FF09C080910802909109020196909359
:107EE000090280930802F894F999FECF1127E091D6
:107EF0000601F0910701C8E0D1E08091080290915D
:107F00000902103091F40091570001700130D9F34B
:107F100003E000935700E89500915700017001308D
:107F2000D9F301E100935700E89509901990009169
:107F3000570001700130D9F301E000935700E89534
:107F40001395103498F011270091570001700130FB
:107F5000D9F305E000935700E895009157000170B0
:107F60000130D9F301E100935700E895329602976A
:107F700009F0C7CF103011F00296E5CF112480919F
:107F8000C00085FFB9CEBCCE8EE10E94C73CA2CD19
:0C7F900085E90E94C73C9ECDF894FFCF0D
:027F9C00800063
:040000030000780081
:00000001FF