:100000000C9463000C948B000C948B000C948B006C
:100010000C948B000C948B000C948B000C948B0034
:100020000C948B000C948B000C948B000C948B0024
:100030000C948B000C948B000C948B000C948B0014
:100040000C94E2050C948B000C94B0050C948A057A
:100050000C948B000C948B000C948B000C948B00F4
:100060000C942C060C948B006364696E6F7073752E
:1000700078585B000000000800020100000304073C
:100080000000000000000000000000002500280023
:100090002B0000000000240027002A0004040404B0
:1000A0000404040402020202020203030303030322
:1000B00001020408102040800102040810200102FF
:1000C000040810205A0711241FBECFEFD8E0DEBF6E
:1000D000CDBF23E0AAE8B1E001C01D92AD37B20761
:1000E000E1F711E0A0E0B1E0ECE2FAE102C0059036
:1000F0000D92AA38B107D9F710E0C3E6D0E004C0EA
:100100002197FE010E94D209C236D107C9F70E9489
:10011000B5070C94140D0C940000EEEDF2E0A089EC
:10012000B18982E08C93A485B5851C92A685B7859C
:1001300080E18C93108EA489B58986E08C93A28986
:10014000B3898C9180618C93A289B3898C918860EA
:100150008C93A289B3898C9180688C930288F389EF
:10016000E02D80818F7D8083089590E0FC01E05533
:10017000FF4F2491FC01E456FF4F8491882399F0AE
:1001800090E0880F991FFC01EE56FF4FA591B491A6
:10019000FC01E857FF4F859194918FB7F894EC914B
:1001A000E22BEC938FBF0895CF92DF92EF92FF92F4
:1001B0000F931F932FB7F894C0902502D09026027A
:1001C000E0902702F09028022FBFDC01CB018C0DBC
:1001D0009D1DAE1DBF1D4FB7F894009125021091D3
:1001E000260220912702309128024FBF0C151D05D1
:1001F0002E053F0528F080179107A207B30758F78F
:100200001F910F91FF90EF90DF90CF900895CF92C4
:10021000DF92EF92FF920F931F93CF93DF936C01C6
:100220007A018B01C0E0D0E0CE15DF0589F0D8015E
:100230006D918D01D601ED91FC910190F081E02D41
:10024000C6010995892B11F47E0102C02196ECCFDD
:10025000C701DF91CF911F910F91FF90EF90DF9039
:10026000CF900895E091AA01F091AB01309729F069
:1002700010921C0210921B0209940895CF93DF93F1
:10028000AC01E0912302F09124023097F1F09091BB
:100290001E0280911D029817C0F090E0292F30E0D7
:1002A0002617370754F4D901A657BE4FEA01C20FEB
:1002B000D31F88818C939F5FF1CF10921E026093B1
:1002C0001D02CB01DF91CF910994DF91CF91089569
:1002D000FC01538D448D252F30E0842F90E0821B4C
:1002E000930B541710F0CF96089501970895FC01D1
:1002F000918D828D981761F0828DDF01A80FB11D5D
:100300005D968C91928D9F5F9F73928F90E0089580
:100310008FEF9FEF0895FC01918D828D981731F03A
:10032000828DE80FF11D858D90E008958FEF9FEF8E
:100330000895FC01918D228D892F90E0805C9F4F64
:10034000821B91098F73992708958EED92E00E9488
:10035000990121E0892B09F420E0822F0895FC0106
:10036000848DDF01A80FB11DA35ABF4F2C91848D3E
:1003700090E001968F739927848FA689B7892C9373
:10038000A089B1898C9180648C93938D848D98130E
:1003900006C00288F389E02D80818F7D80830895D7
:1003A000EF92FF920F931F93CF93DF93EC0181E0C5
:1003B000888F9B8D8C8D981305C0E889F989808181
:1003C00085FD24C0F62E0B8D10E00F5F1F4F0F73BD
:1003D0001127E02E8C8DE8120CC00FB607FCFACF67
:1003E000E889F989808185FFF5CFCE010E94AF01B0
:1003F000F1CF8B8DFE01E80FF11DE35AFF4FF08224
:100400000B8FEA89FB898081806207C0EE89FF89B2
:100410006083E889F98980818064808381E090E04D
:10042000DF91CF911F910F91FF90EF900895CF939F
:10043000DF93EC01888D8823C9F0EA89FB898081EC
:1004400085FD05C0A889B9898C9186FD0FC00FB6BE
:1004500007FCF5CF808185FFF2CFA889B9898C91FF
:1004600085FFEDCFCE010E94AF01E7CFDF91CF91A5
:10047000089580E090E0892B29F00E94A501811168
:100480000C940000089590E0FC01EC58FF4F34916B
:10049000FC01E055FF4F2491FC01E456FF4FE4912D
:1004A000EE2309F43BC0332339F1333091F038F4B3
:1004B0003130A9F0323001F584B58F7D12C037306C
:1004C00091F03830A1F03430B9F4809180008F7D04
:1004D00003C0809180008F77809380000DC084B529
:1004E0008F7784BD09C08091B0008F7703C0809161
:1004F000B0008F7D8093B000F0E0EE0FFF1FE85753
:10050000FF4FA591B4918FB7F894EC91611103C09E
:1005100020952E2301C02E2B2C938FBF08951F935F
:10052000CF93DF93182FEB010E94B500209711F4B1
:1005300060E004C0CF3FD10539F461E0812FDF9145
:10054000CF911F910C944302E12FF0E0EC58FF4F44
:10055000E491E330F9F048F4E130B9F0E230A1F58C
:1005600084B5806284BDC8BD34C0E730E9F0E830AE
:1005700019F1E43049F58091800080628093800019
:10058000D0938B00C0938A0024C084B5806884BD5A
:10059000C7BD1FC080918000806880938000D09389
:1005A0008900C093880015C08091B0008068809356
:1005B000B000C093B3000DC08091B0008062809302
:1005C000B000C093B40005C0C038D1050CF0B5CF61
:1005D000AFCFDF91CF911F9108953FB7F8948091ED
:1005E000140290911502A0911602B091170226B53F
:1005F000A89B05C02F3F19F00196A11DB11D3FBF5B
:10060000BA2FA92F982F8827820F911DA11DB11DE8
:10061000BC01CD0142E0660F771F881F991F4A95E4
:10062000D1F7089585ED8093BC008091BC0084FDD6
:10063000FCCF10921A0208954091CC01262F30E091
:10064000240F311D21323105DCF420911A022430AF
:10065000C9F4FC0180E090E0861758F43091CC0199
:100660002191DC01A455BE4FA30FB11D2C9301961F
:10067000F3CF8091CC01680F6093CC0180E00895A6
:1006800081E0089582E008950895E0911E0280912E
:100690001D02E81730F4F0E0E657FE4F808190E04D
:1006A00008958FEF9FEF089590911E0280911D0293
:1006B000981750F4E92FF0E0E657FE4F208130E024
:1006C0009F5F90931E0202C02FEF3FEFC901089574
:1006D00080911D0290E020911E02821B91090895D5
:1006E000CF93DF9300D0CDB7DEB7CB01642F498322
:1006F0005A830E941C034981842F5A81952F0F90A1
:100700000F90DF91CF910895CF93DF931F92CDB7D4
:10071000DEB7698361E0CE0101960E941C0381E08F
:1007200090E00F90DF91CF910895089580E090E0E0
:1007300008958530910519F0069771F108956115B6
:10074000710571F460E08EE00E94430261E08FE089
:100750000E94430260E080E10E94430261E010C019
:100760006130710579F461E08EE00E94430260E03F
:100770008FE00E94430261E080E10E94430260E05A
:1007800081E136C060E08EE00E94430260E08FE0CD
:100790000E94430260E0F0CF6115710551F461E001
:1007A0008CE00E94430260E08DE00E94430261E021
:1007B0001AC06130710571F460E08CE00E94430260
:1007C00061E08DE00E94430260E087E00E94430206
:1007D00061E00DC060E08CE00E94430260E08DE0CB
:1007E0000E94430260E087E00E94430260E088E0EC
:1007F0000C9443026115710579F0FB010190002012
:10080000E9F73197AF01461B570BDC01ED91FC91E5
:100810000280F381E02D099480E090E00895CF9369
:10082000DF93BC018EED92E00E94FA03EC0168E5D3
:1008300071E08EED92E00E94FA038C0F9D1FDF9114
:10084000CF9108954F925F926F927F92EF92FF92B5
:100850000F931F93CF93DF93CDB7DEB7A1970FB65A
:10086000F894DEBF0FBECDBF7C01FA01CB0119A207
:10087000223008F42AE08E010F5D1F4F422E512CCA
:10088000612C712CBF01A30192010E947909F90129
:10089000CA01015011096A3014F4605D01C0695C3D
:1008A000D8016C93232B242B252B61F7B801C701AA
:1008B0000E94FA03A1960FB6F894DEBF0FBECDBF1B
:1008C000DF91CF911F910F91FF90EF907F906F90EC
:1008D0005F904F900895CF92DF92EF92FF92CF9367
:1008E000DF936B017C01E091DE02F091DF02019069
:1008F000F081E02D6DE28EED92E00995EC01442748
:100900005527BA014C195D096E097F092AE08EED61
:1009100092E00E9422048C0F9D1FDF91CF91FF90E7
:10092000EF90DF90CF900895AF92BF92CF92DF9279
:10093000EF92FF920F931F93CF93DF9300D01F92FC
:10094000CDB7DEB7182F81110BC080E2EAE6F2E0E6
:10095000DF011D928A95E9F71092690210926802F0
:1009600080916702811141C080916902882389F1D9
:100970001B3789F1E09168021D3779F0AE2FB0E0A6
:10098000A659BD4F1C93EF5FE03218F4E093680264
:100990002CC08FE18093680228C0F0E0E659FD4F3B
:1009A000108280E2EAE6F2E0A7E4B2E001900D9264
:1009B0008A95E1F780E2EAE6F2E0DF011D928A958E
:1009C000E9F7109269021092680281E08093670251
:1009D0000CC01B3751F481E08093690280E2EAE6A3
:1009E000F2E0DF011D928A95E9F780916702882382
:1009F00009F466C01B821A82198210926702E7E42A
:100A0000F2E001900020E9F731979F01275432402E
:100A1000790134E03E1508F053C00091490230E0FE
:100A2000A32E31E0B32EC12CD12CD5016D917C9138
:100A30006115710589F0FB0101900020E9F73197FC
:100A4000AF01461B570B8AE492E00E94DD09A4E047
:100A5000AA0EB11C892B21F4CA94CD2829F030C0EC
:100A6000EFEFCE1ADE0AE1CF043251F5BBE0EB1610
:100A7000F10431F5CE0101969F938F9302969F93D7
:100A80008F9384E491E09F938F938DE492E09F9302
:100A90008F930E94EB090FB6F894DEBF0FBECDBF57
:100AA000029771F489819A81EB812FEF2E0F2F30FD
:100AB00038F4F0E0EE0FFF1FE95DFD4F9183808376
:100AC000812F0F900F900F90DF91CF911F910F9179
:100AD000FF90EF90DF90CF90BF90AF90089520E00F
:100AE00080911D0290E030911E02831B910918161F
:100AF000190644F482ED92E00E9454030E9494048B
:100B000021E0EECF222319F080E00C9494040895A4
:100B10000E94D8091F920F920FB60F9211242F93A3
:100B20003F934F935F936F937F938F939F93AF9375
:100B3000BF93EF93FF938EED92E00E94AF01FF9180
:100B4000EF91BF91AF919F918F917F916F915F9145
:100B50004F913F912F910F900FBE0F901F901895BE
:100B60001F920F920FB60F9211242F938F939F9382
:100B7000EF93FF93E091EE02F091EF028081E0911C
:100B8000F402F091F50282FD12C090818091F7028B
:100B90008F5F8F732091F802821751F0E091F70276
:100BA000F0E0E252FD4F958F8093F70201C0808103
:100BB000FF91EF919F918F912F910F900FBE0F900A
:100BC0001F9018951F920F920FB60F9211242F931A
:100BD0003F938F939F93AF93BF9380912502909102
:100BE0002602A0912702B09128023091130223E03F
:100BF000230F2D3720F40196A11DB11D05C026E855
:100C0000230F0296A11DB11D20931302809325028C
:100C100090932602A0932702B09328028091140299
:100C200090911502A0911602B09117020196A11D94
:100C3000B11D8093140290931502A0931602B093F5
:100C40001702BF91AF919F918F913F912F910F907C
:100C50000FBE0F901F9018951F920F920FB60F9214
:100C600011242F933F934F935F936F937F938F93B1
:100C70009F93AF93BF93EF93FF938091B900887FC9
:100C8000803609F49CC068F5883209F45BC090F4A2
:100C9000803109F454C038F4882309F4F6C0883050
:100CA00009F44DC0F6C0883109F44CC0803209F413
:100CB0005DC0EFC0803409F468C048F4803309F4A3
:100CC00055C0883309F0E5C08093EF01D8C0803566
:100CD00009F44FC0883509F45DC0883409F0D9C0E3
:100CE000D6C0883909F4C7C0A8F4883709F467C0AA
:100CF00038F4883609F463C0803709F460C0C9C08D
:100D0000883809F4B8C0803909F45FC0803809F028
:100D1000C0C05BC0803B09F486C038F4803A09F457
:100D200066C0883A09F47FC0B4C0803C09F4A7C00B
:100D3000883C09F4A4C0883B09F48AC0AAC0809109
:100D4000120210C09091110280911002981770F554
:100D5000E091110281E08E0F80931102F0E0E051EA
:100D6000FE4F80818093BB0085EC86C08093EF01AD
:100D70008EC0E091110281E08E0F8093110280916C
:100D8000BB00F0E0E051FE4F808390911102809112
:100D900010026EC0E091110281E08E0F809311026B
:100DA0008091BB00F0E0E051FE4F808380911902FA
:100DB00081116DC081E08093180284EA61C083E0F4
:100DC00080931A021092EE01CFCF8091EE01803213
:100DD00008F051C0E091EE0181E08E0F8093EE01AA
:100DE0008091BB00F0E0E253FE4F8083BDCF85ECE5
:100DF0008093BC0010921A028091EE01803230F490
:100E0000E091EE01F0E0E253FE4F10826091EE01BE
:100E100070E0E0911F02F09120028EEC91E00995C4
:100E20001092EE0136C084E080931A021092CD0138
:100E30001092CC01E0912102F0912202099580915B
:100E4000CC01811105C081E08093CC011092AC01EE
:100E5000E091CD0181E08E0F8093CD01F0E0E4556B
:100E6000FE4F80818093BB009091CD018091CC0199
:100E7000981708F479CF85E88093BC000AC085EC08
:100E80008093BC0010921A0204C01092EF010E94DD
:100E90001203FF91EF91BF91AF919F918F917F913D
:100EA0006F915F914F913F912F910F900FBE0F90D7
:100EB0001F901895EEEDF2E01382128248EE53E097
:100EC00060E070E0448355836683778384E291E039
:100ED0009183808385EC90E09587848784EC90E013
:100EE0009787868780EC90E0918B808B81EC90E0F7
:100EF000938B828B82EC90E0958B848B86EC90E0D8
:100F0000978B868B118E128E138E148EAAE8B2E008
:100F100016961D921D921D921C9219971A961D925B
:100F20001D921D921C921D971E961D921D921D9240
:100F30001C92519752961D921D921D921C9255978C
:100F4000A2EDB2E013961C921E92129714964D9346
:100F50005D936D937C93179786E391E08D939C93BB
:100F6000F0937C03E0937B030895789484B58260CA
:100F700084BD84B5816084BD85B5826085BD85B53D
:100F8000816085BD80916E00816080936E001092BB
:100F90008100809181008260809381008091810036
:100FA00081608093810080918000816080938000C7
:100FB0008091B10084608093B1008091B000816025
:100FC0008093B00080917A00846080937A00809151
:100FD0007A00826080937A0080917A0081608093A9
:100FE0007A0080917A00806880937A001092C10024
:100FF0001092CE021092CF021092D0021092D10223
:1010000010928C0210928D0210928E0210928F021A
:1010100068EB7BE080E090E00E94D4008EED92E0EF
:101020009093CD028093CC020E948D002FB7F8944C
:101030008091250290912602A0912702B09128026A
:101040002FBF80938C0290938D02A0938E02B09359
:101050008F0269E471E08091CC029091CD020E94F0
:10106000FA036AE070E080E090E00E94D40091E032
:101070009093A00280918100887F8160809381009D
:101080008091B100887F81608093B1008AE880936D
:10109000BA0022E331E030932202209321022EE3B2
:1010A00031E03093200220931F0210921E02109212
:1010B0001D0210921C0210921B0210921A029093B1
:1010C00019021092180261E082E10E94430261E07D
:1010D00083E10E9443028091B9008E7F8093B90022
:1010E0008091B9008D7F8093B90088E48093B80027
:1010F00085E48093BC008FE695E090932402809372
:10110000230260E082E10E94430260E083E10E94EA
:1011100043020E948D0080E10E94B50081E10E949F
:10112000B5008EE00E94B5008FE00E94B50087E018
:101130000E94B50088E00E94B5008CE00E94B500D6
:101140008DE00E94B50083E00E94B50089E00E9416
:10115000B5008AE00E94B5008BE00E94B5000091C6
:10116000290210912A02C0912B02D0912C0217FF64
:101170000BC061E070E085E090E00E9499038BE590
:1011800091E00E940F0413C00115110519F464E0E9
:1011900070E009C01016110654F483E691E00E9435
:1011A0000F0460E070E085E090E00E949903D7FFB3
:1011B0000BC061E070E086E090E00E9499038BE54F
:1011C00091E00E940F0412C0209719F464E070E0CF
:1011D00009C01C161D0654F483E691E00E940F041A
:1011E00060E070E086E090E00E94990317FF03C082
:1011F000119501951109B80183E00E948F02B80191
:1012000089E00E948F02D7FF03C0D195C195D10913
:10121000BE018AE00E948F02BE018BE00E948F0215
:101220000E94ED024B015C0188ECC82ED12CE12C10
:10123000F12C0E94ED02DC01CB0188199909AA0961
:10124000BB09883E9340A105B10558F021E0C21AC0
:10125000D108E108F10888EE880E83E0981EA11CF1
:10126000B11CC114D104E104F10419F74091290221
:1012700050912A02052E000C660B770B77FF05C0F4
:10128000CB01BA010E946B0405C02AE08EED92E00A
:101290000E9422046BE671E08EED92E00E94FA0358
:1012A00040912B0250912C02052E000C660B770BFF
:1012B00077FF05C0CB01BA010E946B0405C02AE08C
:1012C0008EED92E00E94220468E571E08EED92E0DE
:1012D0000E94FA030E94390242CF91110C947609C0
:1012E000803219F089508550C8F7089599278827CA
:1012F0000895A1E21A2EAA1BBB1BFD010DC0AA1F57
:10130000BB1FEE1FFF1FA217B307E407F50720F06E
:10131000A21BB30BE40BF50B661F771F881F991FE9
:101320001A9469F760957095809590959B01AC0132
:10133000BD01CF0108952F923F924F925F926F921D
:101340007F928F929F92AF92BF92CF92DF92EF9255
:10135000FF920F931F93CF93DF93CDB7DEB7CA1BD6
:10136000DB0B0FB6F894DEBF0FBECDBF09942A8801
:10137000398848885F846E847D848C849B84AA84A9
:10138000B984C884DF80EE80FD800C811B81AA8136
:10139000B981CE0FD11D0FB6F894DEBF0FBECDBF01
:1013A000ED010895EE0FFF1F0590F491E02D0994D3
:1013B00081E090E0F8940C94140DFB01DC014150A5
:1013C000504030F08D910190801919F40020B9F748
:1013D000881B990B0895AEE0B0E0E1EFF9E00C94C2
:1013E000AB0985E08C838B899C899A838983AE01C4
:1013F000495E5F4F6D897E89CE0101960E94840B04
:101400002E96E2E00C94C70920FD09C0FC0123FDE3
:1014100005C022FF02C07383628351834083089515
:1014200044FD10C046FD10C0DB01FC01AA0FBB1F2C
:10143000EE1FFF1F1094D1F76A0F7B1F8E1F9F1F97
:1014400031E003C033E001C034E0660F771F881F2E
:10145000991F3150D1F7620F711D811D911D0895A3
:101460000F931F93CF93DF938C01C8010E94BD0C93
:10147000EC0197FD08C00E946D09892BB1F7B801F6
:10148000CE010E94FB0CCE01DF91CF911F910F91F5
:101490000895A1E0B0E0EFE4FAE00C94A1098C011A
:1014A000C62E7A0129830E94BD0CAC0155272981E3
:1014B0004B32510521F04D32510569F42068CA9430
:1014C000C11002C080E076C0C80129830E94BD0C13
:1014D000298197FDF7CF322F3D7FD32E322F3073E6
:1014E00049F5803339F5BB24BA94BC0C09F44EC0DD
:1014F000C80129830E94BD0C298197FD47C0382F60
:101500003F7D383569F48D2D8264D82ECA94CA94F3
:10151000CC20E1F1C8010E94BD0C97FF0BC036C082
:1015200026FF04C02D2D2260D22E03C03D2D326136
:10153000D32ECB2C812C912C540120ED280F283058
:1015400080F0D4FE04C0B8010E94FB0C1CC02A30FD
:1015500040F0D6FEF8CF2F7D3FEE320F363098F7B1
:1015600027504D2DC501B4010E94100A4B015C01AA
:101570008D2D8260D82ECA94CC2059F0C8010E94CB
:10158000BD0C97FFDACFD1FC04C09CCF812C912CED
:101590005401D7FE08C0B094A09490948094811C0C
:1015A000911CA11CB11C2D2DB501A401C7010E94E5
:1015B000040A81E02196ECE00C94BD09A1E2B0E0C0
:1015C000E4EEFAE00C949F095C017A01CE010196E9
:1015D0006C0180E2F60111928A95E9F7F5018380AA
:1015E00040E050E0912C712C70E0A1E0B0E0F901F6
:1015F00083FC859183FE81918F01982F9F0181113A
:1016000003C080E090E07CC08E3519F4411551058F
:1016100049F1E72FF0E0E417F5073CF48D3559F177
:101620008D3219F4772001F103C0711001C0982E9A
:10163000892F8695869586958601080F111D892F1D
:1016400087703D0101C0660C8A95EAF7F801808138
:1016500086298083991559F0991510F49F5FE8CF7A
:101660009150E6CF71E004C07724739401C0712CCF
:101670004F5F5F4FBCCF772019F08E8180628E83E1
:10168000711103C09924939416C0F6019E012F5D39
:101690003F4F808180958193E217F307D1F7F2CF16
:1016A000E114F10429F0F7018083C70101967C0160
:1016B0006150912CF9F0C50169A30E94BD0C69A18C
:1016C00097FD16C0282F269526952695F601E20F40
:1016D000F11D208130E0AC014770552702C03595DF
:1016E00027954A95E2F720FDDBCFB5010E94FB0C60
:1016F000911087CFE114F10411F0F7011082C801B5
:10170000A196EEE00C94BB094F925F927F928F926C
:101710009F92AF92BF92CF92DF92EF92FF920F9380
:101720001F93CF93DF931F92CDB7DEB76C012B01D0
:101730005A01FC0117821682712CF601F380F20126
:10174000F3FC8591F3FE8191382F2F01882309F452
:10175000F3C090E039830E946D093981892B21F013
:10176000C6010E94300AE9CF353241F4F201F3FCA0
:101770003591F3FE31912F01353269F4C601398379
:101780000E94BD0C398197FDD5C03817B1F2B60162
:101790000E94FB0CD1C03A3239F4F3FC3591F3FED0
:1017A00031912F0151E001C050E0420110E020EDE5
:1017B000230F2A3090F45260612F70E080E090E0B7
:1017C00040E259830E94100A162FF401F3FC359170
:1017D000F3FE31914F015981EACF052F232F2401C8
:1017E00051FF03C0111102C0A7C01FEF383619F016
:1017F0003C3659F011C0F401F3FC2591F3FE219120
:101800002F01283649F4052F08600460F201F3FC2B
:101810002591F3FE21912F01222309F48DC0622F1F
:1018200070E088E690E029830E94B20C2981892B20
:1018300009F482C000FD07C0F501E080F180C50118
:1018400002965C0102C0E12CF12C2E3651F4F60117
:101850004681578160E070E0202FC7010E94040A92
:101860006CCF233691F401FF11E0C6010E94BD0C3C
:1018700097FD60C0E114F10429F0F7018083C701EE
:1018800001967C01115089F751C02B3559F4920112
:10189000A701612FC6010E94DE0A2C01892B09F0E5
:1018A00045C03FC0C60129830E94300A298197FDA7
:1018B00041C02F3659F128F4243631F1293649F147
:1018C00027C0233769F02537F9F022C0E114F1046D
:1018D00029F0F7018082C70101967C01115071F057
:1018E000C6010E94BD0C4C0197FD08C00E946D0905
:1018F000892B61F3B601C4010E94FB0CE114F104D1
:10190000A9F0F701108212C0006203C0006101C09B
:101910000064202FA701612FC6010E94490A81118E
:1019200005C0F6018381807329F406C000FD05CF50
:10193000739403CF772019F0872D90E002C08FEFCA
:101940009FEF0F90DF91CF911F910F91FF90EF903C
:10195000DF90CF90BF90AF909F908F907F905F90DF
:101960004F900895FC010590061621F00020D9F74C
:10197000C00108953197CF010895CF93DF93EC0113
:101980002B8120FF33C026FF0AC02F7B2B838E8143
:101990009F8101969F838E838A8190E029C022FFD8
:1019A0000FC0E881F9818081082E000C990B009707
:1019B00019F420622B831AC03196F983E8830EC094
:1019C000EA85FB85099597FF09C02B81019611F0E7
:1019D00080E201C080E1822B8B8308C02E813F8191
:1019E0002F5F3F4F3F832E83992702C08FEF9FEFDA
:1019F000DF91CF910895FB01238120FF12C026FDC6
:101A000010C08F3F3FEF930761F082832F7D2064EA
:101A100023832681378121503109378326839927F3
:0C1A200008958FEF9FEF0895F894FFCF1A
:101A2C006D01010771010B0775010B0779010B079C
:101A3C007D010B07810101078501010700000000F2
:101A4C0000000000D001070168011702990177011D
:101A5C008B010000000084037003960344036803A9
:101A6C00540345032564256400564D4450565F319C
:101A7C007C315F564D4450560D0A005265766572A6
:101A8C00736500466F727761726400200041524D9D
:101A9C00004D54520053525600554C540049525369
:0A1AAC000044475400414E4C000076
:107800000C94343C0C94513C0C94513C0C94513CE1
:107810000C94513C0C94513C0C94513C0C94513CB4
:107820000C94513C0C94513C0C94513C0C94513CA4
:107830000C94513C0C94513C0C94513C0C94513C94
:107840000C94513C0C94513C0C94513C0C94513C84
:107850000C94513C0C94513C0C94513C0C94513C74
:107860000C94513C0C94513C11241FBECFEFD8E036
:10787000DEBFCDBF11E0A0E0B1E0ECE9FFE702C060
:1078800005900D92A230B107D9F712E0A2E0B1E065
:1078900001C01D92AD30B107E1F70E942D3D0C945F
:1078A000CC3F0C94003C982F959595959595959582
:1078B000905D8F708A307CF0282F295A8091C0000B
:1078C00085FFFCCF9093C6008091C00085FFFCCF60
:1078D0002093C6000895282F205DF0CF982F809127
:1078E000C00085FFFCCF9093C6000895EF92FF92F1
:1078F0000F931F93EE24FF2487018091C00087FD22
:1079000017C00894E11CF11C011D111D81E4E8164B
:1079100082E4F8068FE0080780E0180770F3E09132
:107920000401F091050109958091C00087FFE9CF1E
:107930008091C6001F910F91FF90EF9008950E94D3
:10794000763C982F8091C00085FFFCCF9093C600B5
:1079500091362CF490330CF09053892F089597555D
:10796000892F08951F930E949F3C182F0E949F3CCF
:107970001295107F810F1F9108951F93182F882350
:1079800021F00E94763C1150E1F71F9108951F935A
:10799000182F0E94763C803249F0809103018F5F5E
:1079A000809303018530C1F01F9108958091C0003C
:1079B00085FFFCCF84E18093C6008091C00085FFE5
:1079C000FCCF1093C6008091C00085FFFCCF80E102
:1079D0008093C6001F910895E0910401F091050184
:1079E00009951F9108950E94763C803241F0809164
:1079F00003018F5F80930301853081F008958091AA
:107A0000C00085FFFCCF84E18093C6008091C00058
:107A100085FFFCCF80E18093C6000895E0910401CA
:107A2000F09105010995089540E951E08823A1F0FE
:107A30002D9A28EE33E0FA013197F1F721503040CA
:107A4000D1F72D9828EE33E0FA013197F1F7215064
:107A50003040D1F7815061F708953F924F925F9285
:107A60006F927F928F929F92AF92BF92CF92DF924E
:107A7000EF92FF920F931F93CF93DF93000080E16B
:107A80008093C4001092C50088E18093C10086E015
:107A90008093C2005098589A259A81E00E94143D24
:107AA00024E1F22E9EE1E92E85E9D82E0FE0C02ECA
:107AB00010E1B12EAA24A394B1E49B2EA6E58A2E50
:107AC000F2E57F2EE0E26E2E79E4572E63E5462E36
:107AD00050E5352E0E94763C8033B1F18133B9F107
:107AE000803409F46FC0813409F476C0823409F41B
:107AF00085C0853409F488C0803531F1823521F1A3
:107B0000813511F1853509F485C0863509F48DC0BC
:107B1000843609F496C0843709F403C1853709F423
:107B200072C1863709F466C0809103018F5F80932C
:107B30000301853079F6E0910401F0910501099582
:107B40000E94763C803351F60E94F33CC3CF0E94E2
:107B5000763C803249F78091C00085FFFCCFF092DF
:107B6000C6008091C00085FFFCCF9092C600809136
:107B7000C00085FFFCCF8092C6008091C00085FFC9
:107B8000FCCF7092C6008091C00085FFFCCF609250
:107B9000C6008091C00085FFFCCF5092C600809146
:107BA000C00085FFFCCF4092C6008091C00085FFD9
:107BB000FCCF3092C6008091C00085FFFCCFB09210
:107BC000C60088CF0E94763C863808F4BDCF0E945C
:107BD000763C0E94F33C7ECF0E94763C803809F4CC
:107BE0009CC0813809F40BC1823809F43CC1883942
:107BF00009F48FC080E00E94C73C6CCF84E10E94F2
:107C0000BD3C0E94F33C66CF85E00E94BD3C0E94D3
:107C1000F33C60CF0E94763C809306010E94763C44
:107C2000809307010E94F33C55CF0E94763C80333D
:107C300009F41DC183E00E94BD3C80E00E94C73C66
:107C400049CF0E94763C809309020E94763C809343
:107C5000080280910C028E7F80930C020E94763C79
:107C6000853409F415C18091080290910902892B8D
:107C700089F000E010E00E94763CF801E85FFE4FDA
:107C800080830F5F1F4F80910802909109020817AF
:107C9000190788F30E94763C803209F045CF809125
:107CA0000C0280FF01C16091060170910701660F0F
:107CB000771F7093070160930601A0910802B091AD
:107CC00009021097C9F0E8E0F1E09B01AD014E0F09
:107CD0005F1FF999FECF32BD21BD819180BDFA9A17
:107CE000F99A2F5F3F4FE417F50799F76A0F7B1F4B
:107CF00070930701609306018091C00085FFFCCF5F
:107D0000F092C6008091C00085FFFCCFB092C60003
:107D1000E1CE83E00E94C73CDDCE82E00E94C73CFA
:107D2000D9CE0E94763C809309020E94763C8093D3
:107D300008028091060190910701880F991F909386
:107D40000701809306010E94763C853409F4A6C0A1
:107D500080910C028E7F80930C020E94763C8032D0
:107D600009F0B8CE8091C00085FFFCCFF092C6002C
:107D7000609108027091090261157105B9F140E046
:107D800050E080910C02A82FA170B82FB27011C0E2
:107D9000BB2309F45CC0E0910601F0910701319624
:107DA000F0930701E09306014F5F5F4F46175707B7
:107DB000E8F4AA2369F3F999FECF209106013091E6
:107DC000070132BD21BDF89A90B58091C00085FFB2
:107DD000FCCF9093C6002F5F3F4F30930701209355
:107DE00006014F5F5F4F4617570718F38091C00099
:107DF00085FDE5CE8091C00085FFF8CFE0CE81E023
:107E00000E94C73C67CE0E94763C803209F08CCE3F
:107E10008091C00085FFFCCFF092C6008091C00029
:107E200085FFFCCFE092C6008091C00085FFFCCFAB
:107E3000D092C6008091C00085FFFCCFC092C600E2
:107E40008091C00085FFFCCFB092C60043CEE09188
:107E50000601F091070194918091C00085FFFCCF4D
:107E60009093C6009CCF80E10E94C73C33CE0E9415
:107E7000763C0E94763C182F0E94763C112309F430
:107E800083C0113009F484C08FE00E94C73C22CE29
:107E900080910C02816080930C02E5CE80910C02EF
:107EA000816080930C0259CF809107018823880F4D
:107EB000880B8A2180930B02809106019091070123
:107EC000880F991F90930701809306018091080203
:107ED00080FF09C080910802909109020196909359
:107EE000090280930802F894F999FECF1127E091D6
:107EF0000601F0910701C8E0D1E08091080290915D
:107F00000902103091F40091570001700130D9F34B
:107F100003E000935700E89500915700017001308D
:107F2000D9F301E100935700E89509901990009169
:107F3000570001700130D9F301E000935700E89534
:107F40001395103498F011270091570001700130FB
:107F5000D9F305E000935700E895009157000170B0
:107F60000130D9F301E100935700E895329602976A
:107F700009F0C7CF103011F00296E5CF112480919F
:107F8000C00085FFB9CEBCCE8EE10E94C73CA2CD19
:0C7F900085E90E94C73C9ECDF894FFCF0D
:027F9C00800063
:040000030000780081
:00000001FF