:100000000C945B000C9483000C9483000C9483008C
:100010000C9483000C9483000C9483000C94830054
:100020000C9483000C9483000C9483000C94830044
:100030000C9483000C9483000C9483000C94830034
:100040000C94B2050C9483000C9444080C9476082C
:100050000C9483000C9483000C9483000C94830014
:100060000C9424020C94830000000008000201009C
:100070000003040700000000000000000102040863
:100080001020408001020408102001020408102002
:10009000040404040404040402020202020203032E
:1000A0000303030300000000250028002B00DC00F0
:1000B000CB019105A60811241FBECFEFD8E0DEBF0B
:1000C000CDBF12E0A0E0B1E0E4E9F9E102C00590A3
:1000D0000D92AC36B107D9F724E0ACE6B2E001C02E
:1000E0001D92A336B207E1F710E0C6EBD0E004C0E2
:1000F0002297FE010E94D709CE3AD107C9F70E9484
:10010000EA080C94C80C0C94000048EB5BE060E03B
:1001100070E085E793E00E94DA0420E835E240E0F1
:1001200050E066EC73E085E793E00E94EE0461E046
:1001300085E793E00E94A4048823A1F061E071E0C8
:100140008091B7039091B8030E9437094AE050E0CC
:1001500060E070E085E793E00E94A10485E793E00A
:100160000E94D90441E060E085E793E00E947505B4
:1001700080918100887F8160809381008091B100AF
:10018000887F81608093B10026E040E855E260E01E
:1001900070E086EC93E00E94E20765E68CE692E070
:1001A0000C9451038CE692E00E945D0368EE73E0CC
:1001B00080E090E00C942B0686EC93E090936D0227
:1001C00080936C0208958091A10290E02091A20298
:1001D000821B910908952091A2028091A102281703
:1001E00050F4E22FF0E0ED55FD4F808190E02F5F5D
:1001F0002093A20208958FEF9FEF0895E091A2024D
:100200008091A102E81730F4F0E0ED55FD4F8081B8
:1002100090E008958FEF9FEF08950895E0917A029E
:10022000F0917B023097E1F03091A2022091A1027F
:100230003217B0F040E0242F30E02617370754F48F
:10024000DC01A20FB31F5C91D901AD55BD4F5C938A
:100250004F5FF1CF1092A2026093A102CB010994EB
:100260000895E0917C02F0917D02309729F0109280
:10027000800210927F0209940895CF92DF92EF924C
:10028000FF920F931F93CF93DF937C01CB018A01E1
:1002900020917E02222389F0EB016B01C40ED51E52
:1002A000CC15DD0569F06991D701ED91FC910190C4
:1002B000F081E02DC7010995F3CF642F0E94F10171
:1002C000C801DF91CF911F910F91FF90EF90DF90C8
:1002D000CF900895CF93DF931F92CDB7DEB7698398
:1002E00020917E022223D1F020917F02203240F023
:1002F00021E030E0FC013383228380E090E015C0F0
:1003000080918002E82FF0E0EF57FD4F99819083B4
:100310008F5F8093800280937F0205C061E0CE01F1
:1003200001960E94F10181E090E00F90DF91CF9162
:100330000895FC011382128248EE53E060E070E001
:10034000448355836683778387E191E0918380833B
:1003500008951092A2021092A102109280021092AF
:100360007F020C94CF01CF93DF93EC01862F0E9484
:10037000ED0181E391E00E940F028EE091E00E9486
:100380000A02CE01DF91CF910C94A90170937B02F8
:1003900060937A0208958EE692E00C94990110928F
:1003A000300381E080932E0310922D0361E082E1FF
:1003B0000E94C90661E083E10E94C906E9EBF0E012
:1003C00080818E7F808380818D7F808388E480938D
:1003D000B80085E48093BC000895880F8093BA002C
:1003E0000895613298F420913003243089F46093A9
:1003F000E502FC0187EE92E0DC012A2F281B26177C
:1004000018F421912D93F9CF80E0089581E00895AB
:1004100082E0089590932A0380932903089590938E
:100420002C0380932B03089585ED8093BC0080916D
:10043000BC0084FDFCCF10923003089585EC8093BE
:10044000BC001092300308951F920F920FB60F92C6
:1004500011242F933F934F935F936F937F938F93C9
:100460009F93AF93BF93EF93FF938091B900887FE1
:10047000803609F49EC078F5883209F45DC090F4A6
:10048000803109F456C038F4882309F4F5C0883067
:1004900009F44FC0F5C0883109F44EC0803209F428
:1004A0005FC0EEC0803409F46AC058F4803309F4A8
:1004B00057C0883309F0E4C08093C3020E941E0233
:1004C000DFC0803509F44FC0883509F45DC0883439
:1004D00009F0D6C0D3C0883909F4C4C0A8F488375D
:1004E00009F467C038F4883609F463C0803709F42A
:1004F00060C0C6C0883809F4B5C0803909F45FC04F
:10050000803809F0BDC05BC0803B09F483C038F47B
:10051000803A09F466C0883A09F47CC0B1C0803CD6
:1005200009F4A4C0883C09F4A1C0883B09F487C041
:10053000A7C080912F0310C09091080380910703FA
:10054000981770F5E091080381E08E0F80930803FF
:10055000F0E0E75FFC4F80818093BB0085EC83C0B7
:100560008093C3028BC0E091080381E08E0F8093DB
:1005700008038091BB00F0E0E75FFC4F808390911F
:100580000803809107036BC0E091080381E08E0FA0
:10059000809308038091BB00F0E0E75FFC4F80830D
:1005A00080912E0381116AC081E080932D0384EA3B
:1005B0005EC083E0809330031092C402CFCF80915D
:1005C000C402803208F04EC0E091C40281E08E0F78
:1005D0008093C4028091BB00F0E0EB53FD4F808319
:1005E000BDCF0E941E028091C402803230F4E0919F
:1005F000C402F0E0EB53FD4F10826091C40270E042
:10060000E0912903F0912A0385EC92E0099510927C
:10061000C40236C084E0809330031092E602109248
:10062000E502E0912B03F0912C0309958091E502FE
:10063000811105C081E08093E5021092E702E0910C
:10064000E60281E08E0F8093E602F0E0E951FD4F73
:1006500080818093BB009091E6028091E50298171B
:1006600008F47CCF85E88093BC000AC085EC8093B9
:10067000BC001092300304C01092C3020E94140206
:10068000FF91EF91BF91AF919F918F917F916F916A
:100690005F914F913F912F910F900FBE0F901F9040
:1006A0001895609333038EE692E00E94B3016EE2E8
:1006B00074E08EE692E00C94C601BF92CF92DF9276
:1006C000EF92FF920F931F93CF93DF93CDB7DEB7D7
:1006D000A1970FB6F894DEBF0FBECDBF8C018091FD
:1006E0003403882309F4AAC01092340365E373E04D
:1006F000D8018D919C910E943D09E5E3F3E00190C2
:100700000020E9F73197E553F340E53018F463E250
:1007100071E08FC0B09035038BECC82E81E0D82EED
:10072000E12CF12CD6016D917C916115710591F050
:10073000DB010D900020E9F7AD0141505109461B46
:10074000570B87E393E00E94DB09B3E0CB0ED11C8B
:10075000892B29F480913303B81205C00EC0EFEF46
:10076000EE1AFE0ADFCF80910001882309F466C0EB
:1007700068E371E086EC93E05FC0B1E0EB16F10452
:1007800031F0E3E0EE16F10409F447C050C0809167
:100790000001882339F068E471E0D8018D919C91C3
:1007A0000E943D098AE393E09F938F9380E691E056
:1007B0009F938F931F9289E08F93FE0131967F0163
:1007C000FF92EF930E94E909F70101900020E9F7F9
:1007D00039970FB6F894DEBF0FBECDBFEE15FF05FB
:1007E000A9F481E2F701A5E5B3E001900D928A95A5
:1007F000E1F781E2D7011D928A95E9F780E2E5E30E
:10080000F3E0DF011D928A95E9F718C0809100019D
:100810008823A1F063E671E00CC080910001882379
:1008200069F06FE771E0D8018D919C9105C06DE989
:1008300071E0F801808191810E943D09A1960FB677
:10084000F894DEBF0FBECDBFDF91CF911F910F9106
:10085000FF90EF90DF90CF90BF900895FF920F939D
:100860001F93CF93DF9311E0C5E3D3E000E29FE154
:10087000F92E8EE692E00E94E30018161906A4F500
:1008800080913403811130C08EE692E00E94EB002B
:10089000909132039923F1F08B37F1F0E09131031D
:1008A0008D3769F0AE2FB0E0AB5CBC4F8C93EF5F3F
:1008B000E0933103E032E8F2F0923103DACFF0E076
:1008C000EB5CFC4F108210923203109231031093B4
:1008D0003403CFCF8B3769F610933203FE01802F9C
:1008E00011928A95E9F7C5CFDF91CF911F910F91B2
:1008F000FF9008958F929F92AF92BF92CF92DF9216
:10090000EF92FF926A017B010E94FC054B015C01A2
:10091000C60ED71EE81EF91E0E94FC056815790553
:100920008A059B0528F0C616D706E806F906A0F743
:10093000FF90EF90DF90CF90BF90AF909F908F90FF
:10094000089521E00C947A04CF92DF92EF92FF9207
:10095000CF93DF93EC0161111EC00E94FC05CA8099
:10096000DB80EC80FD806C197D098E099F09613266
:1009700071058105910578F421E2C22ED12CE12C7C
:10098000F12CC61AD70AE80AF90A21E0B701A60134
:10099000CE010E947A040E94FC056A837B838C83CB
:1009A0009D8381E0DF91CF91FF90EF90DF90CF901A
:1009B00008950895FC01EC5BFF4F108211821282B2
:1009C0001382FC0112821382148215824115510593
:1009D0006105710511F00C94A1040895FB01BA01A1
:1009E000A9018E5B9F4FDC01ED93FC9326E0CF01C4
:1009F0000C94E2078E5B9F4FDC018D919C91DC0192
:100A0000ED91FC910680F781E02D099508958E5BAC
:100A10009F4FDC018D919C91DC01ED91FC91048054
:100A2000F581E02D09950895FF920F931F93CF93C1
:100A3000DF93EC01F62E0E94FC056A837B838C8396
:100A40009D838E010E5B1F4F65EF71E0F801808181
:100A500091810E9437094AE050E06F2DF8018081B2
:100A600091810E94AB096CEF71E0F8018081918166
:100A70000E94370942E350E060E070E0CE01DF9170
:100A8000CF911F910F91FF900C94A1041F93CF93CE
:100A9000DF93EC01162F8E89882311F1CE010E947D
:100AA0000705811102C085E61CC0CE010E94070522
:100AB0008823C9F3CE010E94FA04883689F048F4ED
:100AC000883569F0833689F7612FCE010E941405BD
:100AD00007C0813729F0863741F786E702C01E8AB2
:100AE00083E6DF91CF911F9108951F93CF93DF93FA
:100AF000EC01142F611105C01E8BDF91CF911F9166
:100B0000089581E08E8B60E0CE010E944605833619
:100B100099F341E050E060E070E0CE010E94A10452
:100B2000F2CF10927B0310927C0310927D031092FF
:100B30007E0310927F031092800310928103109223
:100B40008203109283031092840310928503109203
:100B500086031092870310928803109289031092E3
:100B60008A0308951F920F920FB60F9211242F93AC
:100B70003F938F939F93AF93BF938091BE039091C8
:100B8000BF03A091C003B091C1033091BD0323E026
:100B9000230F2D3720F40196A11DB11D05C026E8B5
:100BA000230F0296A11DB11D2093BD038093BE03A8
:100BB0009093BF03A093C003B093C1038091C2037D
:100BC0009091C303A091C403B091C5030196A11DE8
:100BD000B11D8093C2039093C303A093C403B09349
:100BE000C503BF91AF919F918F913F912F910F902E
:100BF0000FBE0F901F9018952FB7F8946091BE0309
:100C00007091BF038091C0039091C1032FBF0895DD
:100C10003FB7F8948091C2039091C303A091C4039D
:100C2000B091C50326B5A89B05C02F3F19F00196CA
:100C3000A11DB11D3FBF6627782F892F9A2F620F04
:100C4000711D811D911D42E0660F771F881F991F3E
:100C50004A95D1F708958F929F92AF92BF92CF920B
:100C6000DF92EF92FF926B017C010E9408064B011C
:100C70005C01C114D104E104F104F1F00E94B20955
:100C80000E940806681979098A099B09683E734021
:100C90008105910570F321E0C21AD108E108F1083D
:100CA00088EE880E83E0981EA11CB11CC114D104EB
:100CB000E104F10429F7DDCFFF90EF90DF90CF90B2
:100CC000BF90AF909F908F900895789484B5826084
:100CD00084BD84B5816084BD85B5826085BD85B5E0
:100CE000816085BDEEE6F0E0808181608083E1E88F
:100CF000F0E01082808182608083808181608083C7
:100D0000E0E8F0E0808181608083E1EBF0E08081C9
:100D100084608083E0EBF0E0808181608083EAE79B
:100D2000F0E0808184608083808182608083808124
:100D3000816080838081806880831092C1000895E3
:100D4000833081F028F4813099F08230A1F0089549
:100D50008730A9F08830B9F08430D1F480918000D8
:100D60008F7D03C0809180008F77809380000895ED
:100D700084B58F7702C084B58F7D84BD089580913E
:100D8000B0008F7703C08091B0008F7D8093B0005A
:100D900008950F931F93CF93DF931F92CDB7DEB7C4
:100DA000282F30E0F901E859FF4F8491F901E45808
:100DB000FF4F1491F901E057FF4F04910023C9F050
:100DC000882321F069830E94A0066981E02FF0E06A
:100DD000EE0FFF1FEC55FF4FA591B4919FB7F8940C
:100DE0008C91611103C01095812301C0812B8C93DC
:100DF0009FBF0F90DF91CF911F910F910895FC013C
:100E0000818D228D90E0805C9F4F821B91098F73B2
:100E100099270895FC01918D828D981731F0828D6C
:100E2000E80FF11D858D90E008958FEF9FEF0895F5
:100E3000FC01918D828D981761F0828DDF01A80FE2
:100E4000B11D5D968C91928D9F5F9F73928F90E004
:100E500008958FEF9FEF08958CE998E0892B49F072
:100E600080E090E0892B29F00E949C0881110C946D
:100E700000000895FC01848DDF01A80FB11DA35A65
:100E8000BF4F2C91848D90E001968F739927848FAA
:100E9000A689B7892C93A089B1898C9180648C93A1
:100EA000938D848D981306C00288F389E02D80818C
:100EB0008F7D80830895CF93DF93EC01888D882305
:100EC000C9F0EA89FB89808185FD05C0A889B989B7
:100ED0008C9186FD0FC00FB607FCF5CF808185FF92
:100EE000F2CFA889B9898C9185FFEDCFCE010E9400
:100EF0003A07E7CFDF91CF910895CF92DF92FF922B
:100F00000F931F93CF93DF931F92CDB7DEB76C0182
:100F100081E0D60158968C9358975B969C915B978D
:100F20005C968C915C97981307C05096ED91FC915C
:100F30005197808185FD2EC0F601038D10E00F5F73
:100F40001F4F0F731127F02EF601848DF81211C078
:100F50000FB607FCF9CFD6015096ED91FC91519751
:100F6000808185FFF1CFC60169830E943A076981BC
:100F7000EBCF838DE80FF11DE35AFF4F6083D6015D
:100F80005B960C935B975296ED91FC915397808101
:100F900080620CC0D6015696ED91FC915797608304
:100FA0005096ED91FC91519780818064808381E01F
:100FB00090E00F90DF91CF911F910F91FF90DF9004
:100FC000CF900895BF92CF92DF92EF92FF92CF938E
:100FD000DF93EC016A017B01B22EE889F98982E096
:100FE0008083411581EE580761057105A1F060E02D
:100FF00079E08DE390E0A70196010E94B3092150AA
:10100000310941095109569547953795279521157D
:1010100080E1380798F0E889F989108260E874E87F
:101020008EE190E0A70196010E94B3092150310999
:10103000410951095695479537952795EC85FD85CA
:101040003083EE85FF852083188EEC89FD89B08280
:10105000EA89FB89808180618083EA89FB898081BC
:1010600088608083EA89FB89808180688083EA893F
:10107000FB8980818F7D8083DF91CF91FF90EF90FE
:10108000DF90CF90BF9008951F920F920FB60F92EE
:1010900011242F938F939F93EF93FF93E091D603A7
:1010A000F091D7038081E091DC03F091DD0382FDB4
:1010B00012C090818091DF038F5F8F732091E003D6
:1010C000821751F0E091DF03F0E0EA53FC4F958F77
:1010D0008093DF0301C08081FF91EF919F918F91F9
:1010E0002F910F900FBE0F901F9018951F920F9287
:1010F0000FB60F9211242F933F934F935F936F93EB
:101100007F938F939F93AF93BF93EF93FF9386EC5F
:1011100093E00E943A07FF91EF91BF91AF919F91A9
:101120008F917F916F915F914F913F912F910F9090
:101130000FBE0F901F90189586EC93E00E94FF065B
:1011400021E0892B09F420E0822F08951092C90331
:101150001092C80388EE93E0A0E0B0E08093CA0349
:101160009093CB03A093CC03B093CD0381E592E0A1
:101170009093C7038093C60385EC90E09093D303CC
:101180008093D20384EC90E09093D5038093D403B2
:1011900080EC90E09093D7038093D60381EC90E0AD
:1011A0009093D9038093D80382EC90E09093DB0373
:1011B0008093DA0386EC90E09093DD038093DC0368
:1011C0001092DF031092E0031092E1031092E20309
:1011D000089508950E9465060E94E9080E9485000E
:1011E000CCE2D7E00E94D2002097E1F30E942C07C6
:1011F000F9CFCF92DF92EF92FF920F931F93CF938D
:10120000DF937C016A01EB0100E010E00C151D0585
:1012100071F06991D701ED91FC910190F081E02D81
:10122000C7010995892B19F00F5F1F4FEFCFC80138
:10123000DF91CF911F910F91FF90EF90DF90CF90B2
:1012400008956115710581F0DB010D900020E9F72B
:10125000AD0141505109461B570BDC01ED91FC914A
:101260000280F381E02D099480E090E008950C94D1
:10127000210962E072E00C9421090F931F93CF9330
:10128000DF93EC010E9421098C01CE010E943909F3
:10129000800F911FDF91CF911F910F9108958F9231
:1012A0009F92AF92BF92DF92EF92FF920F931F93A4
:1012B000CF93DF93CDB7DEB7A1970FB6F894DEBF1B
:1012C0000FBECDBF7C01F42FD52ECB0119A2223049
:1012D00008F42AE08E010F5D1F4F822E912CA12C65
:1012E000B12C6F2F7D2DA50194010E94B309F22F1F
:1012F000D32ECA01015011096A3014F4E0E301C091
:10130000E7E3E60FD801EC93232B242B252B49F799
:10131000B801C7010E942109A1960FB6F894DEBF5B
:101320000FBECDBFDF91CF911F910F91FF90EF9036
:10133000DF90BF90AF909F908F9008952115310559
:1013400041F4DC01ED91FC910190F081E02D642FDE
:1013500009940C944F099A01462F50E060E070E028
:101360000C949E090895A1E21A2EAA1BBB1BFD0135
:101370000DC0AA1FBB1FEE1FFF1FA217B307E40774
:10138000F50720F0A21BB30BE40BF50B661F771FCC
:10139000881F991F1A9469F76095709580959095AC
:1013A0009B01AC01BD01CF010895EE0FFF1F059019
:1013B000F491E02D0994FB01DC014150504030F0E4
:1013C0008D910190801919F40020B9F7881B990BB1
:1013D0000895AEE0B0E0EFEEF9E00C949F0C0D89BB
:1013E0001E898F89988D26E02C831A83098397FFA5
:1013F00002C080E090E801979E838D83AE01455E38
:101400005F4F698D7A8DCE0101960E94190A4D8138
:101410005E8157FD0AC02F813885421753070CF4AF
:101420009A01F801E20FF31F10822E96E4E00C946B
:10143000BB0CACE0B0E0EFE1FAE00C94910C7C0165
:101440006B018A01FC0117821682838181FFBDC175
:10145000CE0101964C01F7019381F60193FD859130
:1014600093FF81916F01882309F4ABC1853239F470
:1014700093FD859193FF81916F01853229F4B70126
:1014800090E00E94010CE7CF512C312C20E020325B
:10149000A0F48B3269F030F4803259F0833269F471
:1014A00020612CC08D3239F0803339F4216026C0A0
:1014B0002260246023C0286021C027FD27C030EDB2
:1014C000380F3A3078F426FF06C0FAE05F9E300D00
:1014D0001124532E13C08AE0389E300D1124332E70
:1014E00020620CC08E3221F426FD6BC1206406C040
:1014F0008C3611F4206802C0883641F4F60193FD61
:10150000859193FF81916F018111C1CF982F9F7DAC
:101510009554933028F40C5F1F4FFFE3F9830DC0FF
:10152000833631F0833771F0833509F05BC022C018
:10153000F801808189830E5F1F4F44244394512C0E
:10154000540115C03801F2E06F0E711CF801A08043
:10155000B18026FF03C0652D70E002C06FEF7FEF02
:10156000C5012C870E94F60B2C0183012C852F7757
:10157000222E17C03801F2E06F0E711CF801A08016
:10158000B18026FF03C0652D70E002C06FEF7FEFD2
:10159000C5012C870E94EB0B2C012C852068222E84
:1015A000830123FC1BC0832D90E048165906B0F43C
:1015B000B70180E290E00E94010C3A94F4CFF5016B
:1015C00027FC859127FE81915F01B70190E00E9481
:1015D000010C31103A94F1E04F1A510841145104B2
:1015E00071F7E5C0843611F0893639F5F80127FF27
:1015F00007C060817181828193810C5F1F4F08C099
:1016000060817181882777FD8095982F0E5F1F4F2D
:101610002F76B22E97FF09C09095809570956195B1
:101620007F4F8F4F9F4F2068B22E2AE030E0A401F9
:101630000E94330CA82EA81844C0853729F42F7EA9
:10164000B22E2AE030E025C0F22FF97FBF2E8F3670
:10165000C1F018F4883579F0B4C0803719F08837B4
:1016600021F0AFC02F2F2061B22EB4FE0DC08B2D04
:101670008460B82E09C024FF0AC09F2F9660B92E3F
:1016800006C028E030E005C020E130E002C020E1E3
:1016900032E0F801B7FE07C06081718182819381D9
:1016A0000C5F1F4F06C06081718180E090E00E5F8B
:1016B0001F4FA4010E94330CA82EA818FB2DFF7702
:1016C000BF2EB6FE0BC02B2D2E7FA51450F4B4FEFA
:1016D0000AC0B2FC08C02B2D2E7E05C07A2C2B2D03
:1016E00003C07A2C01C0752C24FF0DC0FE01EA0D49
:1016F000F11D8081803311F4297E09C022FF06C0CC
:101700007394739404C0822F867809F0739423FD38
:1017100013C020FF06C05A2C731418F4530C57182A
:10172000732C731468F4B70180E290E02C870E9458
:10173000010C73942C85F5CF731410F4371801C085
:10174000312C24FF12C0B70180E390E02C870E9467
:10175000010C2C8522FF17C021FF03C088E590E013
:1017600002C088E790E0B7010CC0822F867859F05C
:1017700021FD02C080E201C08BE227FD8DE2B701AE
:1017800090E00E94010CA51438F4B70180E390E0CA
:101790000E94010C5A94F7CFAA94F401EA0DF11DAE
:1017A0008081B70190E00E94010CA110F5CF332099
:1017B00009F451CEB70180E290E00E94010C3A9406
:1017C000F6CFF7018681978102C08FEF9FEF2C96AD
:1017D000E2E10C94AD0CFC010590615070400110E9
:1017E000D8F7809590958E0F9F1F0895FC0161504A
:1017F000704001900110D8F7809590958E0F9F1F33
:1018000008950F931F93CF93DF93182F092FEB01A8
:101810008B8181FD03C08FEF9FEF20C082FF10C03E
:101820004E815F812C813D81421753077CF4E88112
:10183000F9819F012F5F3F4F39832883108306C0B2
:10184000E885F985812F0995892B29F72E813F811C
:101850002F5F3F4F3F832E83812F902FDF91CF91BA
:101860001F910F910895FA01AA27283051F12031D4
:1018700081F1E8946F936E7F6E5F7F4F8F4F9F4F24
:10188000AF4FB1E03ED0B4E03CD0670F781F891F66
:101890009A1FA11D680F791F8A1F911DA11D6A0F34
:1018A000711D811D911DA11D20D009F468943F91E7
:1018B0002AE0269F11243019305D3193DEF6CF01E6
:1018C0000895462F4770405D4193B3E00FD0C9F7AC
:1018D000F6CF462F4F70405D4A3318F0495D31FD19
:1018E0004052419302D0A9F7EACFB4E0A69597956C
:1018F000879577956795BA95C9F700976105710542
:1019000008959B01AC010A2E06945795479537958B
:101910002795BA95C9F7620F731F841F951FA01DE5
:1019200008952F923F924F925F926F927F928F9283
:101930009F92AF92BF92CF92DF92EF92FF920F935E
:101940001F93CF93DF93CDB7DEB7CA1BDB0B0FB668
:10195000F894DEBF0FBECDBF09942A883988488825
:101960005F846E847D848C849B84AA84B984C884BB
:10197000DF80EE80FD800C811B81AA81B981CE0FB2
:10198000D11D0FB6F894DEBF0FBECDBFED01089597
:04199000F894FFCFF9
:1019940001564D4450565F317C315F564D4450568C
:1019A4000D0A00000000006A013D01E300EB00FEA7
:1019B400000D01496E76616C6964207061636B652A
:1019C400742073697A652000494E56414C4944207D
:1019D4004144445245535300546869732069732049
:1019E40061206D6F746F7220636F6D6D616E640042
:1019F400257300496E76616C6964206D6F746F7233
:101A040020737472696E67206C656E677468005425
:101A140068697320697320616E20756C74726173D8
:101A24006F6E696320636F6D6D616E6400436F6DEB
:101A34006D616E64206E6F7420666F756E64004114
:101A4400524D004D54520053525600554C540049C7
:101A540052530044475400414E4C00AF0101B301BE
:101A640008B70108BB0108BF0108C30101C7010190
:101A7400000000564D4450455F003A323A005F562C
:101A84004D44504500564D4450435F005F564D440D
:101A940050430D0A004572726F723A2041747465A6
:101AA4006D707420746F2073657420612072656199
:101AB400642D6F6E6C79207661726961626C652049
:101AC4006F7220646174612074797065206E6F7424
:101AD40020737570706F727465640D0A00000000E5
:101AE400007D07F908FF0618070A075B076E616E99
:0C1AF40000696E66006F7666002E000030
:107800000C94343C0C94513C0C94513C0C94513CE1
:107810000C94513C0C94513C0C94513C0C94513CB4
:107820000C94513C0C94513C0C94513C0C94513CA4
:107830000C94513C0C94513C0C94513C0C94513C94
:107840000C94513C0C94513C0C94513C0C94513C84
:107850000C94513C0C94513C0C94513C0C94513C74
:107860000C94513C0C94513C11241FBECFEFD8E036
:10787000DEBFCDBF11E0A0E0B1E0ECE9FFE702C060
:1078800005900D92A230B107D9F712E0A2E0B1E065
:1078900001C01D92AD30B107E1F70E942D3D0C945F
:1078A000CC3F0C94003C982F959595959595959582
:1078B000905D8F708A307CF0282F295A8091C0000B
:1078C00085FFFCCF9093C6008091C00085FFFCCF60
:1078D0002093C6000895282F205DF0CF982F809127
:1078E000C00085FFFCCF9093C6000895EF92FF92F1
:1078F0000F931F93EE24FF2487018091C00087FD22
:1079000017C00894E11CF11C011D111D81E4E8164B
:1079100082E4F8068FE0080780E0180770F3E09132
:107920000401F091050109958091C00087FFE9CF1E
:107930008091C6001F910F91FF90EF9008950E94D3
:10794000763C982F8091C00085FFFCCF9093C600B5
:1079500091362CF490330CF09053892F089597555D
:10796000892F08951F930E949F3C182F0E949F3CCF
:107970001295107F810F1F9108951F93182F882350
:1079800021F00E94763C1150E1F71F9108951F935A
:10799000182F0E94763C803249F0809103018F5F5E
:1079A000809303018530C1F01F9108958091C0003C
:1079B00085FFFCCF84E18093C6008091C00085FFE5
:1079C000FCCF1093C6008091C00085FFFCCF80E102
:1079D0008093C6001F910895E0910401F091050184
:1079E00009951F9108950E94763C803241F0809164
:1079F00003018F5F80930301853081F008958091AA
:107A0000C00085FFFCCF84E18093C6008091C00058
:107A100085FFFCCF80E18093C6000895E0910401CA
:107A2000F09105010995089540E951E08823A1F0FE
:107A30002D9A28EE33E0FA013197F1F721503040CA
:107A4000D1F72D9828EE33E0FA013197F1F7215064
:107A50003040D1F7815061F708953F924F925F9285
:107A60006F927F928F929F92AF92BF92CF92DF924E
:107A7000EF92FF920F931F93CF93DF93000080E16B
:107A80008093C4001092C50088E18093C10086E015
:107A90008093C2005098589A259A81E00E94143D24
:107AA00024E1F22E9EE1E92E85E9D82E0FE0C02ECA
:107AB00010E1B12EAA24A394B1E49B2EA6E58A2E50
:107AC000F2E57F2EE0E26E2E79E4572E63E5462E36
:107AD00050E5352E0E94763C8033B1F18133B9F107
:107AE000803409F46FC0813409F476C0823409F41B
:107AF00085C0853409F488C0803531F1823521F1A3
:107B0000813511F1853509F485C0863509F48DC0BC
:107B1000843609F496C0843709F403C1853709F423
:107B200072C1863709F466C0809103018F5F80932C
:107B30000301853079F6E0910401F0910501099582
:107B40000E94763C803351F60E94F33CC3CF0E94E2
:107B5000763C803249F78091C00085FFFCCFF092DF
:107B6000C6008091C00085FFFCCF9092C600809136
:107B7000C00085FFFCCF8092C6008091C00085FFC9
:107B8000FCCF7092C6008091C00085FFFCCF609250
:107B9000C6008091C00085FFFCCF5092C600809146
:107BA000C00085FFFCCF4092C6008091C00085FFD9
:107BB000FCCF3092C6008091C00085FFFCCFB09210
:107BC000C60088CF0E94763C863808F4BDCF0E945C
:107BD000763C0E94F33C7ECF0E94763C803809F4CC
:107BE0009CC0813809F40BC1823809F43CC1883942
:107BF00009F48FC080E00E94C73C6CCF84E10E94F2
:107C0000BD3C0E94F33C66CF85E00E94BD3C0E94D3
:107C1000F33C60CF0E94763C809306010E94763C44
:107C2000809307010E94F33C55CF0E94763C80333D
:107C300009F41DC183E00E94BD3C80E00E94C73C66
:107C400049CF0E94763C809309020E94763C809343
:107C5000080280910C028E7F80930C020E94763C79
:107C6000853409F415C18091080290910902892B8D
:107C700089F000E010E00E94763CF801E85FFE4FDA
:107C800080830F5F1F4F80910802909109020817AF
:107C9000190788F30E94763C803209F045CF809125
:107CA0000C0280FF01C16091060170910701660F0F
:107CB000771F7093070160930601A0910802B091AD
:107CC00009021097C9F0E8E0F1E09B01AD014E0F09
:107CD0005F1FF999FECF32BD21BD819180BDFA9A17
:107CE000F99A2F5F3F4FE417F50799F76A0F7B1F4B
:107CF00070930701609306018091C00085FFFCCF5F
:107D0000F092C6008091C00085FFFCCFB092C60003
:107D1000E1CE83E00E94C73CDDCE82E00E94C73CFA
:107D2000D9CE0E94763C809309020E94763C8093D3
:107D300008028091060190910701880F991F909386
:107D40000701809306010E94763C853409F4A6C0A1
:107D500080910C028E7F80930C020E94763C8032D0
:107D600009F0B8CE8091C00085FFFCCFF092C6002C
:107D7000609108027091090261157105B9F140E046
:107D800050E080910C02A82FA170B82FB27011C0E2
:107D9000BB2309F45CC0E0910601F0910701319624
:107DA000F0930701E09306014F5F5F4F46175707B7
:107DB000E8F4AA2369F3F999FECF209106013091E6
:107DC000070132BD21BDF89A90B58091C00085FFB2
:107DD000FCCF9093C6002F5F3F4F30930701209355
:107DE00006014F5F5F4F4617570718F38091C00099
:107DF00085FDE5CE8091C00085FFF8CFE0CE81E023
:107E00000E94C73C67CE0E94763C803209F08CCE3F
:107E10008091C00085FFFCCFF092C6008091C00029
:107E200085FFFCCFE092C6008091C00085FFFCCFAB
:107E3000D092C6008091C00085FFFCCFC092C600E2
:107E40008091C00085FFFCCFB092C60043CEE09188
:107E50000601F091070194918091C00085FFFCCF4D
:107E60009093C6009CCF80E10E94C73C33CE0E9415
:107E7000763C0E94763C182F0E94763C112309F430
:107E800083C0113009F484C08FE00E94C73C22CE29
:107E900080910C02816080930C02E5CE80910C02EF
:107EA000816080930C0259CF809107018823880F4D
:107EB000880B8A2180930B02809106019091070123
:107EC000880F991F90930701809306018091080203
:107ED00080FF09C080910802909109020196909359
:107EE000090280930802F894F999FECF1127E091D6
:107EF0000601F0910701C8E0D1E08091080290915D
:107F00000902103091F40091570001700130D9F34B
:107F100003E000935700E89500915700017001308D
:107F2000D9F301E100935700E89509901990009169
:107F3000570001700130D9F301E000935700E89534
:107F40001395103498F011270091570001700130FB
:107F5000D9F305E000935700E895009157000170B0
:107F60000130D9F301E100935700E895329602976A
:107F700009F0C7CF103011F00296E5CF112480919F
:107F8000C00085FFB9CEBCCE8EE10E94C73CA2CD19
:0C7F900085E90E94C73C9ECDF894FFCF0D
:027F9C00800063
:040000030000780081
:00000001FF