:100000000C9458000C9480000C9480000C94800098
:100010000C9480000C9480000C9480000C94800060
:100020000C9480000C9480000C9480000C94800050
:100030000C9480000C9480000C9480000C94800040
:100040000C9465040C9480000C9433040C940D04FF
:100050000C9480000C9480000C9480000C94800020
:100060000C94AF040C9480000000000025002800D0
:100070002B00040404040404040402020202020229
:10008000030303030303010204081020408001025C
:1000900004081020010204081020000000080002DB
:1000A0000100000304070000000000000000DD055F
:1000B00011241FBECFEFD8E0DEBFCDBF23E0AEE6F8
:1000C000B1E001C01D92A336B207E1F711E0A0E054
:1000D000B1E0E0E9F4E102C005900D92AE36B1075F
:1000E000D9F710E0C8E5D0E004C02197FE010E94D6
:1000F0007F07C735D107C9F70E9438060C94460A16
:100100000C940000E4ECF2E0A089B18982E08C93C9
:10011000A485B5851C92A685B7858FEC8C93108E2F
:10012000A489B58986E08C93A289B3898C9180617A
:100130008C93A289B3898C9188608C93A289B389AE
:100140008C9180688C930288F389E02D80818F7D6B
:100150008083089590E0FC01E656FF4F2491FC0156
:10016000EA57FF4F3491FC01EE58FF4FE491EE2324
:10017000B1F1222339F1233091F038F42130A9F084
:10018000223001F584B58F7D12C0273091F02830E0
:10019000A1F02430B9F4809180008F7D03C080915C
:1001A00080008F77809380000DC084B58F7784BDE9
:1001B00009C08091B0008F7703C08091B0008F7D1F
:1001C0008093B000F0E0EE0FFF1FE859FF4FA591BC
:1001D000B4918FB7F894EC913E2B3C938FBF089568
:1001E000CF92DF92EF92FF920F931F932FB7F89465
:1001F000C0906C02D0906D02E0906E02F0906F02A1
:100200002FBFDC01CB018C0D9D1DAE1DBF1D4FB757
:10021000F89400916C0210916D0220916E02309161
:100220006F024FBF0C151D052E053F0528F08017E6
:100230009107A207B30758F71F910F91FF90EF9016
:10024000DF90CF900895CF92DF92EF92FF920F93BD
:100250001F93CF93DF936C017A018B01C0E0D0E054
:10026000CE15DF0589F0D8016D918D01D601ED9194
:10027000FC910190F081E02DC6010995892B11F4C4
:100280007E0102C02196ECCFC701DF91CF911F9173
:100290000F91FF90EF90DF90CF900895E0918E0145
:1002A000F0918F01309729F0109200021092FF0117
:1002B00009940895CF93DF93AC01E0910702F09188
:1002C00008023097F1F09091020280910102981794
:1002D000C0F090E0292F30E02617370754F4D901F9
:1002E000A259BE4FEA01C20FD31F88818C939F5F32
:1002F000F1CF1092020260930102CB01DF91CF9106
:100300000994DF91CF910895FC01538D448D252FE1
:1003100030E0842F90E0821B930B541710F0CF969F
:10032000089501970895FC01918D828D981761F0D1
:10033000828DDF01A80FB11D5D968C91928D9F5F1C
:100340009F73928F90E008958FEF9FEF0895FC01C7
:10035000918D828D981731F0828DE80FF11D858D7A
:1003600090E008958FEF9FEF0895FC01918D228D0D
:10037000892F90E0805C9F4F821B91098F73992792
:10038000089584EC92E00E94B50121E0892B09F4E4
:1003900020E0822F0895FC01848DDF01A80FB11D9C
:1003A000A35ABF4F2C91848D90E001968F739927AB
:1003B000848FA689B7892C93A089B1898C91806498
:1003C0008C93938D848D981306C00288F389E02D59
:1003D00080818F7D80830895EF92FF920F931F930A
:1003E000CF93DF93EC0181E0888F9B8D8C8D9813E8
:1003F00005C0E889F989808185FD24C0F62E0B8D22
:1004000010E00F5F1F4F0F731127E02E8C8DE81245
:100410000CC00FB607FCFACFE889F989808185FF07
:10042000F5CFCE010E94CB01F1CF8B8DFE01E80FFD
:10043000F11DE35AFF4FF0820B8FEA89FB8980811F
:10044000806207C0EE89FF896083E889F98980812D
:100450008064808381E090E0DF91CF911F910F91C4
:10046000FF90EF900895CF93DF93EC01888D882360
:10047000C9F0EA89FB89808185FD05C0A889B98911
:100480008C9186FD0FC00FB607FCF5CF808185FFEC
:10049000F2CFA889B9898C9185FFEDCFCE010E945A
:1004A000CB01E7CFDF91CF91089580E090E0892BD9
:1004B00029F00E94C10181110C94000008953FB7FA
:1004C000F8948091F8019091F901A091FA01B0910E
:1004D000FB0126B5A89B05C02F3F19F00196A11D71
:1004E000B11D3FBFBA2FA92F982F8827820F911DCA
:1004F000A11DB11DBC01CD0142E0660F771F881F11
:10050000991F4A95D1F7089585ED8093BC0080919D
:10051000BC0084FDFCCF1092FE0108954091B00113
:10052000262F30E0240F311D21323105DCF42091DB
:10053000FE012430C9F4FC0180E090E0861758F4F5
:100540003091B0012191DC01A057BE4FA30FB11D26
:100550002C930196F3CF8091B001680F6093B001A6
:1005600080E0089581E0089582E008950895E09183
:10057000020280910102E81730F4F0E0E259FE4FE8
:10058000808190E008958FEF9FEF0895909102028F
:1005900080910102981750F4E92FF0E0E259FE4FE4
:1005A000208130E09F5F9093020202C02FEF3FEF67
:1005B000C90108958091010290E020910202821BFE
:1005C00091090895CF93DF9300D0CDB7DEB7CB016B
:1005D000642F49835A830E948E024981842F5A8155
:1005E000952F0F900F90DF91CF910895CF93DF93C8
:1005F0001F92CDB7DEB7698361E0CE0101960E94FC
:100600008E0281E090E00F90DF91CF9108950895E0
:1006100080E090E008956115710579F0FB0101908B
:100620000020E9F73197AF01461B570BDC01ED9134
:10063000FC910280F381E02D099480E090E0089520
:10064000CF92DF92EF92FF920F931F93CF93DF939E
:10065000CDB7DEB7A1970FB6F894DEBF0FBECDBF02
:10066000182F811109C080E2ECE4F2E0DF011D9255
:100670008A95E9F710924B0280914A02811141C09C
:1006800080914B02882389F11B3789F1E09149025F
:100690001D3779F0AE2FB0E0A45BBD4F1C93EF5F28
:1006A000E03218F4E09349022CC08FE180934902B4
:1006B00028C0F0E0E45BFD4F108280E2ECE4F2E061
:1006C000A9E2B2E001900D928A95E1F780E2ECE4B4
:1006D000F2E0DF011D928A95E9F710924B02109229
:1006E000490281E080934A020CC01B3751F481E03B
:1006F00080934B0280E2ECE4F2E0DF011D928A95E8
:10070000E9F780914A02882309F463C010924A02F3
:10071000E9E2F2E001900020E9F73197E952F24076
:10072000E53008F456C00091290280E0C82E81E02F
:10073000D82EE12CF12CD6016D917C9161157105BB
:1007400089F0FB0101900020E9F73197AF01461BCA
:10075000570B8BE292E00E948A07B3E0CB0ED11CCC
:10076000892B19F4011135C004C0EFEFEE1AFE0A0F
:10077000E2CFEA94EF2869F58EE292E09F938F939F
:100780008CE391E09F938F931F9289E08F93FE01FA
:1007900031967F01FF93EF930E949807F701019034
:1007A0000020E9F7CF0109970FB6F894DEBF0FBE1E
:1007B000CDBF8E159F0569F481E2F701A9E0B2E093
:1007C00001900D928A95E1F781E2D7011D928A95F9
:1007D000E9F7812FA1960FB6F894DEBF0FBECDBF0B
:1007E000DF91CF911F910F91FF90EF90DF90CF900D
:1007F00008958091010290E020910202821B9109EC
:10080000181619063CF488EB92E00E94C6020E947A
:100810002003EFCF08950E9485071F920F920FB615
:100820000F9211242F933F934F935F936F937F9376
:100830008F939F93AF93BF93EF93FF9384EC92E0DA
:100840000E94CB01FF91EF91BF91AF919F918F914A
:100850007F916F915F914F913F912F910F900FBEBC
:100860000F901F9018951F920F920FB60F921124A0
:100870002F938F939F93EF93FF93E091D402F09186
:10088000D5028081E091DA02F091DB0282FD12C094
:1008900090818091DD028F5F8F732091DE0282173D
:1008A00051F0E091DD02F0E0EC53FD4F958F809325
:1008B000DD0201C08081FF91EF919F918F912F9177
:1008C0000F900FBE0F901F9018951F920F920FB6AA
:1008D0000F9211242F933F938F939F93AF93BF93C6
:1008E00080916C0290916D02A0916E02B0916F02A6
:1008F0003091F70123E0230F2D3720F40196A11D3D
:10090000B11D05C026E8230F0296A11DB11D20933D
:10091000F70180936C0290936D02A0936E02B093E6
:100920006F028091F8019091F901A091FA01B091C4
:10093000FB010196A11DB11D8093F8019093F9016F
:10094000A093FA01B093FB01BF91AF919F918F915A
:100950003F912F910F900FBE0F901F9018951F92EF
:100960000F920FB60F9211242F933F934F935F93E3
:100970006F937F938F939F93AF93BF93EF93FF9367
:100980008091B900887F803609F49CC068F5883270
:1009900009F45BC090F4803109F454C038F4882322
:1009A00009F4F6C0883009F44DC0F6C0883109F466
:1009B0004CC0803209F45DC0EFC0803409F468C0D7
:1009C00048F4803309F455C0883309F0E5C08093BA
:1009D000D301D8C0803509F44FC0883509F45DC013
:1009E000883409F0D9C0D6C0883909F4C7C0A8F442
:1009F000883709F467C038F4883609F463C0803753
:100A000009F460C0C9C0883809F4B8C0803909F455
:100A10005FC0803809F0C0C05BC0803B09F486C06D
:100A200038F4803A09F466C0883A09F47FC0B4C04B
:100A3000803C09F4A7C0883C09F4A4C0883B09F4B1
:100A40008AC0AAC08091F60110C09091F5018091F2
:100A5000F401981770F5E091F50181E08E0F809315
:100A6000F501F0E0EC52FE4F80818093BB0085ECF5
:100A700086C08093D3018EC0E091F50181E08E0F96
:100A80008093F5018091BB00F0E0EC52FE4F808333
:100A90009091F5018091F4016EC0E091F50181E043
:100AA0008E0F8093F5018091BB00F0E0EC52FE4F79
:100AB00080838091FD0181116DC081E08093FC01F4
:100AC00084EA61C083E08093FE011092D201CFCF0F
:100AD0008091D201803208F051C0E091D20181E0D2
:100AE0008E0F8093D2018091BB00F0E0EE54FE4F58
:100AF0008083BDCF85EC8093BC001092FE01809175
:100B0000D201803230F4E091D201F0E0EE54FE4F99
:100B100010826091D20170E0E0910302F091040232
:100B200082EB91E009951092D20136C084E0809367
:100B3000FE011092B1011092B001E0910502F09116
:100B4000060209958091B001811105C081E0809372
:100B5000B00110929001E091B10181E08E0F80937D
:100B6000B101F0E0E057FE4F80818093BB0090918F
:100B7000B1018091B001981708F479CF85E880938E
:100B8000BC000AC085EC8093BC001092FE0104C03A
:100B90001092D3010E948402FF91EF91BF91AF9117
:100BA0009F918F917F916F915F914F913F912F9185
:100BB0000F900FBE0F901F901895E4ECF2E0138297
:100BC000128248EE53E060E070E044835583668310
:100BD00077838CE191E09183808385EC90E0958729
:100BE000848784EC90E09787868780EC90E0918BF7
:100BF000808B81EC90E0938B828B82EC90E0958BE4
:100C0000848B86EC90E0978B868B118E128E138EE0
:100C1000148EA0E7B2E016961D921D921D921C92B2
:100C200019971A961D921D921D921C921D971E9641
:100C30001D921D921D921C92519752961D921D92CB
:100C40001D921C925597A8EBB2E013961C921E922F
:100C5000129714964D935D936D937C9317978EE244
:100C600091E08D939C93F0936203E0936103089568
:100C7000789484B5826084BD84B5816084BD85B577
:100C8000826085BD85B5816085BD80916E00816083
:100C900080936E0010928100809181008260809329
:100CA000810080918100816080938100809180002B
:100CB0008160809380008091B10084608093B10056
:100CC0008091B00081608093B00080917A00846050
:100CD00080937A0080917A00826080937A0080917C
:100CE0007A00816080937A0080917A008068809396
:100CF0007A001092C1001092B4021092B5021092C4
:100D0000B6021092B7021092720210927302109201
:100D100074021092750268EB7BE080E090E00E9424
:100D2000F00084EC92E09093B3028093B2020E94B0
:100D300082002FB7F89480916C0290916D02A0917F
:100D40006E02B0916F022FBF809372029093730274
:100D5000A0937402B09375026FE371E08091B202C8
:100D60009091B3020E940B036AE070E080E090E093
:100D70000E94F00091E09093860280918100887F2C
:100D80008160809381008091B100887F8160809331
:100D9000B1008AE88093BA002EE431E03093060275
:100DA000209305022AE531E03093040220930302E8
:100DB0001092020210920102109200021092FF01A2
:100DC0001092FE019093FD011092FC0182E10E94BD
:100DD000AA0083E10E94AA008091B9008E7F8093CF
:100DE000B9008091B9008D7F8093B90088E4809329
:100DF000B80085E48093BC0089EF93E090930802EB
:100E0000809307020E94820084EC92E00E94B50168
:100E1000181619063CF484EC92E00E9493010E949B
:100E20002003F2CF0E945F024B015C0188EEC82EC6
:100E300083E0D82EE12CF12C0E945F02DC01CB0173
:100E400088199909AA09BB09883E9340A105B105F3
:100E500058F021E0C21AD108E108F10888EE880EA6
:100E600083E0981EA11CB11CC114D104E104F1045B
:100E700019F769E272E084EC92E00E940B036EE4E1
:100E800071E084EC92E00E940B030E945502BCCFFB
:100E90002F923F924F925F926F927F928F929F928A
:100EA000AF92BF92CF92DF92EF92FF920F931F9378
:100EB000CF93DF93CDB7DEB7CA1BDB0B0FB6F89429
:100EC000DEBF0FBECDBF09942A88398848885F8469
:100ED0006E847D848C849B84AA84B984C884DF80DA
:100EE000EE80FD800C811B81AA81B981CE0FD11DBE
:100EF0000FB6F894DEBF0FBECDBFED010895EE0F23
:100F0000FF1F0590F491E02D099481E090E0F894A2
:100F10000C94460AFB01DC014150504030F08D91A9
:100F20000190801919F40020B9F7881B990B0895D6
:100F3000AEE0B0E0EEE9F7E00C9456070D891E89AB
:100F40008F89988D26E02C831A83098397FF02C02E
:100F500080E090E801979E838D83AE01455E5F4FF0
:100F6000698D7A8DCE0101960E94C8074D815E8100
:100F700057FD0AC02F813885421753070CF49A0198
:100F8000F801E20FF31F10822E96E4E00C94720732
:100F9000ACE0B0E0EEECF7E00C9448077C016B01AC
:100FA0008A01FC0117821682838181FFBDC1CE01B7
:100FB00001964C01F7019381F60193FD859193FF12
:100FC00081916F01882309F4ABC1853239F493FD17
:100FD000859193FF81916F01853229F4B70190E0EB
:100FE0000E94B009E7CF512C312C20E02032A0F430
:100FF0008B3269F030F4803259F0833269F4206129
:101000002CC08D3239F0803339F4216026C0226043
:10101000246023C0286021C027FD27C030ED380F91
:101020003A3078F426FF06C0FAE05F9E300D1124B6
:10103000532E13C08AE0389E300D1124332E2062C7
:101040000CC08E3221F426FD6BC1206406C08C36A4
:1010500011F4206802C0883641F4F60193FD8591B1
:1010600093FF81916F018111C1CF982F9F7D95547E
:10107000933028F40C5F1F4FFFE3F9830DC08336D4
:1010800031F0833771F0833509F05BC022C0F8017D
:10109000808189830E5F1F4F44244394512C540157
:1010A00015C03801F2E06F0E711CF801A080B1800C
:1010B00026FF03C0652D70E002C06FEF7FEFC50112
:1010C0002C870E94A5092C0183012C852F77222EC5
:1010D00017C03801F2E06F0E711CF801A080B180DA
:1010E00026FF03C0652D70E002C06FEF7FEFC501E2
:1010F0002C870E949A092C012C852068222E8301BE
:1011000023FC1BC0832D90E048165906B0F4B701AC
:1011100080E290E00E94B0093A94F4CFF50127FCF8
:10112000859127FE81915F01B70190E00E94B0098F
:1011300031103A94F1E04F1A51084114510471F7FB
:10114000E5C0843611F0893639F5F80127FF07C06C
:1011500060817181828193810C5F1F4F08C0608123
:101160007181072E000C880B990B0E5F1F4F2F7695
:10117000722E97FF09C090958095709561957F4F6D
:101180008F4F9F4F2068722E2AE030E0A4010E940A
:10119000E809A82EA81844C0853729F42F7EB22E5E
:1011A0002AE030E025C0F22FF97FBF2E8F36C1F044
:1011B00018F4883579F0B4C0803719F0883721F0F9
:1011C000AFC02F2F2061B22EB4FE0DC08B2D8460D6
:1011D000B82E09C024FF0AC09F2F9660B92E06C002
:1011E00028E030E005C020E130E002C020E132E03C
:1011F000F801B7FE07C060817181828193810C5F25
:101200001F4F06C06081718180E090E00E5F1F4F2C
:10121000A4010E94E809A82EA818FB2DFF777F2EB5
:1012200076FE0BC0372D3E7FA51450F474FE0AC025
:1012300072FC08C0372D3E7E05C0BA2C372D03C086
:10124000BA2C01C0B52C34FF0DC0FE01EA0DF11D12
:101250008081803311F4397E09C032FF06C0B39417
:10126000B39404C0832F867809F0B39433FD13C080
:1012700030FF06C05A2CB31418F4530C5B18B32C6F
:10128000B31468F4B70180E290E03C870E94B00993
:10129000B3943C85F5CFB31410F43B1801C0312C46
:1012A00034FF12C0B70180E390E03C870E94B00990
:1012B0003C8532FF17C031FD03C088E790E002C0D3
:1012C00088E590E0B7010CC0832F867859F031FF94
:1012D00002C08BE201C080E237FD8DE2B70190E0F1
:1012E0000E94B009A51438F4B70180E390E00E9491
:1012F000B0095A94F7CFAA94F401EA0DF11D808148
:10130000B70190E00E94B009A110F5CF332009F495
:1013100051CEB70180E290E00E94B0093A94F6CF36
:10132000F7018681978102C08FEF9FEF2C96E2E153
:101330000C946407FC010590615070400110D8F7CF
:10134000809590958E0F9F1F0895FC01615070400D
:1013500001900110D8F7809590958E0F9F1F0895EA
:101360000F931F93CF93DF93FB01238121FD03C0D4
:101370008FEF9FEF28C022FF16C04681578124813E
:1013800035814217530744F4A081B1819D012F5F3D
:101390003F4F318320838C93268137812F5F3F4FCE
:1013A0003783268310C0EB01092F182F0084F185A5
:1013B000E02D0995892BE1F68E819F8101969F830F
:1013C0008E83812F902FDF91CF911F910F910895E0
:1013D000FA01AA27283051F1203181F1E8946F9366
:1013E0006E7F6E5F7F4F8F4F9F4FAF4FB1E03ED00C
:1013F000B4E03CD0670F781F891F9A1FA11D680FAA
:10140000791F8A1F911DA11D6A0F711D811D911DDC
:10141000A11D20D009F468943F912AE0269F112451
:101420003019305D3193DEF6CF010895462F4770B5
:10143000405D4193B3E00FD0C9F7F6CF462F4F7010
:10144000405D4A3318F0495D31FD4052419302D06E
:10145000A9F7EACFB4E0A695979587957795679514
:10146000BA95C9F700976105710508959B01AC0114
:101470000A2E06945795479537952795BA95C9F73B
:10148000620F731F841F951FA01D0895F894FFCF4E
:101490005101015501085901085D01086101086504
:1014A000010169010100000000000000EC012301BE
:1014B00084013302B5019301A70100000000F60288
:1014C000E2020803B602DA02C602B702257300562A
:1014D0004D4450565F317C315F564D4450560D0A95
:1014E0000041524D004D54520053525600554C5439
:0E14F000004952530044475400414E4C000046
:107800000C94343C0C94513C0C94513C0C94513CE1
:107810000C94513C0C94513C0C94513C0C94513CB4
:107820000C94513C0C94513C0C94513C0C94513CA4
:107830000C94513C0C94513C0C94513C0C94513C94
:107840000C94513C0C94513C0C94513C0C94513C84
:107850000C94513C0C94513C0C94513C0C94513C74
:107860000C94513C0C94513C11241FBECFEFD8E036
:10787000DEBFCDBF11E0A0E0B1E0ECE9FFE702C060
:1078800005900D92A230B107D9F712E0A2E0B1E065
:1078900001C01D92AD30B107E1F70E942D3D0C945F
:1078A000CC3F0C94003C982F959595959595959582
:1078B000905D8F708A307CF0282F295A8091C0000B
:1078C00085FFFCCF9093C6008091C00085FFFCCF60
:1078D0002093C6000895282F205DF0CF982F809127
:1078E000C00085FFFCCF9093C6000895EF92FF92F1
:1078F0000F931F93EE24FF2487018091C00087FD22
:1079000017C00894E11CF11C011D111D81E4E8164B
:1079100082E4F8068FE0080780E0180770F3E09132
:107920000401F091050109958091C00087FFE9CF1E
:107930008091C6001F910F91FF90EF9008950E94D3
:10794000763C982F8091C00085FFFCCF9093C600B5
:1079500091362CF490330CF09053892F089597555D
:10796000892F08951F930E949F3C182F0E949F3CCF
:107970001295107F810F1F9108951F93182F882350
:1079800021F00E94763C1150E1F71F9108951F935A
:10799000182F0E94763C803249F0809103018F5F5E
:1079A000809303018530C1F01F9108958091C0003C
:1079B00085FFFCCF84E18093C6008091C00085FFE5
:1079C000FCCF1093C6008091C00085FFFCCF80E102
:1079D0008093C6001F910895E0910401F091050184
:1079E00009951F9108950E94763C803241F0809164
:1079F00003018F5F80930301853081F008958091AA
:107A0000C00085FFFCCF84E18093C6008091C00058
:107A100085FFFCCF80E18093C6000895E0910401CA
:107A2000F09105010995089540E951E08823A1F0FE
:107A30002D9A28EE33E0FA013197F1F721503040CA
:107A4000D1F72D9828EE33E0FA013197F1F7215064
:107A50003040D1F7815061F708953F924F925F9285
:107A60006F927F928F929F92AF92BF92CF92DF924E
:107A7000EF92FF920F931F93CF93DF93000080E16B
:107A80008093C4001092C50088E18093C10086E015
:107A90008093C2005098589A259A81E00E94143D24
:107AA00024E1F22E9EE1E92E85E9D82E0FE0C02ECA
:107AB00010E1B12EAA24A394B1E49B2EA6E58A2E50
:107AC000F2E57F2EE0E26E2E79E4572E63E5462E36
:107AD00050E5352E0E94763C8033B1F18133B9F107
:107AE000803409F46FC0813409F476C0823409F41B
:107AF00085C0853409F488C0803531F1823521F1A3
:107B0000813511F1853509F485C0863509F48DC0BC
:107B1000843609F496C0843709F403C1853709F423
:107B200072C1863709F466C0809103018F5F80932C
:107B30000301853079F6E0910401F0910501099582
:107B40000E94763C803351F60E94F33CC3CF0E94E2
:107B5000763C803249F78091C00085FFFCCFF092DF
:107B6000C6008091C00085FFFCCF9092C600809136
:107B7000C00085FFFCCF8092C6008091C00085FFC9
:107B8000FCCF7092C6008091C00085FFFCCF609250
:107B9000C6008091C00085FFFCCF5092C600809146
:107BA000C00085FFFCCF4092C6008091C00085FFD9
:107BB000FCCF3092C6008091C00085FFFCCFB09210
:107BC000C60088CF0E94763C863808F4BDCF0E945C
:107BD000763C0E94F33C7ECF0E94763C803809F4CC
:107BE0009CC0813809F40BC1823809F43CC1883942
:107BF00009F48FC080E00E94C73C6CCF84E10E94F2
:107C0000BD3C0E94F33C66CF85E00E94BD3C0E94D3
:107C1000F33C60CF0E94763C809306010E94763C44
:107C2000809307010E94F33C55CF0E94763C80333D
:107C300009F41DC183E00E94BD3C80E00E94C73C66
:107C400049CF0E94763C809309020E94763C809343
:107C5000080280910C028E7F80930C020E94763C79
:107C6000853409F415C18091080290910902892B8D
:107C700089F000E010E00E94763CF801E85FFE4FDA
:107C800080830F5F1F4F80910802909109020817AF
:107C9000190788F30E94763C803209F045CF809125
:107CA0000C0280FF01C16091060170910701660F0F
:107CB000771F7093070160930601A0910802B091AD
:107CC00009021097C9F0E8E0F1E09B01AD014E0F09
:107CD0005F1FF999FECF32BD21BD819180BDFA9A17
:107CE000F99A2F5F3F4FE417F50799F76A0F7B1F4B
:107CF00070930701609306018091C00085FFFCCF5F
:107D0000F092C6008091C00085FFFCCFB092C60003
:107D1000E1CE83E00E94C73CDDCE82E00E94C73CFA
:107D2000D9CE0E94763C809309020E94763C8093D3
:107D300008028091060190910701880F991F909386
:107D40000701809306010E94763C853409F4A6C0A1
:107D500080910C028E7F80930C020E94763C8032D0
:107D600009F0B8CE8091C00085FFFCCFF092C6002C
:107D7000609108027091090261157105B9F140E046
:107D800050E080910C02A82FA170B82FB27011C0E2
:107D9000BB2309F45CC0E0910601F0910701319624
:107DA000F0930701E09306014F5F5F4F46175707B7
:107DB000E8F4AA2369F3F999FECF209106013091E6
:107DC000070132BD21BDF89A90B58091C00085FFB2
:107DD000FCCF9093C6002F5F3F4F30930701209355
:107DE00006014F5F5F4F4617570718F38091C00099
:107DF00085FDE5CE8091C00085FFF8CFE0CE81E023
:107E00000E94C73C67CE0E94763C803209F08CCE3F
:107E10008091C00085FFFCCFF092C6008091C00029
:107E200085FFFCCFE092C6008091C00085FFFCCFAB
:107E3000D092C6008091C00085FFFCCFC092C600E2
:107E40008091C00085FFFCCFB092C60043CEE09188
:107E50000601F091070194918091C00085FFFCCF4D
:107E60009093C6009CCF80E10E94C73C33CE0E9415
:107E7000763C0E94763C182F0E94763C112309F430
:107E800083C0113009F484C08FE00E94C73C22CE29
:107E900080910C02816080930C02E5CE80910C02EF
:107EA000816080930C0259CF809107018823880F4D
:107EB000880B8A2180930B02809106019091070123
:107EC000880F991F90930701809306018091080203
:107ED00080FF09C080910802909109020196909359
:107EE000090280930802F894F999FECF1127E091D6
:107EF0000601F0910701C8E0D1E08091080290915D
:107F00000902103091F40091570001700130D9F34B
:107F100003E000935700E89500915700017001308D
:107F2000D9F301E100935700E89509901990009169
:107F3000570001700130D9F301E000935700E89534
:107F40001395103498F011270091570001700130FB
:107F5000D9F305E000935700E895009157000170B0
:107F60000130D9F301E100935700E895329602976A
:107F700009F0C7CF103011F00296E5CF112480919F
:107F8000C00085FFB9CEBCCE8EE10E94C73CA2CD19
:0C7F900085E90E94C73C9ECDF894FFCF0D
:027F9C00800063
:040000030000780081
:00000001FF