:100000000C9458000C9480000C9480000C94800098
:100010000C9480000C9480000C9480000C94800060
:100020000C9480000C9480000C9480000C94800050
:100030000C9480000C9480000C9480000C94800040
:100040000C94B1040C9480000C947F040C9459041B
:100050000C9480000C9480000C9480000C94800020
:100060000C94FB040C948000000000002500280084
:100070002B00040404040404040402020202020229
:10008000030303030303010204081020408001025C
:1000900004081020010204081020000000080002DB
:1000A0000100000304070000000000000000290612
:1000B00011241FBECFEFD8E0DEBFCDBF11E0A0E01E
:1000C000B1E0E6E3F5E102C005900D92A03CB10776
:1000D000D9F723E0A0ECB1E001C01D92AD36B20724
:1000E000E1F710E0C8E5D0E004C02197FE010E94CE
:1000F0009B07C735D107C9F70E946A060C94990A75
:100100000C94000090E0FC01E656FF4F2491FC01A6
:10011000EA57FF4F3491FC01EE58FF4FE491EE2374
:10012000B1F1222339F1233091F038F42130A9F0D4
:10013000223001F584B58F7D12C0273091F0283030
:10014000A1F02430B9F4809180008F7D03C08091AC
:1001500080008F77809380000DC084B58F7784BD39
:1001600009C08091B0008F7703C08091B0008F7D6F
:100170008093B000F0E0EE0FFF1FE859FF4FA5910C
:10018000B4918FB7F894EC913E2B3C938FBF0895B8
:10019000CF92DF92EF92FF920F931F93CF93DF9353
:1001A0006C017A018B01C0E0D0E0CE15DF0589F04B
:1001B000D8016D918D01D601ED91FC910190F081F6
:1001C000E02DC6010995892B11F47E0102C021960C
:1001D000ECCFC701DF91CF911F910F91FF90EF906E
:1001E000DF90CF900895E091E001F091E101309728
:1001F00029F0109256021092550209940895CF9357
:10020000DF93AC01E0915D02F0915E023097F1F076
:1002100090915802809157029817C0F090E0292FD2
:1002200030E02617370754F4D901A054BE4FEA0135
:10023000C20FD31F88818C939F5FF1CF1092580219
:1002400060935702CB01DF91CF910994DF91CF9159
:100250000895FC01538D448D252F30E0842F90E0CC
:10026000821B930B541710F0CF96089501970895B1
:10027000FC01918D828D981761F0828DDF01A80FAE
:10028000B11D5D968C91928D9F5F9F73928F90E0D0
:1002900008958FEF9FEF0895FC01918D828D98173F
:1002A00031F0828DE80FF11D858D90E008958FEF7C
:1002B0009FEF0895FC01918D228D892F90E0805C45
:1002C0009F4F821B91098F73992708958EEC92E0BE
:1002D0000E945A0121E0892B09F420E0822F089521
:1002E000FC01848DDF01A80FB11DA35ABF4F2C91D3
:1002F000848D90E001968F739927848FA689B789A2
:100300002C93A089B1898C9180648C93938D848D7A
:10031000981306C00288F389E02D80818F7D808349
:100320000895EF92FF920F931F93CF93DF93EC0109
:1003300081E0888F9B8D8C8D981305C0E889F989A1
:10034000808185FD24C0F62E0B8D10E00F5F1F4FBE
:100350000F731127E02E8C8DE8120CC00FB607FC2E
:10036000FACFE889F989808185FFF5CFCE010E9417
:100370007001F1CF8B8DFE01E80FF11DE35AFF4FA5
:10038000F0820B8FEA89FB898081806207C0EE8949
:10039000FF896083E889F98980818064808381E0B6
:1003A00090E0DF91CF911F910F91FF90EF90089512
:1003B000CF93DF93EC01888D8823C9F0EA89FB890C
:1003C000808185FD05C0A889B9898C9186FD0FC003
:1003D0000FB607FCF5CF808185FFF2CFA889B989D8
:1003E0008C9185FFEDCFCE010E947001E7CFDF91A8
:1003F000CF91089580E090E0892B29F00E9466015A
:1004000081110C94000008953FB7F89480914E023A
:1004100090914F02A0915002B091510226B5A89B35
:1004200005C02F3F19F00196A11DB11D3FBFBA2F86
:10043000A92F982F8827820F911DA11DB11DBC01E6
:10044000CD0142E0660F771F881F991F4A95D1F7AB
:10045000089585ED8093BC008091BC0084FDFCCFA5
:1004600010925402089540910202262F30E0240F8A
:10047000311D21323105DCF4209154022430C9F4BD
:10048000FC0180E090E0861758F43091020221913F
:10049000DC01AE51BE4FA30FB11D2C930196F3CFDB
:1004A00080910202680F6093020280E0089581E06B
:1004B000089582E008950895E091580280915702CE
:1004C000E81730F4F0E0E054FE4F808190E00895AA
:1004D0008FEF9FEF089590915802809157029817DF
:1004E00050F4E92FF0E0E054FE4F208130E09F5FB0
:1004F0009093580202C02FEF3FEFC90108958091F9
:10050000570290E020915802821B91090895CF93E1
:10051000DF9300D0CDB7DEB7CB01642F49835A8378
:100520000E9433024981842F5A81952F0F900F909A
:10053000DF91CF910895CF93DF931F92CDB7DEB7B0
:10054000698361E0CE0101960E94330281E090E070
:100550000F90DF91CF910895089580E090E0089585
:100560006115710579F0FB0101900020E9F73197E1
:10057000AF01461B570BDC01ED91FC910280F3812A
:10058000E02D099480E090E008954F925F926F9281
:100590007F92EF92FF920F931F93CF93DF93CDB78C
:1005A000DEB7A1970FB6F894DEBF0FBECDBF7C01BA
:1005B000FA01CB0119A2223008F42AE08E010F5D66
:1005C0001F4F422E512C612C712CBF01A3019201AF
:1005D0000E947907F901CA01015011096A3014F427
:1005E000605D01C0695CD8016C93232B242B252B03
:1005F00061F7B801C7010E94B002A1960FB6F89446
:10060000DEBF0FBECDBFDF91CF911F910F91FF9045
:10061000EF907F906F905F904F9008950F931F938E
:10062000CF93DF93EC010E94B0028C016CE371E088
:10063000CE010E94B002800F911FDF91CF911F91D8
:100640000F910895CF92DF92EF92FF920F931F9335
:10065000CF93DF93CDB7DEB7A1970FB6F894DEBF87
:100660000FBECDBF182F811113C080E2E2EAF2E085
:10067000DF011D928A95E9F71092A1021092A00263
:100680006FE371E080916B0390916C030E940E0305
:1006900080919F02811181C08091A102882309F479
:1006A00060C01B3709F45FC01D37D9F16CE471E0FD
:1006B00080916B0390916C030E94B0024091A00264
:1006C00050E060E070E02AE080916B0390916C0351
:1006D0000E94C5026BE571E080916B0390916C0301
:1006E0000E94B002E0906B03F0906C03412F50E049
:1006F00060E070E02AE0C7010E94C5026CE371E08F
:10070000C7010E94B0028091A002E82FF0E0EE55F0
:10071000FD4F10838F5F803208F08FE18093A0023D
:100720003CC0E091A002F0E0EE55FD4F108280E267
:10073000E2EAF2E0AFE7B2E001900D928A95E1F7CC
:1007400080E2E2EAF2E0DF011D928A95E9F7109279
:10075000A1021092A00281E080939F0260E671E006
:1007600016C01B37D1F481E08093A10262EA72E0E7
:1007700080916B0390916C030E940E0380E2E2EA89
:10078000F2E0DF011D928A95E9F76EE671E0809153
:100790006B0390916C030E940E0380919F0288234B
:1007A00009F463C010929F02EFE7F2E0019000208D
:1007B000E9F73197EF57F240E53008F456C0009161
:1007C0007F0280E0C82E81E0D82EE12CF12CD601EA
:1007D0006D917C916115710589F0FB0101900020FC
:1007E000E9F73197AF01461B570B81E892E00E9471
:1007F000A607B3E0CB0ED11C892B19F4011135C02B
:1008000004C0EFEFEE1AFE0AE2CFEA94EF2869F592
:1008100084E892E09F938F938EE791E09F938F936C
:100820001F9289E08F93FE0131967F01FF93EF9332
:100830000E94B407F70101900020E9F7CF01099762
:100840000FB6F894DEBF0FBECDBF8E159F0569F4BD
:1008500081E2F701AFE5B2E001900D928A95E1F7F0
:1008600081E2D7011D928A95E9F7812FA1960FB6F3
:10087000F894DEBF0FBECDBFDF91CF911F910F91D6
:10088000FF90EF90DF90CF9008958091570290E015
:1008900020915802821B9109181619063CF482EC2B
:1008A00092E00E946B020E942203EFCF08950E9403
:1008B000A1071F920F920FB60F9211242F933F930F
:1008C0004F935F936F937F938F939F93AF93BF9358
:1008D000EF93FF938EEC92E00E947001FF91EF91F5
:1008E000BF91AF919F918F917F916F915F914F9148
:1008F0003F912F910F900FBE0F901F9018951F9250
:100900000F920FB60F9211242F938F939F93EF9313
:10091000FF93E091DE02F091DF028081E091E4023A
:10092000F091E50282FD12C090818091E7028F5F15
:100930008F732091E802821751F0E091E702F0E016
:10094000E253FD4F958F8093E70201C08081FF91B4
:10095000EF919F918F912F910F900FBE0F901F904D
:1009600018951F920F920FB60F9211242F933F9359
:100970008F939F93AF93BF9380914A0290914B02C4
:10098000A0914C02B0914D023091490223E0230F17
:100990002D3720F40196A11DB11D05C026E8230FB7
:1009A0000296A11DB11D2093490280934A029093A3
:1009B0004B02A0934C02B0934D0280914E02909155
:1009C0004F02A0915002B09151020196A11DB11D9C
:1009D00080934E0290934F02A0935002B093510225
:1009E000BF91AF919F918F913F912F910F900FBE2B
:1009F0000F901F9018951F920F920FB60F9211240F
:100A00002F933F934F935F936F937F938F939F9316
:100A1000AF93BF93EF93FF938091B900887F8036A7
:100A200009F49CC068F5883209F45BC090F4803109
:100A300009F454C038F4882309F4F6C0883009F466
:100A40004DC0F6C0883109F44CC0803209F45DC055
:100A5000EFC0803409F468C048F4803309F455C00D
:100A6000883309F0E5C080932502D8C0803509F4A9
:100A70004FC0883509F45DC0883409F0D9C0D6C0AC
:100A8000883909F4C7C0A8F4883709F467C038F476
:100A9000883609F463C0803709F460C0C9C088385B
:100AA00009F4B8C0803909F45FC0803809F0C0C0CB
:100AB0005BC0803B09F486C038F4803A09F466C014
:100AC000883A09F47FC0B4C0803C09F4A7C0883CD0
:100AD00009F4A4C0883B09F48AC0AAC080914802E6
:100AE00010C09091470280914602981770F5E091EE
:100AF000470281E08E0F80934702F0E0EA5DFD4FF0
:100B000080818093BB0085EC86C0809325028EC0D7
:100B1000E091470281E08E0F809347028091BB00F5
:100B2000F0E0EA5DFD4F808390914702809146029C
:100B30006EC0E091470281E08E0F80934702809162
:100B4000BB00F0E0EA5DFD4F80838091530281118C
:100B50006DC081E08093520284EA61C083E080939B
:100B6000540210922402CFCF80912402803208F0E8
:100B700051C0E091240281E08E0F80932402809185
:100B8000BB00F0E0EC5FFD4F8083BDCF85EC809330
:100B9000BC001092540280912402803230F4E09123
:100BA0002402F0E0EC5FFD4F10826091240270E0BF
:100BB000E0915902F0915A0284E092E00995109276
:100BC000240236C084E080935402109203021092F3
:100BD0000202E0915B02F0915C02099580910202B1
:100BE000811105C081E0809302021092E201E09140
:100BF000030281E08E0F80930302F0E0EE51FE4F7E
:100C000080818093BB00909103028091020298172B
:100C100008F479CF85E88093BC000AC085EC809306
:100C2000BC001092540204C0109225020E942902B6
:100C3000FF91EF91BF91AF919F918F917F916F91B4
:100C40005F914F913F912F910F900FBE0F901F908A
:100C50001895EEECF2E01382128248EE53E060E069
:100C600070E044835583668377838CE191E09183C0
:100C7000808385EC90E09587848784EC90E097876B
:100C8000868780EC90E0918B808B81EC90E0938B59
:100C9000828B82EC90E0958B848B86EC90E0978B36
:100CA000868B118E128E138E148EA2ECB2E01396E8
:100CB0001C921E92129714964D935D936D937C93A4
:100CC00017978EE291E08D939C93F0936C03E093E1
:100CD0006B030895789484B5826084BD84B5816087
:100CE00084BD85B5826085BD85B5816085BD8091F7
:100CF0006E00816080936E0010928100809181006F
:100D00008260809381008091810081608093810066
:100D1000809180008160809380008091B100846028
:100D20008093B1008091B00081608093B000809189
:100D30007A00846080937A0080917A008260809348
:100D40007A0080917A00816080937A0080917A00A5
:100D5000806880937A001092C10080918100887F22
:100D60008160809381008091B100887F8160809351
:100D7000B1008AE88093BA0083EF90E090935C0220
:100D800080935B028FEF90E090935A028093590218
:100D90001092580210925702109256021092550269
:100DA0001092540281E0809353021092520282E129
:100DB0000E94820083E10E9482008091B9008E7FB0
:100DC0008093B9008091B9008D7F8093B90088E449
:100DD0008093B80085E48093BC0085E494E0909310
:100DE0005E0280935D02E091DE02F091DF0282E01C
:100DF0008083E091DA02F091DB021082E091DC0264
:100E0000F091DD028FEC80831092E602E091E20225
:100E1000F091E30286E08083E091E002F091E1024C
:100E2000808180618083E091E002F091E102808125
:100E300088608083E091E002F091E1028081806827
:100E40008083E091E002F091E10280818F7D8083D8
:100E500061E871E08EEC92E00E940E03C0E08EEC3F
:100E600092E00E945A011816190644F48EEC92E0A2
:100E70000E9438010E942203C1E0F1CFCC2349F047
:100E800080E00E94220363E971E08EEC92E00E9410
:100E90000E030E9404024B015C0188EEC82E83E021
:100EA000D82EE12CF12C0E940402DC01CB01881920
:100EB0009909AA09BB09883E9340A105B10558F0DC
:100EC00021E0C21AD108E108F10888EE880E83E01B
:100ED000981EA11CB11CC114D104E104F10419F73E
:100EE0006FE772E08EEC92E00E940E030E94FA011E
:100EF000B5CFA1E21A2EAA1BBB1BFD010DC0AA1F74
:100F0000BB1FEE1FFF1FA217B307E407F50720F072
:100F1000A21BB30BE40BF50B661F771F881F991FED
:100F20001A9469F760957095809590959B01AC0136
:100F3000BD01CF010895EE0FFF1F0590F491E02D44
:100F4000099481E090E0F8940C94990AFB01DC018B
:100F50004150504030F08D910190801919F40020DB
:100F6000B9F7881B990B0895AEE0B0E0EAEBF7E023
:100F70000C94700A0D891E898F89988D26E02C8328
:100F80001A83098397FF02C080E090E801979E834F
:100F90008D83AE01455E5F4F698D7A8DCE010196DE
:100FA0000E94E4074D815E8157FD0AC02F8138857C
:100FB000421753070CF49A01F801E20FF31F108255
:100FC0002E96E4E00C948C0AACE0B0E0EAEEF7E098
:100FD0000C94620A7C016B018A01FC011782168263
:100FE000838181FFBDC1CE0101964C01F701938140
:100FF000F60193FD859193FF81916F01882309F498
:10100000ABC1853239F493FD859193FF81916F01D6
:10101000853229F4B70190E00E94CC09E7CF512C2A
:10102000312C20E02032A0F48B3269F030F4803291
:1010300059F0833269F420612CC08D3239F080334D
:1010400039F4216026C02260246023C0286021C0BA
:1010500027FD27C030ED380F3A3078F426FF06C060
:10106000FAE05F9E300D1124532E13C08AE0389EA3
:10107000300D1124332E20620CC08E3221F426FD57
:101080006BC1206406C08C3611F4206802C088361B
:1010900041F4F60193FD859193FF81916F018111D8
:1010A000C1CF982F9F7D9554933028F40C5F1F4F2C
:1010B000FFE3F9830DC0833631F0833771F0833558
:1010C00009F05BC022C0F801808189830E5F1F4F49
:1010D00044244394512C540115C03801F2E06F0EA2
:1010E000711CF801A080B18026FF03C0652D70E05F
:1010F00002C06FEF7FEFC5012C870E94C1092C0150
:1011000083012C852F77222E17C03801F2E06F0E55
:10111000711CF801A080B18026FF03C0652D70E02E
:1011200002C06FEF7FEFC5012C870E94B6092C012A
:101130002C852068222E830123FC1BC0832D90E088
:1011400048165906B0F4B70180E290E00E94CC093D
:101150003A94F4CFF50127FC859127FE81915F0138
:10116000B70190E00E94CC0931103A94F1E04F1A97
:1011700051084114510471F7E5C0843611F08936E5
:1011800039F5F80127FF07C0608171818281938161
:101190000C5F1F4F08C060817181072E000C880B07
:1011A000990B0E5F1F4F2F76722E97FF09C09095F7
:1011B0008095709561957F4F8F4F9F4F2068722E5D
:1011C0002AE030E0A4010E94040AA82EA81844C016
:1011D000853729F42F7EB22E2AE030E025C0F22F89
:1011E000F97FBF2E8F36C1F018F4883579F0B4C07E
:1011F000803719F0883721F0AFC02F2F2061B22E31
:10120000B4FE0DC08B2D8460B82E09C024FF0AC027
:101210009F2F9660B92E06C028E030E005C020E17F
:1012200030E002C020E132E0F801B7FE07C0608183
:101230007181828193810C5F1F4F06C06081718133
:1012400080E090E00E5F1F4FA4010E94040AA82EC8
:10125000A818FB2DFF777F2E76FE0BC0372D3E7F23
:10126000A51450F474FE0AC072FC08C0372D3E7EEF
:1012700005C0BA2C372D03C0BA2C01C0B52C34FFE1
:101280000DC0FE01EA0DF11D8081803311F4397E1D
:1012900009C032FF06C0B394B39404C0832F86788C
:1012A00009F0B39433FD13C030FF06C05A2CB314B9
:1012B00018F4530C5B18B32CB31468F4B70180E234
:1012C00090E03C870E94CC09B3943C85F5CFB314E1
:1012D00010F43B1801C0312C34FF12C0B70180E379
:1012E00090E03C870E94CC093C8532FF17C031FD5D
:1012F00003C088E790E002C088E590E0B7010CC029
:10130000832F867859F031FF02C08BE201C080E262
:1013100037FD8DE2B70190E00E94CC09A51438F4A6
:10132000B70180E390E00E94CC095A94F7CFAA94C9
:10133000F401EA0DF11D8081B70190E00E94CC0913
:10134000A110F5CF332009F451CEB70180E290E02F
:101350000E94CC093A94F6CFF7018681978102C0AA
:101360008FEF9FEF2C96E2E10C947E0AFC01059032
:10137000615070400110D8F7809590958E0F9F1F97
:101380000895FC016150704001900110D8F78095DC
:1013900090958E0F9F1F08950F931F93CF93DF9308
:1013A000FB01238121FD03C08FEF9FEF28C022FFA7
:1013B00016C046815781248135814217530744F472
:1013C000A081B1819D012F5F3F4F318320838C939A
:1013D000268137812F5F3F4F3783268310C0EB0173
:1013E000092F182F0084F185E02D0995892BE1F64E
:1013F0008E819F8101969F838E83812F902FDF9115
:10140000CF911F910F910895FA01AA27283051F129
:10141000203181F1E8946F936E7F6E5F7F4F8F4F25
:101420009F4FAF4FB1E03ED0B4E03CD0670F781F84
:10143000891F9A1FA11D680F791F8A1F911DA11D69
:101440006A0F711D811D911DA11D20D009F46894A2
:101450003F912AE0269F11243019305D3193DEF64A
:10146000CF010895462F4770405D4193B3E00FD000
:10147000C9F7F6CF462F4F70405D4A3318F0495DEB
:1014800031FD4052419302D0A9F7EACFB4E0A695CE
:101490009795879577956795BA95C9F700976105F0
:1014A000710508959B01AC010A2E06945795479546
:1014B00037952795BA95C9F7620F731F841F951F3B
:1014C000A01D08952F923F924F925F926F927F924C
:1014D0008F929F92AF92BF92CF92DF92EF92FF9244
:1014E0000F931F93CF93DF93CDB7DEB7CA1BDB0BF0
:1014F0000FB6F894DEBF0FBECDBF09942A88398895
:1015000048885F846E847D848C849B84AA84B9849B
:10151000C884DF80EE80FD800C811B81AA81B981A7
:10152000CE0FD11D0FB6F894DEBF0FBECDBFED01BB
:061530000895F894FFCFBE
:10153600A30101A70108AB0108AF0108B30108B771
:101546000101BB0101000000000000009101C8007C
:101556002901D8015A0138014C01000000009B0204
:101566008702AD025B027F026B025C020D0A00522B
:1015760065736574204275666665720042797465A6
:1015860020617420696E64657820002069732000EC
:10159600456E64206F66207061636B6574005374DA
:1015A600617274206F66207061636B6574002573C9
:1015B60000426567696E6E696E672070726F67724A
:1015C600616D005061636B65742072656365697651
:1015D60065640041524D004D545200535256005519
:1015E6004C54004952530044475400414E4C0000AD
:107800000C94343C0C94513C0C94513C0C94513CE1
:107810000C94513C0C94513C0C94513C0C94513CB4
:107820000C94513C0C94513C0C94513C0C94513CA4
:107830000C94513C0C94513C0C94513C0C94513C94
:107840000C94513C0C94513C0C94513C0C94513C84
:107850000C94513C0C94513C0C94513C0C94513C74
:107860000C94513C0C94513C11241FBECFEFD8E036
:10787000DEBFCDBF11E0A0E0B1E0ECE9FFE702C060
:1078800005900D92A230B107D9F712E0A2E0B1E065
:1078900001C01D92AD30B107E1F70E942D3D0C945F
:1078A000CC3F0C94003C982F959595959595959582
:1078B000905D8F708A307CF0282F295A8091C0000B
:1078C00085FFFCCF9093C6008091C00085FFFCCF60
:1078D0002093C6000895282F205DF0CF982F809127
:1078E000C00085FFFCCF9093C6000895EF92FF92F1
:1078F0000F931F93EE24FF2487018091C00087FD22
:1079000017C00894E11CF11C011D111D81E4E8164B
:1079100082E4F8068FE0080780E0180770F3E09132
:107920000401F091050109958091C00087FFE9CF1E
:107930008091C6001F910F91FF90EF9008950E94D3
:10794000763C982F8091C00085FFFCCF9093C600B5
:1079500091362CF490330CF09053892F089597555D
:10796000892F08951F930E949F3C182F0E949F3CCF
:107970001295107F810F1F9108951F93182F882350
:1079800021F00E94763C1150E1F71F9108951F935A
:10799000182F0E94763C803249F0809103018F5F5E
:1079A000809303018530C1F01F9108958091C0003C
:1079B00085FFFCCF84E18093C6008091C00085FFE5
:1079C000FCCF1093C6008091C00085FFFCCF80E102
:1079D0008093C6001F910895E0910401F091050184
:1079E00009951F9108950E94763C803241F0809164
:1079F00003018F5F80930301853081F008958091AA
:107A0000C00085FFFCCF84E18093C6008091C00058
:107A100085FFFCCF80E18093C6000895E0910401CA
:107A2000F09105010995089540E951E08823A1F0FE
:107A30002D9A28EE33E0FA013197F1F721503040CA
:107A4000D1F72D9828EE33E0FA013197F1F7215064
:107A50003040D1F7815061F708953F924F925F9285
:107A60006F927F928F929F92AF92BF92CF92DF924E
:107A7000EF92FF920F931F93CF93DF93000080E16B
:107A80008093C4001092C50088E18093C10086E015
:107A90008093C2005098589A259A81E00E94143D24
:107AA00024E1F22E9EE1E92E85E9D82E0FE0C02ECA
:107AB00010E1B12EAA24A394B1E49B2EA6E58A2E50
:107AC000F2E57F2EE0E26E2E79E4572E63E5462E36
:107AD00050E5352E0E94763C8033B1F18133B9F107
:107AE000803409F46FC0813409F476C0823409F41B
:107AF00085C0853409F488C0803531F1823521F1A3
:107B0000813511F1853509F485C0863509F48DC0BC
:107B1000843609F496C0843709F403C1853709F423
:107B200072C1863709F466C0809103018F5F80932C
:107B30000301853079F6E0910401F0910501099582
:107B40000E94763C803351F60E94F33CC3CF0E94E2
:107B5000763C803249F78091C00085FFFCCFF092DF
:107B6000C6008091C00085FFFCCF9092C600809136
:107B7000C00085FFFCCF8092C6008091C00085FFC9
:107B8000FCCF7092C6008091C00085FFFCCF609250
:107B9000C6008091C00085FFFCCF5092C600809146
:107BA000C00085FFFCCF4092C6008091C00085FFD9
:107BB000FCCF3092C6008091C00085FFFCCFB09210
:107BC000C60088CF0E94763C863808F4BDCF0E945C
:107BD000763C0E94F33C7ECF0E94763C803809F4CC
:107BE0009CC0813809F40BC1823809F43CC1883942
:107BF00009F48FC080E00E94C73C6CCF84E10E94F2
:107C0000BD3C0E94F33C66CF85E00E94BD3C0E94D3
:107C1000F33C60CF0E94763C809306010E94763C44
:107C2000809307010E94F33C55CF0E94763C80333D
:107C300009F41DC183E00E94BD3C80E00E94C73C66
:107C400049CF0E94763C809309020E94763C809343
:107C5000080280910C028E7F80930C020E94763C79
:107C6000853409F415C18091080290910902892B8D
:107C700089F000E010E00E94763CF801E85FFE4FDA
:107C800080830F5F1F4F80910802909109020817AF
:107C9000190788F30E94763C803209F045CF809125
:107CA0000C0280FF01C16091060170910701660F0F
:107CB000771F7093070160930601A0910802B091AD
:107CC00009021097C9F0E8E0F1E09B01AD014E0F09
:107CD0005F1FF999FECF32BD21BD819180BDFA9A17
:107CE000F99A2F5F3F4FE417F50799F76A0F7B1F4B
:107CF00070930701609306018091C00085FFFCCF5F
:107D0000F092C6008091C00085FFFCCFB092C60003
:107D1000E1CE83E00E94C73CDDCE82E00E94C73CFA
:107D2000D9CE0E94763C809309020E94763C8093D3
:107D300008028091060190910701880F991F909386
:107D40000701809306010E94763C853409F4A6C0A1
:107D500080910C028E7F80930C020E94763C8032D0
:107D600009F0B8CE8091C00085FFFCCFF092C6002C
:107D7000609108027091090261157105B9F140E046
:107D800050E080910C02A82FA170B82FB27011C0E2
:107D9000BB2309F45CC0E0910601F0910701319624
:107DA000F0930701E09306014F5F5F4F46175707B7
:107DB000E8F4AA2369F3F999FECF209106013091E6
:107DC000070132BD21BDF89A90B58091C00085FFB2
:107DD000FCCF9093C6002F5F3F4F30930701209355
:107DE00006014F5F5F4F4617570718F38091C00099
:107DF00085FDE5CE8091C00085FFF8CFE0CE81E023
:107E00000E94C73C67CE0E94763C803209F08CCE3F
:107E10008091C00085FFFCCFF092C6008091C00029
:107E200085FFFCCFE092C6008091C00085FFFCCFAB
:107E3000D092C6008091C00085FFFCCFC092C600E2
:107E40008091C00085FFFCCFB092C60043CEE09188
:107E50000601F091070194918091C00085FFFCCF4D
:107E60009093C6009CCF80E10E94C73C33CE0E9415
:107E7000763C0E94763C182F0E94763C112309F430
:107E800083C0113009F484C08FE00E94C73C22CE29
:107E900080910C02816080930C02E5CE80910C02EF
:107EA000816080930C0259CF809107018823880F4D
:107EB000880B8A2180930B02809106019091070123
:107EC000880F991F90930701809306018091080203
:107ED00080FF09C080910802909109020196909359
:107EE000090280930802F894F999FECF1127E091D6
:107EF0000601F0910701C8E0D1E08091080290915D
:107F00000902103091F40091570001700130D9F34B
:107F100003E000935700E89500915700017001308D
:107F2000D9F301E100935700E89509901990009169
:107F3000570001700130D9F301E000935700E89534
:107F40001395103498F011270091570001700130FB
:107F5000D9F305E000935700E895009157000170B0
:107F60000130D9F301E100935700E895329602976A
:107F700009F0C7CF103011F00296E5CF112480919F
:107F8000C00085FFB9CEBCCE8EE10E94C73CA2CD19
:0C7F900085E90E94C73C9ECDF894FFCF0D
:027F9C00800063
:040000030000780081
:00000001FF