:100000000C9460000C9488000C9488000C94880078
:100010000C9488000C9488000C9488000C94880040
:100020000C9488000C9488000C9488000C94880030
:100030000C9488000C9488000C9488000C94880020
:100040000C9482070C9488000C94AC0A0C94DE0A81
:100050000C9488000C9488000C9488000C94880000
:100060000C9480030C94880000000008000201003A
:100070000003040700000000000000000102040863
:100080001020408001020408102001020408102002
:10009000040404040404040402020202020203032E
:1000A0000303030300000000250028002B000000CC
:1000B0000000240027002A00C801270361070E0B57
:1000C00011241FBECFEFD8E0DEBFCDBF12E0A0E00D
:1000D000B1E0E8E4FFE102C005900D92A430B10761
:1000E000D9F724E0A4E0B2E001C01D92AE31B2071E
:1000F000E1F710E0C0ECD0E004C02297FE010E94BE
:10010000660DC83BD107C9F70E94520B0C94A20F91
:100110000C94000061E080E10E94F80861E081E158
:100120000E94F80861E08EE00E94F80861E08FE02C
:100130000E94F80861E087E00E94F80861E088E02A
:100140000E94F80861E08CE00E94F80861E08DE010
:100150000E94F80861E083E00E94F80861E089E00D
:100160000E94F80861E08AE00E94F80861E08BE0F4
:100170000C94F80848EB5BE060E070E08BE293E001
:100180000E94AA0620E032EC41E050E06CE773E008
:100190008BE293E00E94BE0661E08BE293E00E9456
:1001A00074068823A1F066E071E080916D03909160
:1001B0006E030E949F0B4AE050E060E070E08BE22B
:1001C00093E00E94DA058BE293E00E94A90641E0E9
:1001D00060E08BE293E00E94450780918100887F78
:1001E0008160809381008091B100887F81608093DD
:1001F000B10065E470E086E092E00E9420036FE1C8
:1002000072E086E092E00E94220360E082E10E94B8
:10021000310960E083E10E94310926E040E052ECC0
:1002200061E070E08CE793E00E944A0A0C948A0037
:100230008530910519F0069771F1089561157105E2
:1002400071F460E08EE00E94310961E08FE00E946D
:10025000310960E080E10E94310961E010C0613045
:10026000710579F461E08EE00E94310960E08FE071
:100270000E94310961E080E10E94310960E081E182
:1002800036C060E08EE00E94310960E08FE00E949D
:10029000310960E0F0CF6115710551F461E08CE047
:1002A0000E94310960E08DE00E94310961E01AC0CE
:1002B0006130710571F460E08CE00E94310961E009
:1002C0008DE00E94310960E087E00E94310961E021
:1002D0000DC060E08CE00E94310960E08DE00E947A
:1002E000310960E087E00E94310960E088E00C9409
:1002F00031090F931F93CF93DF9361E084E092E085
:100300000E94AD048C0162E084E092E00E94AD04A2
:10031000EC0117FF03C061E070E008C00115110592
:1003200019F464E070E002C060E070E085E090E005
:100330000E941801D7FF03C061E070E007C020975A
:1003400019F464E070E002C060E070E086E090E0E4
:100350000E94180117FF03C0119501951109B801FA
:1003600083E00E947008B80189E00E947008D7FFFE
:1003700003C0D195C195D109BE018AE00E947008E1
:10038000BE018BE0DF91CF911F910F910C9470080B
:100390008CE793E090930502809304020895CF9335
:1003A000C0E08CE793E00E946709181619065CF418
:1003B0008CE793E00E948009682F84E092E00E941D
:1003C000EE04C1E0EECFCC2371F160E084E092E076
:1003D0000E94EE0444EF51E060E070E08BE293E0B5
:1003E0000E94DD0560E08BE293E00E9474068823A2
:1003F00069F061E08BE293E00E94F9058BE293E003
:100400000E945F068BE293E00E94A90642E050E062
:1004100060E070E08BE293E00E94DA058BE293E00B
:10042000CF910C946806CF9108950E94CF010E944D
:10043000790168EC70E080E090E00C94FB07CF93CA
:10044000C0E086E092E00E943D02181619065CF4B6
:1004500086E092E00E944502682F84E092E00E94CC
:10046000EE04C1E0EECFCC2331F060E084E092E016
:10047000CF910C94EE04CF9108958091390290E0D1
:1004800020913A02821B9109089520913A028091AD
:100490003902281750F4E22FF0E0E55CFD4F80812F
:1004A00090E02F5F20933A0208958FEF9FEF089519
:1004B000E0913A0280913902E81730F4F0E0E55C0F
:1004C000FD4F808190E008958FEF9FEF089508958C
:1004D000E0911202F09113023097E1F030913A026C
:1004E000209139023217B0F040E0242F30E0261777
:1004F000370754F4DC01A20FB31F5C91D901A55C4E
:10050000BD4F5C934F5FF1CF10923A026093390276
:10051000CB0109940895E0911402F09115023097EF
:1005200029F0109218021092170209940895CF92A0
:10053000DF92EF92FF920F931F93CF93DF937C0193
:10054000CB018A0120911602222389F0EB016B0175
:10055000C40ED51ECC15DD0569F06991D701ED916A
:10056000FC910190F081E02DC7010995F3CF642F34
:100570000E944D03C801DF91CF911F910F91FF9011
:10058000EF90DF90CF900895CF93DF931F92CDB778
:10059000DEB76983209116022223D1F02091170241
:1005A000203240F021E030E0FC013383228380E000
:1005B00090E015C080911802E82FF0E0E75EFD4F53
:1005C000998190838F5F809318028093170205C0F2
:1005D00061E0CE0101960E944D0381E090E00F9012
:1005E000DF91CF910895FC011382128248EE53E00F
:1005F00060E070E044835583668377838CE191E00B
:1006000091838083089510923A02109239021092D9
:100610001802109217020C942B03CF93DF93EC0176
:10062000862F0E9449038BE892E00E946B0388E6C4
:1006300092E00E946603CE01DF91CF910C940303F8
:100640000C940D037093130260931202089586E0D8
:1006500092E00C94F3021092C80281E08093C602EB
:100660001092C50261E082E10E94310961E083E1FC
:100670000E943109E9EBF0E080818E7F80838081E8
:100680008D7F808388E48093B80085E48093BC00EC
:100690000895880F8093BA000895613298F42091EC
:1006A000C802243089F460937D02FC018FE792E058
:1006B000DC012A2F281B261718F421912D93F9CF3E
:1006C00080E0089581E0089582E008959093C20249
:1006D0008093C10208959093C4028093C302089549
:1006E00085ED8093BC008091BC0084FDFCCF10920E
:1006F000C802089585EC8093BC001092C80208954A
:100700001F920F920FB60F9211242F933F934F9386
:100710005F936F937F938F939F93AF93BF93EF9369
:10072000FF938091B900887F803609F49EC078F5E8
:10073000883209F45DC090F4803109F456C038F471
:10074000882309F4F5C0883009F44FC0F5C088311A
:1007500009F44EC0803209F45FC0EEC0803409F461
:100760006AC058F4803309F457C0883309F0E4C0F4
:1007700080935B020E947A03DFC0803509F44FC08A
:10078000883509F45DC0883409F0D6C0D3C08839F3
:1007900009F4C4C0A8F4883709F467C038F488366F
:1007A00009F463C0803709F460C0C6C0883809F412
:1007B000B5C0803909F45FC0803809F0BDC05BC0A6
:1007C000803B09F483C038F4803A09F466C0883A63
:1007D00009F47CC0B1C0803C09F4A4C0883C09F491
:1007E000A1C0883B09F487C0A7C08091C70210C090
:1007F0009091A00280919F02981770F5E091A0025D
:1008000081E08E0F8093A002F0E0EF55FD4F8081D4
:100810008093BB0085EC83C080935B028BC0E0912A
:10082000A00281E08E0F8093A0028091BB00F0E0D7
:10083000EF55FD4F80839091A00280919F026BC085
:10084000E091A00281E08E0F8093A0028091BB0016
:10085000F0E0EF55FD4F80838091C60281116AC0A0
:1008600081E08093C50284EA5EC083E08093C80281
:1008700010925C02CFCF80915C02803208F04EC0B3
:10088000E0915C0281E08E0F80935C028091BB005E
:10089000F0E0E35AFD4F8083BDCF0E947A03809140
:1008A0005C02803230F4E0915C02F0E0E35AFD4FEC
:1008B000108260915C0270E0E091C102F091C2028E
:1008C0008DE592E0099510925C0236C084E0809339
:1008D000C80210927E0210927D02E091C302F09154
:1008E000C402099580917D02811105C081E0809349
:1008F0007D0210927F02E0917E0281E08E0F809354
:100900007E02F0E0E158FD4F80818093BB00909122
:100910007E0280917D02981708F47CCF85E8809351
:10092000BC000AC085EC8093BC001092C80204C0D1
:1009300010925B020E947003FF91EF91BF91AF9103
:100940009F918F917F916F915F914F913F912F91E7
:100950000F900FBE0F901F9018958FEF860F8F305E
:1009600048F4E62FF0E0EE0FFF1FE55FFC4F8081BB
:100970009181089580E090E00895CF92DF92EF9208
:10098000FF920F931F93CF93DF937B01FB01C480F2
:10099000D580C0E0D0E000E010E0CC15DD057CF4AF
:1009A000BE01C7010E94070DFC012081332727FDEE
:1009B000309520523109020F131F2196EECFC80146
:1009C0006FE570E00E941A0D8096DF91CF911F9124
:1009D0000F91FF90EF90DF90CF900895DF92EF920C
:1009E000FF920F931F93CF93DF9300D000D000D0DE
:1009F000CDB7DEB78C01D62E611112C080E2EDEECC
:100A0000F2E0DF011D928A95E9F71092CB02109275
:100A1000CA026DE271E0F801808191810E94AC0B05
:100A20008091CC02882309F44FC08091C9028823A9
:100A300009F48AC06DEE72E0CE0101960E94F10CBD
:100A4000BE016F5F7F4FC8010E94BD047C01CE01D3
:100A500001960E94830C4AE050E06D2DD8018D91E3
:100A60009C910E947C0C6AE371E0F8018081918185
:100A70000E949F0B4AE050E0B701D8018D919C91F4
:100A80000E94570C2D2D30E0E216F30689F46CE33A
:100A900071E0F801808191810E94AC0B80E2EDEE63
:100AA000F2E0ADECB2E001900D928A95E1F707C05B
:100AB00080E2EDEEF2E0DF011D928A95E9F71092F7
:100AC000C9021092CC0240C08091CB02BBE78823C0
:100AD00041F1DB1641F1E091CA02FDE7DF1671F04A
:100AE000AE2FB0E0A351BD4FDC92EF5FE093CA029E
:100AF000E03250F18FE18093CA0226C0F0E0E3516A
:100B0000FD4F10821092CB021092CA0281E08093B6
:100B1000CC028093C90261E471E0D8018D919C916F
:100B200011C0DB1211C081E08093CB0280E2EDEEB8
:100B3000F2E0DF011D928A95E9F76FE471E0F801B8
:100B4000808191810E94AC0B8D2D26960FB6F89472
:100B5000DEBF0FBECDBFDF91CF911F910F91FF90F0
:100B6000EF90DF9008958F929F92AF92BF92CF92B5
:100B7000DF92EF92FF926A017B010E94CC074B014A
:100B80005C01C60ED71EE81EF91E0E94CC07681530
:100B900079058A059B0528F0C616D706E806F906EA
:100BA000A0F7FF90EF90DF90CF90BF90AF909F9015
:100BB0008F90089521E00C94B305CF93DF93EC015F
:100BC0004E875F87688B798B1A8A1B8A1C8A1D8ADD
:100BD0004E815F81688579854A875B876C877D87D1
:100BE0000E94CC076E837F8388879987DF91CF919E
:100BF0000895BF92CF92DF92EF92FF920F931F93CF
:100C0000CF93DF938C01B62E0E94CC076B017C0141
:100C1000E801CE5BDF4F6BE771E0888199810E942C
:100C20009F0B4AE050E06B2D888199810E947C0CDB
:100C300062E871E0888199810E949F0B2AE030E090
:100C4000B701A601888199810E946F0C64E871E068
:100C5000888199810E949F0BF80186819781A085E8
:100C6000B185B701A601481B590B6A0B7B0B2AE023
:100C700030E0888199810E946F0C64E871E088817E
:100C800099810E949F0BF80146815781608571858B
:100C900082859385A485B585481B590B6A0B7B0B10
:100CA0002AE030E088819981DF91CF911F910F91E7
:100CB000FF90EF90DF90CF90BF900C946F0C8E5B05
:100CC0009F4F66E871E0FC01808191810C94AC0B30
:100CD000CF93DF93EC010E94CC076E837F838887DC
:100CE0009987DF91CF910895CF92DF92EF92FF9293
:100CF000CF93DF93EC0161111EC00E94CC07CA8024
:100D0000DB80EC80FD806C197D098E099F096132C2
:100D100071058105910578F421E2C22ED12CE12CD8
:100D2000F12CC61AD70AE80AF90A21E0B701A60190
:100D3000CE010E94B3050E94CC076A837B838C831B
:100D40009D8381E0DF91CF91FF90EF90DF90CF9076
:100D500008950895FC01EC5BFF4F1082118212820E
:100D60001382FC01128213821482158241155105EF
:100D70006105710511F00C94DA050895FB01BA01C3
:100D8000A9018E5B9F4FDC01ED93FC9326E0CF0120
:100D90000C944A0A8E5B9F4FDC018D919C91DC0183
:100DA000ED91FC910680F781E02D099508958E5B09
:100DB0009F4FDC018D919C91DC01ED91FC910480B1
:100DC000F581E02D09950895FF920F931F93CF931E
:100DD000DF93EC01F62E0E94CC076A837B838C8321
:100DE0009D838E010E5B1F4F6DE871E0F8018081DD
:100DF00091810E949F0B4AE050E06F2DF8018081A5
:100E000091810E947C0C64E971E0F80180819181FC
:100E10000E949F0B42E350E060E070E0CE01DF9162
:100E2000CF911F910F91FF900C94DA051F93CF93F0
:100E3000DF93EC01162F8E89882311F1CE010E94D9
:100E4000D706811102C085E61CC0CE010E94D706DC
:100E50008823C9F3CE010E94CA06883689F048F477
:100E6000883569F0833689F7612FCE010E94E40648
:100E700007C0813729F0863741F786E702C01E8A0E
:100E800083E6DF91CF911F9108951F93CF93DF9356
:100E9000EC01142F611105C01E8BDF91CF911F91C2
:100EA000089581E08E8B60E0CE010E9416078336A4
:100EB00099F341E050E060E070E0CE010E94DA0575
:100EC000F2CF10923103109232031092330310923A
:100ED00034031092350310923603109237031092A8
:100EE00038031092390310923A0310923B03109288
:100EF0003C0310923D0310923E0310923F03109268
:100F0000400308951F920F920FB60F9211242F9352
:100F10003F938F939F93AF93BF938091740390916E
:100F20007503A0917603B09177033091730323E0AA
:100F3000230F2D3720F40196A11DB11D05C026E811
:100F4000230F0296A11DB11D209373038093740398
:100F500090937503A0937603B09377038091780301
:100F600090917903A0917A03B0917B030196A11D22
:100F7000B11D8093780390937903A0937A03B09383
:100F80007B03BF91AF919F918F913F912F910F90D4
:100F90000FBE0F901F9018952FB7F89460917403AF
:100FA0007091750380917603909177032FBF089518
:100FB0003FB7F8948091780390917903A0917A03D8
:100FC000B0917B0326B5A89B05C02F3F19F0019671
:100FD000A11DB11D3FBF6627782F892F9A2F620F61
:100FE000711D811D911D42E0660F771F881F991F9B
:100FF0004A95D1F708958F929F92AF92BF92CF9268
:10100000DF92EF92FF926B017C010E94D8074B01A7
:101010005C01C114D104E104F104F1F00E94190D46
:101020000E94D807681979098A099B09683E7340AC
:101030008105910570F321E0C21AD108E108F10899
:1010400088EE880E83E0981EA11CB11CC114D10447
:10105000E104F10429F7DDCFFF90EF90DF90CF900E
:10106000BF90AF909F908F900895789484B58260E0
:1010700084BD84B5816084BD85B5826085BD85B53C
:10108000816085BDEEE6F0E0808181608083E1E8EB
:10109000F0E0108280818260808380818160808323
:1010A000E0E8F0E0808181608083E1EBF0E0808126
:1010B00084608083E0EBF0E0808181608083EAE7F8
:1010C000F0E0808184608083808182608083808181
:1010D000816080838081806880831092C100089540
:1010E0001F93CF93DF93182FEB0161E00E94F80864
:1010F000209711F460E004C0CF3FD10539F461E0DE
:10110000812FDF91CF911F910C943109E12FF0E0F5
:10111000E859FF4FE491E330F9F048F4E130B9F0D9
:10112000E230A1F584B5806284BDC8BD34C0E7302B
:10113000E9F0E83019F1E43049F5809180008062EF
:1011400080938000D0938B00C0938A0024C084B524
:10115000806884BDC7BD1FC0809180008068809377
:101160008000D0938900C093880015C08091B000A2
:1011700080688093B000C093B3000DC08091B00030
:1011800080628093B000C093B40005C0C038D10520
:101190000CF0B5CFAFCFDF91CF911F910895833081
:1011A00081F028F4813099F08230A1F008958730E1
:1011B000A9F08830B9F08430D1F4809180008F7D1F
:1011C00003C0809180008F7780938000089584B55C
:1011D0008F7702C084B58F7D84BD08958091B00063
:1011E0008F7703C08091B0008F7D8093B000089509
:1011F000CF93DF9390E0FC01E458FF4F2491FC0172
:10120000E057FF4F8491882349F190E0880F991FA0
:10121000FC01E255FF4FA591B4918C559F4FFC0105
:10122000C591D4919FB7611108C0F8948C91209515
:1012300082238C93888182230AC0623051F4F8940F
:101240008C91322F309583238C938881822B8883D5
:1012500004C0F8948C91822B8C939FBFDF91CF9127
:1012600008950F931F93CF93DF931F92CDB7DEB7EF
:10127000282F30E0F901E859FF4F8491F901E45833
:10128000FF4F1491F901E057FF4F04910023C9F07B
:10129000882321F069830E94CF086981E02FF0E064
:1012A000EE0FFF1FEC55FF4FA591B4919FB7F89437
:1012B0008C91611103C01095812301C0812B8C9307
:1012C0009FBF0F90DF91CF911F910F910895FC0167
:1012D000818D228D90E0805C9F4F821B91098F73DE
:1012E00099270895FC01918D828D981731F0828D98
:1012F000E80FF11D858D90E008958FEF9FEF089521
:10130000FC01918D828D981761F0828DDF01A80F0D
:10131000B11D5D968C91928D9F5F9F73928F90E02F
:1013200008958FEF9FEF089584E09BE0892B49F0AB
:1013300080E090E0892B29F00E94040B81110C942D
:1013400000000895FC01848DDF01A80FB11DA35A90
:10135000BF4F2C91848D90E001968F739927848FD5
:10136000A689B7892C93A089B1898C9180648C93CC
:10137000938D848D981306C00288F389E02D8081B7
:101380008F7D80830895CF93DF93EC01888D882330
:10139000C9F0EA89FB89808185FD05C0A889B989E2
:1013A0008C9186FD0FC00FB607FCF5CF808185FFBD
:1013B000F2CFA889B9898C9185FFEDCFCE010E942B
:1013C000A209E7CFDF91CF910895CF92DF92FF92EC
:1013D0000F931F93CF93DF931F92CDB7DEB76C01AE
:1013E00081E0D60158968C9358975B969C915B97B9
:1013F0005C968C915C97981307C05096ED91FC9188
:101400005197808185FD2EC0F601038D10E00F5F9E
:101410001F4F0F731127F02EF601848DF81211C0A3
:101420000FB607FCF9CFD6015096ED91FC9151977C
:10143000808185FFF1CFC60169830E94A20969817D
:10144000EBCF838DE80FF11DE35AFF4F6083D60188
:101450005B960C935B975296ED91FC91539780812C
:1014600080620CC0D6015696ED91FC91579760832F
:101470005096ED91FC91519780818064808381E04A
:1014800090E00F90DF91CF911F910F91FF90DF902F
:10149000CF900895BF92CF92DF92EF92FF92CF93B9
:1014A000DF93EC016A017B01B22EE889F98982E0C1
:1014B0008083411581EE580761057105A1F060E058
:1014C00079E08DE390E0A70196010E942E0D215056
:1014D00031094109510956954795379527952115A9
:1014E00080E1380798F0E889F989108260E874E8AB
:1014F0008EE190E0A70196010E942E0D2150310946
:10150000410951095695479537952795EC85FD85F5
:101510003083EE85FF852083188EEC89FD89B082AB
:10152000EA89FB89808180618083EA89FB898081E7
:1015300088608083EA89FB89808180688083EA896A
:10154000FB8980818F7D8083DF91CF91FF90EF9029
:10155000DF90CF90BF9008951F920F920FB60F9219
:1015600011242F938F939F93EF93FF93E0918C031C
:10157000F0918D038081E0919203F091930382FDBD
:1015800012C09081809195038F5F8F732091960395
:10159000821751F0E0919503F0E0E458FC4F958FED
:1015A0008093950301C08081FF91EF919F918F916E
:1015B0002F910F900FBE0F901F9018951F920F92B2
:1015C0000FB60F9211242F933F934F935F936F9316
:1015D0007F938F939F93AF93BF93EF93FF938CE78A
:1015E00093E00E94A209FF91EF91BF91AF919F916B
:1015F0008F917F916F915F914F913F912F910F90BC
:101600000FBE0F901F9018958CE793E00E9467091A
:1016100021E0892B09F420E0822F089510927F03A6
:1016200010927E0388EE93E0A0E0B0E08093800308
:1016300090938103A0938203B093830389EE91E09A
:1016400090937D0380937C0385EC90E090938903D5
:101650008093880384EC90E090938B0380938A03BB
:1016600080EC90E090938D0380938C0381EC90E06C
:1016700090938F0380938E0382EC90E0909391037C
:101680008093900386EC90E0909393038093920371
:10169000109295031092960310929703109298035C
:1016A000089508950E9435080E94510B0E94BA00C7
:1016B000C4E9D9E00E9415022097E1F30E94940941
:1016C000F9CFCF92DF92EF92FF920F931F93CF93B8
:1016D000DF937C016A01EB0100E010E00C151D05B1
:1016E00071F06991D701ED91FC910190F081E02DAD
:1016F000C7010995892B19F00F5F1F4FEFCFC80164
:10170000DF91CF911F910F91FF90EF90DF90CF90DD
:1017100008956115710581F0DB010D900020E9F756
:10172000AD0141505109461B570BDC01ED91FC9175
:101730000280F381E02D099480E090E008950C94FC
:10174000890BDC01ED91FC910190F081E02D099471
:101750006AE971E00C94890B0F931F93CF93DF9389
:10176000EC010E94890B8C01CE010E94A80B800F16
:10177000911FDF91CF911F910F9108958F929F92AA
:10178000AF92BF92DF92EF92FF920F931F93CF938E
:10179000DF93CDB7DEB7A1970FB6F894DEBF0FBECB
:1017A000CDBF7C01F42FD52ECB0119A2223008F435
:1017B0002AE08E010F5D1F4F822E912CA12CB12C9F
:1017C0006F2F7D2DA50194010E942E0DF22FD32E97
:1017D000CA01015011096A3014F4E0E301C0E7E3E3
:1017E000E60FD801EC93232B242B252B49F7B801C6
:1017F000C7010E94890BA1960FB6F894DEBF0FBEF9
:10180000CDBFDF91CF911F910F91FF90EF90DF90AF
:10181000BF90AF909F908F900895CF92DF92EF92FC
:10182000FF920F931F93CF93DF93EC016A017B012B
:101830002115310579F4E881F9810190F081E02DDD
:10184000642FDF91CF911F910F91FF90EF90DF9068
:10185000CF9009942A303105E9F477FF1AC06DE280
:101860000E94A10B8C0144275527BA014C195D0930
:101870006E097F092AE0CE010E94BE0B800F911FE6
:10188000DF91CF911F910F91FF90EF90DF90CF905C
:1018900008952AE0B701A601CE01DF91CF911F91F3
:1018A0000F91FF90EF90DF90CF900C94BE0B0F93B1
:1018B0001F93CF93DF93EC019A01AB01662757FD8D
:1018C0006095762F0E940D0C8C01CE010E94A80B12
:1018D000800F911FDF91CF911F910F9108952115D6
:1018E000310541F4DC01ED91FC910190F081E02D96
:1018F000642F09940C94BE0B9A01462F50E060E0CF
:1019000070E00C946F0CFC01808191810C94020EAC
:10191000CF93DF93EC0188819981009711F00E94A9
:10192000020E198218821D821C821B821A82DF918C
:10193000CF9108950F931F93CF93DF93EC018B0109
:101940006F5F7F4F888199810E94910E009731F0DF
:10195000998388831B830A8381E001C080E0DF9143
:10196000CF911F910F910895CF93DF93EC01888160
:101970009981892B29F08A819B818617970760F4CA
:10198000CE010E949A0C882341F08C819D81892B85
:1019900019F4E881F981108281E0DF91CF910895F7
:1019A000EF92FF920F931F93CF93DF93EC017B0194
:1019B0008A01BA010E94B40C811104C0CE010E94B8
:1019C000880C07C01D830C83B701888199810E9410
:1019D000640FCE01DF91CF911F910F91FF90EF9097
:1019E0000895FC01118210821382128215821482E2
:1019F0006115710559F0FB0101900020E9F7AF0175
:101A000041505109461B570B0C94D00C0895FC0112
:101A1000848195816817790720F4808191810097EE
:101A200029F41092190489E194E00895860F971F14
:101A30000895089597FB072E16F4009407D077FDBC
:101A400009D00E94500D07FC05D03EF49095819579
:101A50009F4F0895709561957F4F0895A1E21A2ECA
:101A6000AA1BBB1BFD010DC0AA1FBB1FEE1FFF1F42
:101A7000A217B307E407F50720F0A21BB30BE40B92
:101A8000F50B661F771F881F991F1A9469F76095D9
:101A90007095809590959B01AC01BD01CF01089593
:101AA000AA1BBB1B51E107C0AA1FBB1FA617B70784
:101AB00010F0A61BB70B881F991F5A95A9F78095A0
:101AC0009095BC01CD010895EE0FFF1F0590F49194
:101AD000E02D0994CF93DF938230910510F482E0DA
:101AE00090E0E0911C04F0911D0420E030E0A0E0C3
:101AF000B0E0309739F14081518148175907B8F06B
:101B00004817590771F482819381109729F0139631
:101B10009C938E9312972CC090931D0480931C0469
:101B200027C02115310531F04217530718F0A901DC
:101B3000DB0101C0EF019A01BD01DF010280F381E9
:101B4000E02DD7CF21153105F9F0281B390B2430B2
:101B5000310580F48A819B816115710521F0FB01BB
:101B60009383828304C090931D0480931C04FE0120
:101B7000329644C0FE01E20FF31F819391932250ED
:101B80003109398328833AC020911A0430911B040B
:101B9000232B41F4209102013091030130931B0467
:101BA00020931A0420910001309101012115310583
:101BB00041F42DB73EB74091040150910501241B1B
:101BC000350BE0911A04F0911B04E217F307A0F41F
:101BD0002E1B3F0B2817390778F0AC014E5F5F4F83
:101BE0002417350748F04E0F5F1F50931B04409396
:101BF0001A048193919302C0E0E0F0E0CF01DF91FD
:101C0000CF910895CF93DF93009709F487C0FC012B
:101C1000329713821282C0911C04D0911D04209728
:101C200081F420813181280F391F80911A0490910D
:101C30001B048217930779F5F0931B04E0931A04B1
:101C40006DC0DE0120E030E0AE17BF0750F4129601
:101C50004D915C9113979D014115510509F1DA01F0
:101C6000F3CFB383A28340815181840F951F8A17DC
:101C70009B0771F48D919C911197840F951F02968B
:101C80009183808312968D919C9113979383828385
:101C90002115310529F4F0931D04E0931C043EC086
:101CA000D9011396FC93EE9312974D915D91A40F79
:101CB000B51FEA17FB0779F480819181840F951F86
:101CC0000296D90111969C938E93828193811396EB
:101CD0009C938E931297E0E0F0E08A819B810097BD
:101CE00019F0FE01EC01F9CFCE010296288139816D
:101CF000820F931F20911A0430911B042817390773
:101D000069F4309729F410921D0410921C0402C04B
:101D100013821282D0931B04C0931A04DF91CF91D7
:101D20000895A0E0B0E0E7E9FEE00C946F0FEC014D
:101D3000CB01209719F40E946A0DB8C0FE01E60F8E
:101D4000F71F9E0122503109E217F30708F4ACC0D7
:101D5000D9010D911C91119706171707B8F005309E
:101D6000110508F49FC0A8014450510946175707B0
:101D700008F498C002501109061B170B0193119328
:101D80006D937C93CF010E94020E8CC05B01A01A60
:101D9000B10A4E01800E911EA0911C04B0911D0449
:101DA000612C712C60E070E0109709F449C0A8150F
:101DB000B905C9F5ED90FC901197670142E0C40E9A
:101DC000D11CCA14DB0478F147018A189B0864010E
:101DD00042E0C40ED11C1296BC9012971396AC919F
:101DE000B5E0CB16D10440F0B282A3839182808209
:101DF000D9018D939C9309C00E5F1F4F0E0D1F1DBF
:101E0000F90111830083EB2DFA2F6115710531F073
:101E1000DB011396FC93EE93129744C0F0931D04DC
:101E2000E0931C043FC06D917C9111976616770674
:101E300008F43B01BD0112960D90BC91A02DB4CFCA
:101E400060911A0470911B0468157905E9F468160D
:101E50007906D0F4409100015091010141155105DE
:101E600041F44DB75EB76091040170910501461BC6
:101E7000570BE417F507C0F4F0931B04E0931A0422
:101E8000F901918380830EC00E946A0D7C01009746
:101E900059F0A801BE010E945B0FCE010E94020E04
:101EA000C70104C0CE0102C080E090E0CDB7DEB72C
:101EB000EEE00C948B0FFB01DC0102C001900D924F
:101EC00041505040D8F70895FB01DC0101900D927C
:101ED0000020E1F708952F923F924F925F926F9208
:101EE0007F928F929F92AF92BF92CF92DF92EF92AA
:101EF000FF920F931F93CF93DF93CDB7DEB7CA1B2B
:101F0000DB0B0FB6F894DEBF0FBECDBF09942A8855
:101F1000398848885F846E847D848C849B84AA84FD
:101F2000B984C884DF80EE80FD800C811B81AA818A
:101F3000B981CE0FD11D0FB6F894DEBF0FBECDBF55
:081F4000ED010895F894FFCFB4
:101F480000001E048000564D4450565F317C315FBE
:101F5800564D4450560D0A0000000000C402970276
:101F68003D024502580267022564256400526573E4
:101F78006574204275666665720020005975757033
:101F880000456E64206F66207061636B6574005352
:101F980074617274206F66207061636B65740041B0
:101FA800524D004D54520053525600554C5400495E
:101FB80052530044475400414E4C00564D4450453E
:101FC8005F003A323A005F564D44504500564D4442
:101FD80050435F005F564D4450430D0A00457272EE
:101FE8006F723A20417474656D707420746F207339
:101FF8006574206120726561642D6F6E6C7920763E
:1020080061726961626C65206F722064617461201D
:1020180074797065206E6F7420737570706F727448
:1020280065640D0A0000000000E509610B6709807E
:10203800097209C3096E616E00696E66006F766683
:04204800002E000066
:107800000C94343C0C94513C0C94513C0C94513CE1
:107810000C94513C0C94513C0C94513C0C94513CB4
:107820000C94513C0C94513C0C94513C0C94513CA4
:107830000C94513C0C94513C0C94513C0C94513C94
:107840000C94513C0C94513C0C94513C0C94513C84
:107850000C94513C0C94513C0C94513C0C94513C74
:107860000C94513C0C94513C11241FBECFEFD8E036
:10787000DEBFCDBF11E0A0E0B1E0ECE9FFE702C060
:1078800005900D92A230B107D9F712E0A2E0B1E065
:1078900001C01D92AD30B107E1F70E942D3D0C945F
:1078A000CC3F0C94003C982F959595959595959582
:1078B000905D8F708A307CF0282F295A8091C0000B
:1078C00085FFFCCF9093C6008091C00085FFFCCF60
:1078D0002093C6000895282F205DF0CF982F809127
:1078E000C00085FFFCCF9093C6000895EF92FF92F1
:1078F0000F931F93EE24FF2487018091C00087FD22
:1079000017C00894E11CF11C011D111D81E4E8164B
:1079100082E4F8068FE0080780E0180770F3E09132
:107920000401F091050109958091C00087FFE9CF1E
:107930008091C6001F910F91FF90EF9008950E94D3
:10794000763C982F8091C00085FFFCCF9093C600B5
:1079500091362CF490330CF09053892F089597555D
:10796000892F08951F930E949F3C182F0E949F3CCF
:107970001295107F810F1F9108951F93182F882350
:1079800021F00E94763C1150E1F71F9108951F935A
:10799000182F0E94763C803249F0809103018F5F5E
:1079A000809303018530C1F01F9108958091C0003C
:1079B00085FFFCCF84E18093C6008091C00085FFE5
:1079C000FCCF1093C6008091C00085FFFCCF80E102
:1079D0008093C6001F910895E0910401F091050184
:1079E00009951F9108950E94763C803241F0809164
:1079F00003018F5F80930301853081F008958091AA
:107A0000C00085FFFCCF84E18093C6008091C00058
:107A100085FFFCCF80E18093C6000895E0910401CA
:107A2000F09105010995089540E951E08823A1F0FE
:107A30002D9A28EE33E0FA013197F1F721503040CA
:107A4000D1F72D9828EE33E0FA013197F1F7215064
:107A50003040D1F7815061F708953F924F925F9285
:107A60006F927F928F929F92AF92BF92CF92DF924E
:107A7000EF92FF920F931F93CF93DF93000080E16B
:107A80008093C4001092C50088E18093C10086E015
:107A90008093C2005098589A259A81E00E94143D24
:107AA00024E1F22E9EE1E92E85E9D82E0FE0C02ECA
:107AB00010E1B12EAA24A394B1E49B2EA6E58A2E50
:107AC000F2E57F2EE0E26E2E79E4572E63E5462E36
:107AD00050E5352E0E94763C8033B1F18133B9F107
:107AE000803409F46FC0813409F476C0823409F41B
:107AF00085C0853409F488C0803531F1823521F1A3
:107B0000813511F1853509F485C0863509F48DC0BC
:107B1000843609F496C0843709F403C1853709F423
:107B200072C1863709F466C0809103018F5F80932C
:107B30000301853079F6E0910401F0910501099582
:107B40000E94763C803351F60E94F33CC3CF0E94E2
:107B5000763C803249F78091C00085FFFCCFF092DF
:107B6000C6008091C00085FFFCCF9092C600809136
:107B7000C00085FFFCCF8092C6008091C00085FFC9
:107B8000FCCF7092C6008091C00085FFFCCF609250
:107B9000C6008091C00085FFFCCF5092C600809146
:107BA000C00085FFFCCF4092C6008091C00085FFD9
:107BB000FCCF3092C6008091C00085FFFCCFB09210
:107BC000C60088CF0E94763C863808F4BDCF0E945C
:107BD000763C0E94F33C7ECF0E94763C803809F4CC
:107BE0009CC0813809F40BC1823809F43CC1883942
:107BF00009F48FC080E00E94C73C6CCF84E10E94F2
:107C0000BD3C0E94F33C66CF85E00E94BD3C0E94D3
:107C1000F33C60CF0E94763C809306010E94763C44
:107C2000809307010E94F33C55CF0E94763C80333D
:107C300009F41DC183E00E94BD3C80E00E94C73C66
:107C400049CF0E94763C809309020E94763C809343
:107C5000080280910C028E7F80930C020E94763C79
:107C6000853409F415C18091080290910902892B8D
:107C700089F000E010E00E94763CF801E85FFE4FDA
:107C800080830F5F1F4F80910802909109020817AF
:107C9000190788F30E94763C803209F045CF809125
:107CA0000C0280FF01C16091060170910701660F0F
:107CB000771F7093070160930601A0910802B091AD
:107CC00009021097C9F0E8E0F1E09B01AD014E0F09
:107CD0005F1FF999FECF32BD21BD819180BDFA9A17
:107CE000F99A2F5F3F4FE417F50799F76A0F7B1F4B
:107CF00070930701609306018091C00085FFFCCF5F
:107D0000F092C6008091C00085FFFCCFB092C60003
:107D1000E1CE83E00E94C73CDDCE82E00E94C73CFA
:107D2000D9CE0E94763C809309020E94763C8093D3
:107D300008028091060190910701880F991F909386
:107D40000701809306010E94763C853409F4A6C0A1
:107D500080910C028E7F80930C020E94763C8032D0
:107D600009F0B8CE8091C00085FFFCCFF092C6002C
:107D7000609108027091090261157105B9F140E046
:107D800050E080910C02A82FA170B82FB27011C0E2
:107D9000BB2309F45CC0E0910601F0910701319624
:107DA000F0930701E09306014F5F5F4F46175707B7
:107DB000E8F4AA2369F3F999FECF209106013091E6
:107DC000070132BD21BDF89A90B58091C00085FFB2
:107DD000FCCF9093C6002F5F3F4F30930701209355
:107DE00006014F5F5F4F4617570718F38091C00099
:107DF00085FDE5CE8091C00085FFF8CFE0CE81E023
:107E00000E94C73C67CE0E94763C803209F08CCE3F
:107E10008091C00085FFFCCFF092C6008091C00029
:107E200085FFFCCFE092C6008091C00085FFFCCFAB
:107E3000D092C6008091C00085FFFCCFC092C600E2
:107E40008091C00085FFFCCFB092C60043CEE09188
:107E50000601F091070194918091C00085FFFCCF4D
:107E60009093C6009CCF80E10E94C73C33CE0E9415
:107E7000763C0E94763C182F0E94763C112309F430
:107E800083C0113009F484C08FE00E94C73C22CE29
:107E900080910C02816080930C02E5CE80910C02EF
:107EA000816080930C0259CF809107018823880F4D
:107EB000880B8A2180930B02809106019091070123
:107EC000880F991F90930701809306018091080203
:107ED00080FF09C080910802909109020196909359
:107EE000090280930802F894F999FECF1127E091D6
:107EF0000601F0910701C8E0D1E08091080290915D
:107F00000902103091F40091570001700130D9F34B
:107F100003E000935700E89500915700017001308D
:107F2000D9F301E100935700E89509901990009169
:107F3000570001700130D9F301E000935700E89534
:107F40001395103498F011270091570001700130FB
:107F5000D9F305E000935700E895009157000170B0
:107F60000130D9F301E100935700E895329602976A
:107F700009F0C7CF103011F00296E5CF112480919F
:107F8000C00085FFB9CEBCCE8EE10E94C73CA2CD19
:0C7F900085E90E94C73C9ECDF894FFCF0D
:027F9C00800063
:040000030000780081
:00000001FF