:100000000C9465000C948D000C948D000C948D0064
:100010000C948D000C948D000C948D000C948D002C
:100020000C948D000C948D000C948D000C948D001C
:100030000C948D000C948D000C948D000C948D000C
:100040000C9486050C948D000C94A4080C94D6088E
:100050000C948D000C948D000C948D000C948D00EC
:100060000C9458030C948D0000000008000201005D
:100070000003040700000000000000000102040863
:100080001020408001020408102001020408102002
:10009000040404040404040402020202020203032E
:1000A0000303030300000000250028002B000000CC
:1000B0000000240027002A006364696E6F70737566
:1000C00078585B00F001FF02060911241FBECFEF34
:1000D000D8E0DEBFCDBF11E0A0E0B1E0E4E3FCE199
:1000E00002C005900D92A438B107D9F723E0A4E827
:1000F000B1E001C01D92A035B207E1F710E0CAECF3
:10010000D0E004C02297FE010E94940AC43CD107AB
:10011000C9F70E944A090C94180E0C94000061E083
:1001200080E10E94F00661E081E10E94F00661E05A
:100130008EE00E94F00661E08FE00E94F00661E030
:1001400087E00E94F00661E088E00E94F00661E02E
:100150008CE00E94F00661E08DE00E94F00661E014
:1001600083E00E94F00661E089E00E94F00661E011
:100170008AE00E94F00661E08BE00C94F006E1E872
:10018000F0E08081887F81608083E1EBF0E0808116
:10019000887F8160808365E470E086E891E00E945A
:1001A000F80267EF71E086E891E00E94FA0226E02B
:1001B00040E052EC61E070E083EB92E00E94420884
:1001C0000C948F00CF93DF93EB018C34910521F0D9
:1001D0008235910599F166C06634710589F460E055
:1001E0008EE00E94290761E08FE00E94290760E00D
:1001F00080E10E94290761E081E10E94290721C076
:100200006734710551F461E08EE00E94290760E0D7
:100210008FE00E94290761E009C060E08EE00E9443
:10022000290760E08FE00E94290760E080E10E94DA
:10023000290760E081E10E94290711C06634710539
:1002400071F461E08CE00E94290760E08DE00E947B
:10025000290761E087E00E94290760E010C060E0A4
:10026000C734D10571F48CE00E94290761E08DE06C
:100270000E94290760E087E00E94290761E088E08A
:100280000DC08EE00E94290760E08FE00E942907E0
:1002900060E080E10E94290760E081E1DF91CF9179
:1002A0000C942907DF91CF9108950F931F93CF935B
:1002B000DF9361E084E891E00E9492048C0162E0A7
:1002C00084E891E00E949204EC0117FF0DC067E4FE
:1002D00070E08CE490E00E94E20060E271E083EB69
:1002E00092E00E94A40915C00115110519F463E5F7
:1002F00070E00BC01016110664F468E271E083EB45
:1003000092E00E94A40966E470E08CE490E00E9410
:10031000E200D7FF0DC067E470E082E590E00E9444
:10032000E20060E271E083EB92E00E94A40914C055
:10033000209719F463E570E00BC01C161D0664F4E9
:1003400068E271E083EB92E00E94A40966E470E049
:1003500082E590E00E94E20017FF03C0119501952D
:100360001109B80183E00E946806B80189E00E9483
:100370006806D7FF03C0D195C195D109BE018AE0B7
:100380000E946806BE018BE0DF91CF911F910F9113
:100390000C9468060E94550168EC70E080E090E0E3
:1003A0000E94F30561E084E891E00E9492044AE033
:1003B00050E0BC0183EB92E00E944F0A60E371E0E1
:1003C00083EB92E00E94970962E084E891E00E944A
:1003D00092044AE050E0BC0183EB92E00C94570A8F
:1003E00083EB92E090938501809384010895CF93ED
:1003F000C0E086E891E00E941502181619065CF428
:1004000086E891E00E941D02682F84E891E00E9436
:100410002305C1E0EECFCC2331F060E084E891E029
:10042000CF910C942305CF9108958091B90190E06C
:100430002091BA01821B910908952091BA018091FF
:10044000B901281750F4E22FF0E0E554FE4F808107
:1004500090E02F5F2093BA0108958FEF9FEF0895EA
:10046000E091BA018091B901E81730F4F0E0E55469
:10047000FE4F808190E008958FEF9FEF08950895DB
:10048000E0919201F09193013097E1F03091BA013F
:100490002091B9013217B0F040E0242F30E0261748
:1004A000370754F4DC01A20FB31F5C91D901A554A6
:1004B000BE4F5C934F5FF1CF1092BA016093B901C8
:1004C000CB0109940895E0919401F0919501309742
:1004D00029F0109298011092970109940895CF92F3
:1004E000DF92EF92FF920F931F93CF93DF937C01E4
:1004F000CB018A0120919601222389F0EB016B0147
:10050000C40ED51ECC15DD0569F06991D701ED91BA
:10051000FC910190F081E02DC7010995F3CF642F84
:100520000E942503C801DF91CF911F910F91FF9089
:10053000EF90DF90CF900895CF93DF931F92CDB7C8
:10054000DEB76983209196012223D1F02091970193
:10055000203240F021E030E0FC013383228380E050
:1005600090E015C080919801E82FF0E0E756FE4F2B
:10057000998190838F5F809398018093970105C044
:1005800061E0CE0101960E94250381E090E00F908A
:10059000DF91CF910895FC011382128248EE53E05F
:1005A00060E070E0448355836683778386E391E05F
:1005B0009183808308951092BA011092B90110922C
:1005C0009801109297010C940303CF93DF93EC01F1
:1005D000862F0E94210383E692E00E94430380E479
:1005E00092E00E943E03CE01DF91CF910C94DB029A
:1005F0000C94E5027093930160939201089586E84C
:1006000091E00C94CB021092480281E08093460264
:100610001092450261E082E10E94290761E083E1D6
:100620000E942907E9EBF0E080818E7F8083808142
:100630008D7F808388E48093B80085E48093BC003C
:100640000895880F8093BA000895613298F420913C
:100650004802243089F46093FD01FC018FEF91E0A2
:10066000DC012A2F281B261718F421912D93F9CF8E
:1006700080E0089581E0089582E008959093420219
:100680008093410208959093440280934302089519
:1006900085ED8093BC008091BC0084FDFCCF10925E
:1006A0004802089585EC8093BC001092480208959A
:1006B0001F920F920FB60F9211242F933F934F93D7
:1006C0005F936F937F938F939F93AF93BF93EF93BA
:1006D000FF938091B900887F803609F49EC078F539
:1006E000883209F45DC090F4803109F456C038F4C2
:1006F000882309F4F5C0883009F44FC0F5C088316B
:1007000009F44EC0803209F45FC0EEC0803409F4B1
:100710006AC058F4803309F457C0883309F0E4C044
:100720008093DB010E945203DFC0803509F44FC083
:10073000883509F45DC0883409F0D6C0D3C0883943
:1007400009F4C4C0A8F4883709F467C038F48836BF
:1007500009F463C0803709F460C0C6C0883809F462
:10076000B5C0803909F45FC0803809F0BDC05BC0F6
:10077000803B09F483C038F4803A09F466C0883AB3
:1007800009F47CC0B1C0803C09F4A4C0883C09F4E1
:10079000A1C0883B09F487C0A7C08091470210C060
:1007A0009091200280911F02981770F5E09120022D
:1007B00081E08E0F80932002F0E0EF5DFD4F80819D
:1007C0008093BB0085EC83C08093DB018BC0E091FC
:1007D000200281E08E0F809320028091BB00F0E028
:1007E000EF5DFD4F80839091200280911F026BC0CE
:1007F000E091200281E08E0F809320028091BB0067
:10080000F0E0EF5DFD4F80838091460281116AC068
:1008100081E08093450284EA5EC083E080934802D1
:100820001092DC01CFCF8091DC01803208F04EC005
:10083000E091DC0181E08E0F8093DC018091BB00B0
:10084000F0E0E352FE4F8083BDCF0E9452038091BF
:10085000DC01803230F4E091DC01F0E0E352FE4F45
:1008600010826091DC0170E0E0914102F09142025F
:100870008DED91E009951092DC0136C084E0809303
:1008800048021092FE011092FD01E0914302F091A6
:10089000440209958091FD01811105C081E080939A
:1008A000FD011092FF01E091FE0181E08E0F809327
:1008B000FE01F0E0E150FE4F80818093BB009091FB
:1008C000FE018091FD01981708F47CCF85E88093A4
:1008D000BC000AC085EC8093BC001092480204C0A2
:1008E0001092DB010E944803FF91EF91BF91AF91FD
:1008F0009F918F917F916F915F914F913F912F9138
:100900000F900FBE0F901F9018958FEF860F8F30AE
:1009100040F4E62FF0E0EE0FFF1FE657FD4F518346
:10092000408308958FEF860F8F3048F4E62FF0E074
:10093000EE0FFF1FE657FD4F80819181089580E003
:1009400090E008959F92AF92BF92CF92DF92EF9284
:10095000FF920F931F93CF93DF9300D01F92CDB7D9
:10096000DEB76C011B821A82198210924B02ECE4F2
:10097000F2E0DF010D900020E9F78D01015011092F
:100980000C541240053008F44FC090904E0220E005
:10099000A22E21E0B22EE12CF12CD5016D917C919B
:1009A0006115710591F0FB0101900020E9F7AF019D
:1009B00041505109461B570B8FE492E00E94980A60
:1009C000F4E0AF0EB11C892B21F4EA94EF2829F052
:1009D0002BC03FEFE31AF30AE0CFB4E29B1224C02E
:1009E0008091060190E008171907F1F4CE010196F5
:1009F0009F938F9302969F938F9382E491E09F93AE
:100A00008F9382E592E09F938F930E94A60A0FB680
:100A1000F894DEBF0FBECDBF029731F449815A81F1
:100A20006B81C6010E9485040F900F900F90DF919B
:100A3000CF911F910F91FF90EF90DF90CF90BF90DB
:100A4000AF909F900895CF93DF931F92CDB7DEB7FD
:100A500061110BC020E2ECE6F2E0DF011D922A9565
:100A6000E9F710924A021092490220914B0221119B
:100A700040C020914A02222381F16B3781F1E0913D
:100A800049026D3771F0AE2FB0E0A459BD4F6C93A1
:100A9000EF5FE0934902E03260F12FE120934902D9
:100AA00028C0F0E0E459FD4F108220E2ECE6F2E0CD
:100AB000ACE4B2E001900D922A95E1F720E2ECE679
:100AC000F2E0DF011D922A95E9F710924A02109296
:100AD000490221E020934B020CC06B3751F421E016
:100AE00020934A0220E2ECE6F2E0DF011D922A9513
:100AF000E9F720914B02222321F069830E94A2048E
:100B00006981862F0F90DF91CF9108951F920F92E8
:100B10000FB60F9211242F933F938F939F93AF9310
:100B2000BF938091AB029091AC02A091AD02B091C5
:100B3000AE023091AA0223E0230F2D3720F4019654
:100B4000A11DB11D05C026E8230F0296A11DB11DF0
:100B50002093AA028093AB029093AC02A093AD02C3
:100B6000B093AE028091AF029091B002A091B10219
:100B7000B091B2020196A11DB11D8093AF02909376
:100B8000B002A093B102B093B202BF91AF919F9116
:100B90008F913F912F910F900FBE0F901F9018953E
:100BA0003FB7F8948091AF029091B002A091B1024A
:100BB000B091B20226B5A89B05C02F3F19F001964F
:100BC000A11DB11D3FBF6627782F892F9A2F620F75
:100BD000711D811D911D42E0660F771F881F991FAF
:100BE0004A95D1F708958F929F92AF92BF92CF927C
:100BF000DF92EF92FF926B017C010E94D0054B01C6
:100C00005C01C114D104E104F104F1F00E946F0A07
:100C10000E94D005681979098A099B09683E7340CA
:100C20008105910570F321E0C21AD108E108F108AD
:100C300088EE880E83E0981EA11CB11CC114D1045B
:100C4000E104F10429F7DDCFFF90EF90DF90CF9022
:100C5000BF90AF909F908F900895789484B58260F4
:100C600084BD84B5816084BD85B5826085BD85B550
:100C7000816085BDEEE6F0E0808181608083E1E8FF
:100C8000F0E0108280818260808380818160808337
:100C9000E0E8F0E0808181608083E1EBF0E080813A
:100CA00084608083E0EBF0E0808181608083EAE70C
:100CB000F0E0808184608083808182608083808195
:100CC000816080838081806880831092C100089554
:100CD0001F93CF93DF93182FEB0161E00E94F00682
:100CE000209711F460E004C0CF3FD10539F461E0F2
:100CF000812FDF91CF911F910C942907E12FF0E014
:100D0000E859FF4FE491E330F9F048F4E130B9F0ED
:100D1000E230A1F584B5806284BDC8BD34C0E7303F
:100D2000E9F0E83019F1E43049F580918000806203
:100D300080938000D0938B00C0938A0024C084B538
:100D4000806884BDC7BD1FC080918000806880938B
:100D50008000D0938900C093880015C08091B000B6
:100D600080688093B000C093B3000DC08091B00044
:100D700080628093B000C093B40005C0C038D10534
:100D80000CF0B5CFAFCFDF91CF911F910895833095
:100D900081F028F4813099F08230A1F008958730F5
:100DA000A9F08830B9F08430D1F4809180008F7D33
:100DB00003C0809180008F7780938000089584B570
:100DC0008F7702C084B58F7D84BD08958091B00077
:100DD0008F7703C08091B0008F7D8093B00008951D
:100DE000CF93DF9390E0FC01E458FF4F2491FC0186
:100DF000E057FF4F8491882349F190E0880F991FB5
:100E0000FC01E255FF4FA591B4918C559F4FFC0119
:100E1000C591D4919FB7611108C0F8948C91209529
:100E200082238C93888182230AC0623051F4F89423
:100E30008C91322F309583238C938881822B8883E9
:100E400004C0F8948C91822B8C939FBFDF91CF913B
:100E500008950F931F93CF93DF931F92CDB7DEB703
:100E6000282F30E0F901E859FF4F8491F901E45847
:100E7000FF4F1491F901E057FF4F04910023C9F08F
:100E8000882321F069830E94C7066981E02FF0E082
:100E9000EE0FFF1FEC55FF4FA591B4919FB7F8944B
:100EA0008C91611103C01095812301C0812B8C931B
:100EB0009FBF0F90DF91CF911F910F910895FC017B
:100EC000818D228D90E0805C9F4F821B91098F73F2
:100ED00099270895FC01918D828D981731F0828DAC
:100EE000E80FF11D858D90E008958FEF9FEF089535
:100EF000FC01918D828D981761F0828DDF01A80F22
:100F0000B11D5D968C91928D9F5F9F73928F90E043
:100F100008958FEF9FEF08958CEF98E0892B49F0AB
:100F200080E090E0892B29F00E94FC0881110C944C
:100F300000000895FC01848DDF01A80FB11DA35AA4
:100F4000BF4F2C91848D90E001968F739927848FE9
:100F5000A689B7892C93A089B1898C9180648C93E0
:100F6000938D848D981306C00288F389E02D8081CB
:100F70008F7D80830895CF93DF93EC01888D882344
:100F8000C9F0EA89FB89808185FD05C0A889B989F6
:100F90008C9186FD0FC00FB607FCF5CF808185FFD1
:100FA000F2CFA889B9898C9185FFEDCFCE010E943F
:100FB0009A07E7CFDF91CF910895CF92DF92FF920A
:100FC0000F931F93CF93DF931F92CDB7DEB76C01C2
:100FD00081E0D60158968C9358975B969C915B97CD
:100FE0005C968C915C97981307C05096ED91FC919C
:100FF0005197808185FD2EC0F601038D10E00F5FB3
:101000001F4F0F731127F02EF601848DF81211C0B7
:101010000FB607FCF9CFD6015096ED91FC91519790
:10102000808185FFF1CFC60169830E949A0769819B
:10103000EBCF838DE80FF11DE35AFF4F6083D6019C
:101040005B960C935B975296ED91FC915397808140
:1010500080620CC0D6015696ED91FC915797608343
:101060005096ED91FC91519780818064808381E05E
:1010700090E00F90DF91CF911F910F91FF90DF9043
:10108000CF900895BF92CF92DF92EF92FF92CF93CD
:10109000DF93EC016A017B01B22EE889F98982E0D5
:1010A0008083411581EE580761057105A1F060E06C
:1010B00079E08DE390E0A70196010E94700A21502B
:1010C00031094109510956954795379527952115BD
:1010D00080E1380798F0E889F989108260E874E8BF
:1010E0008EE190E0A70196010E94700A215031091B
:1010F000410951095695479537952795EC85FD850A
:101100003083EE85FF852083188EEC89FD89B082BF
:10111000EA89FB89808180618083EA89FB898081FB
:1011200088608083EA89FB89808180688083EA897E
:10113000FB8980818F7D8083DF91CF91FF90EF903D
:10114000DF90CF90BF9008951F920F920FB60F922D
:1011500011242F938F939F93EF93FF93E091C302FA
:10116000F091C4028081E091C902F091CA0282FD2F
:1011700012C090818091CC028F5F8F732091CD023D
:10118000821751F0E091CC02F0E0ED54FD4F958FC5
:101190008093CC0201C08081FF91EF919F918F914C
:1011A0002F910F900FBE0F901F9018951F920F92C6
:1011B0000FB60F9211242F933F934F935F936F932A
:1011C0007F938F939F93AF93BF93EF93FF9383EBA3
:1011D00092E00E949A07FF91EF91BF91AF919F918A
:1011E0008F917F916F915F914F913F912F910F90D0
:1011F0000FBE0F901F90189583EB92E00E945F073F
:1012000021E0892B09F420E0822F08951092B60284
:101210001092B50288EE93E0A0E0B0E08093B702B0
:101220009093B802A093B902B093BA0287E691E016
:101230009093B4028093B30285EC90E09093C00247
:101240008093BF0284EC90E09093C2028093C1022D
:1012500080EC90E09093C4028093C30281EC90E014
:101260009093C6028093C50282EC90E09093C802EE
:101270008093C70286EC90E09093CA028093C902E3
:101280001092CC021092CD021092CE021092CF0298
:10129000089508950E942D060E9449090E94BF00EA
:1012A000CCE8D7E00E94CA012097E1F30E948C07A6
:1012B000F9CFCF92DF92EF92FF920F931F93CF93CC
:1012C000DF937C016A01EB0100E010E00C151D05C5
:1012D00071F06991D701ED91FC910190F081E02DC1
:1012E000C7010995892B19F00F5F1F4FEFCFC80178
:1012F000DF91CF911F910F91FF90EF90DF90CF90F2
:1013000008956115710581F0DB010D900020E9F76A
:10131000AD0141505109461B570BDC01ED91FC9189
:101320000280F381E02D099480E090E008950C9410
:101330008109DC01ED91FC910190F081E02D09948F
:1013400063E771E00C9481090F931F93CF93DF93B0
:10135000EC010E9481098C01CE010E94A009800F3E
:10136000911FDF91CF911F910F9108958F929F92BE
:10137000AF92BF92DF92EF92FF920F931F93CF93A2
:10138000DF93CDB7DEB7A1970FB6F894DEBF0FBEDF
:10139000CDBF7C01F42FD52ECB0119A2223008F449
:1013A0002AE08E010F5D1F4F822E912CA12CB12CB3
:1013B0006F2F7D2DA50194010E94700AF22FD32E6C
:1013C000CA01015011096A3014F4E0E301C0E7E3F7
:1013D000E60FD801EC93232B242B252B49F7B801DA
:1013E000C7010E948109A1960FB6F894DEBF0FBE17
:1013F000CDBFDF91CF911F910F91FF90EF90DF90C4
:10140000BF90AF909F908F900895CF92DF92EF9210
:10141000FF920F931F93CF93DF93EC016A017B013F
:101420002115310579F4E881F9810190F081E02DF1
:10143000642FDF91CF911F910F91FF90EF90DF907C
:10144000CF9009942A303105E9F477FF1AC06DE294
:101450000E9499098C0144275527BA014C195D094E
:101460006E097F092AE0CE010E94B609800F911F04
:10147000DF91CF911F910F91FF90EF90DF90CF9070
:1014800008952AE0B701A601CE01DF91CF911F9107
:101490000F91FF90EF90DF90CF900C94B6099A01D6
:1014A000AB01662757FD6095762F0C94050A0F93C4
:1014B0001F93CF93DF93EC019A01AB01662757FD91
:1014C0006095762F0E94050A8C01CE010E94A0092A
:1014D000800F911FDF91CF911F910F910895089573
:1014E000A1E21A2EAA1BBB1BFD010DC0AA1FBB1F28
:1014F000EE1FFF1FA217B307E407F50720F0A21B9A
:10150000B30BE40BF50B661F771F881F991F1A9406
:1015100069F760957095809590959B01AC01BD0130
:10152000CF010895EE0FFF1F0590F491E02D09946F
:10153000FB01DC014150504030F08D910190801949
:1015400019F40020B9F7881B990B0895AEE0B0E0BC
:10155000ECEAFAE00C94F10D85E08C838B899C8990
:101560009A838983AE01495E5F4F6D897E89CE0182
:1015700001960E943D0C2E96E2E00C940D0E20FD8B
:1015800009C0FC0123FD05C022FF02C073836283F2
:1015900051834083089544FD10C046FD10C0DB0117
:1015A000FC01AA0FBB1FEE1FFF1F1094D1F76A0F9B
:1015B0007B1F8E1F9F1F31E003C033E001C034E06A
:1015C000660F771F881F991F3150D1F7620F711D69
:1015D000811D911D08950F931F93CF93DF938C016D
:1015E000C8010E94870DEC0197FD08C00E94740D90
:1015F000892BB1F7B801CE010E94C50DCE01DF9154
:10160000CF911F910F9108958F929F92AF92CF9299
:10161000DF92EF92FF920F931F93CF93DF93EC0132
:10162000A62E4A01022F0E94870DAC0155274B328E
:10163000510521F04D32510551F40068AA9411F47E
:1016400080E067C0CE010E94870D97FDF9CF102F73
:101650001D7F302F307301F58033F1F4FF24FA94AD
:10166000FA0C09F442C0CE010E94870D97FD3DC0DF
:10167000382F3F7D383551F41264AA94AA94A9F109
:10168000CE010E94870D97FF07C02FC006FF02C042
:10169000126001C01261AF2CC12CD12C760120ED5B
:1016A000280F283080F014FF04C0BE010E94C50D31
:1016B00019C02A3040F016FFF8CF2F7D3FEE320FD1
:1016C000363098F72750412FC701B6010E94CB0A48
:1016D0006B017C011260AA9459F0CE010E94870D23
:1016E00097FFDDCF11FD04C0ABCFC12CD12C76010B
:1016F00017FF08C0F094E094D094C094C11CD11C92
:10170000E11CF11C212FB701A601C4010E94BF0AF0
:1017100081E0DF91CF911F910F91FF90EF90DF90CB
:10172000CF90AF909F908F900895A1E2B0E0EBE949
:10173000FBE00C94E60D5C017A018E010F5F1F4FF8
:10174000680180E2D8011D928A95E9F7F50173805E
:1017500040E050E0812CB0E0912C81E090E0F90174
:1017600073FCA59173FEA1918F017A2F9F01A111A6
:1017700003C080E090E07DC0AE3519F441155105FD
:1017800059F1E92DF0E0E417F5073CF4AD3569F1C6
:10179000AD3219F4BB2319F103C0B11101C08A2E77
:1017A000E72FE695E695E69586010E0F111DF801E7
:1017B000A72FA7708C0102C0000F111FAA95E2F796
:1017C000D801B081BA2BB083781559F0781510F490
:1017D0007F5FE6CF7150E4CF9924939403C0B1E0CA
:1017E00001C0B0E04F5F5F4FBACFBB2319F08E81CD
:1017F00080628E83911003C09924939415C0F601E2
:10180000CE018196208120952193E817F907D1F721
:10181000F3CFE114F10429F0D7018C93F70131964D
:101820007F01615001F1912CC50169A30E94870DD0
:1018300069A197FD16C0282F269526952695F601B5
:10184000E20FF11D208130E0AC014770552702C046
:10185000359527954A95E2F720FDDBCFB5010E942B
:10186000C50D911086CFE114F10411F0D7011C923F
:10187000C801A196EDE00C94020E4F925F927F9208
:101880008F929F92AF92BF92CF92DF92EF92FF9290
:101890000F931F93CF93DF931F92CDB7DEB78C01C9
:1018A0002B017A01FC0117821682A12CF801D3804A
:1018B000F201D3FC8591D3FE8191382F2F0188232B
:1018C00009F4FCC090E039830E94740D3981892BA2
:1018D00021F0C8010E94EB0AE9CF353241F4F20150
:1018E000D3FC3591D3FE31912F01353269F4C80113
:1018F00039830E94870D398197FDDEC03817B1F218
:10190000B8010E94C50DDAC03A3241F4D3FC3591DA
:10191000D3FE31912F01BB24B39401C0B12C712CA3
:1019200020ED230F2A3090F4FB2DF260BF2E672D9F
:1019300070E080E090E040E20E94CB0A762EF20157
:10194000D3FC3591D3FE31912F01EACFB1FE03C014
:10195000711003C0B3C077247A94383619F03C363E
:1019600061F014C0F201D3FC3591D3FE31912F0107
:10197000383661F4FB2DF860BF2E8B2D8460B82EB5
:10198000F201D3FC3591D3FE31912F01332309F4B9
:1019900095C0632F70E088EB90E039830E947C0D46
:1019A0003981892B09F48AC0B0FC07C0F701C080D7
:1019B000D180C70102967C0102C0C12CD12C3E36D9
:1019C00051F4F8014681578160E070E02B2DC6018B
:1019D0000E94BF0A6BCF3336A1F4B1FC02C077245A
:1019E0007394C8010E94870D97FD66C0C114D1048D
:1019F00029F0F6018083C60101966C017A9489F77B
:101A000057C03B3559F49201A601672DC8010E94C9
:101A1000950B2C01009709F04BC045C0C8013983D4
:101A20000E94EB0A398197FD47C03F3669F128F4DF
:101A3000343631F1393679F12BC0333769F0353727
:101A4000F9F026C0C114D10429F0F6018082C60144
:101A500001966C017A9471F0C8010E94870D4C01C7
:101A600097FD08C00E94740D892B61F3B801C40171
:101A70000E94C50DC114D104D9F0F601108218C01E
:101A8000FB2DF062BF2E07C08B2D8061B82E03C0E6
:101A90009B2D9064B92E2B2DA601672DC8010E94A5
:101AA000040B811105C0F8018381807329F406C0FD
:101AB000B0FCFCCEA394FACEAA2019F08A2D90E0B7
:101AC00002C08FEF9FEF0F90DF91CF911F910F9189
:101AD000FF90EF90DF90CF90BF90AF909F908F904E
:101AE0007F905F904F900895911168C0803219F0F7
:101AF00089508550D0F70895FC010590061621F015
:101B00000020D9F7C00108953197CF010895CF93F0
:101B1000DF93EC012B8120FF33C026FF0AC02F7B0F
:101B20002B838E819F8101969F838E838A8190E093
:101B300029C022FF0FC0E881F9818081992787FDA4
:101B40009095009719F420622B831AC03196F9837F
:101B5000E8830EC0EA85FB85099597FF09C02B81B4
:101B6000019611F480E101C080E2822B8B8308C0D2
:101B70002E813F812F5F3F4F3F832E83992702C0E5
:101B80008FEF9FEFDF91CF910895FB01238120FF1D
:101B900012C026FD10C08F3F3FEF930761F0828394
:101BA0002F7D20642383268137812150310937839B
:101BB0002683992708958FEF9FEF08959927882707
:101BC00008952F923F924F925F926F927F928F92E1
:101BD0009F92AF92BF92CF92DF92EF92FF920F93BC
:101BE0001F93CF93DF93CDB7DEB7CA1BDB0B0FB6C6
:101BF000F894DEBF0FBECDBF09942A883988488883
:101C00005F846E847D848C849B84AA84B984C88418
:101C1000DF80EE80FD800C811B81AA81B981CE0F0F
:101C2000D11D0FB6F894DEBF0FBECDBFED010895F4
:041C3000F894FFCF56
:101C3400470101074B010B074F010B0753010B072A
:101C440057010B075B0101075F010107000000005A
:101C54005265766572736500466F727761726400CF
:101C64002000000000009C026F0215021D023002D9
:101C74003F02256425640041524D004D54520053E7
:101C8400525600554C5400495253004447540041A5
:101C94004E4C0000000000DD0759095F0778076A11
:101CA40007BB070D0A006E616E00696E66006F76F1
:041CB40066002E0098
:107800000C94343C0C94513C0C94513C0C94513CE1
:107810000C94513C0C94513C0C94513C0C94513CB4
:107820000C94513C0C94513C0C94513C0C94513CA4
:107830000C94513C0C94513C0C94513C0C94513C94
:107840000C94513C0C94513C0C94513C0C94513C84
:107850000C94513C0C94513C0C94513C0C94513C74
:107860000C94513C0C94513C11241FBECFEFD8E036
:10787000DEBFCDBF11E0A0E0B1E0ECE9FFE702C060
:1078800005900D92A230B107D9F712E0A2E0B1E065
:1078900001C01D92AD30B107E1F70E942D3D0C945F
:1078A000CC3F0C94003C982F959595959595959582
:1078B000905D8F708A307CF0282F295A8091C0000B
:1078C00085FFFCCF9093C6008091C00085FFFCCF60
:1078D0002093C6000895282F205DF0CF982F809127
:1078E000C00085FFFCCF9093C6000895EF92FF92F1
:1078F0000F931F93EE24FF2487018091C00087FD22
:1079000017C00894E11CF11C011D111D81E4E8164B
:1079100082E4F8068FE0080780E0180770F3E09132
:107920000401F091050109958091C00087FFE9CF1E
:107930008091C6001F910F91FF90EF9008950E94D3
:10794000763C982F8091C00085FFFCCF9093C600B5
:1079500091362CF490330CF09053892F089597555D
:10796000892F08951F930E949F3C182F0E949F3CCF
:107970001295107F810F1F9108951F93182F882350
:1079800021F00E94763C1150E1F71F9108951F935A
:10799000182F0E94763C803249F0809103018F5F5E
:1079A000809303018530C1F01F9108958091C0003C
:1079B00085FFFCCF84E18093C6008091C00085FFE5
:1079C000FCCF1093C6008091C00085FFFCCF80E102
:1079D0008093C6001F910895E0910401F091050184
:1079E00009951F9108950E94763C803241F0809164
:1079F00003018F5F80930301853081F008958091AA
:107A0000C00085FFFCCF84E18093C6008091C00058
:107A100085FFFCCF80E18093C6000895E0910401CA
:107A2000F09105010995089540E951E08823A1F0FE
:107A30002D9A28EE33E0FA013197F1F721503040CA
:107A4000D1F72D9828EE33E0FA013197F1F7215064
:107A50003040D1F7815061F708953F924F925F9285
:107A60006F927F928F929F92AF92BF92CF92DF924E
:107A7000EF92FF920F931F93CF93DF93000080E16B
:107A80008093C4001092C50088E18093C10086E015
:107A90008093C2005098589A259A81E00E94143D24
:107AA00024E1F22E9EE1E92E85E9D82E0FE0C02ECA
:107AB00010E1B12EAA24A394B1E49B2EA6E58A2E50
:107AC000F2E57F2EE0E26E2E79E4572E63E5462E36
:107AD00050E5352E0E94763C8033B1F18133B9F107
:107AE000803409F46FC0813409F476C0823409F41B
:107AF00085C0853409F488C0803531F1823521F1A3
:107B0000813511F1853509F485C0863509F48DC0BC
:107B1000843609F496C0843709F403C1853709F423
:107B200072C1863709F466C0809103018F5F80932C
:107B30000301853079F6E0910401F0910501099582
:107B40000E94763C803351F60E94F33CC3CF0E94E2
:107B5000763C803249F78091C00085FFFCCFF092DF
:107B6000C6008091C00085FFFCCF9092C600809136
:107B7000C00085FFFCCF8092C6008091C00085FFC9
:107B8000FCCF7092C6008091C00085FFFCCF609250
:107B9000C6008091C00085FFFCCF5092C600809146
:107BA000C00085FFFCCF4092C6008091C00085FFD9
:107BB000FCCF3092C6008091C00085FFFCCFB09210
:107BC000C60088CF0E94763C863808F4BDCF0E945C
:107BD000763C0E94F33C7ECF0E94763C803809F4CC
:107BE0009CC0813809F40BC1823809F43CC1883942
:107BF00009F48FC080E00E94C73C6CCF84E10E94F2
:107C0000BD3C0E94F33C66CF85E00E94BD3C0E94D3
:107C1000F33C60CF0E94763C809306010E94763C44
:107C2000809307010E94F33C55CF0E94763C80333D
:107C300009F41DC183E00E94BD3C80E00E94C73C66
:107C400049CF0E94763C809309020E94763C809343
:107C5000080280910C028E7F80930C020E94763C79
:107C6000853409F415C18091080290910902892B8D
:107C700089F000E010E00E94763CF801E85FFE4FDA
:107C800080830F5F1F4F80910802909109020817AF
:107C9000190788F30E94763C803209F045CF809125
:107CA0000C0280FF01C16091060170910701660F0F
:107CB000771F7093070160930601A0910802B091AD
:107CC00009021097C9F0E8E0F1E09B01AD014E0F09
:107CD0005F1FF999FECF32BD21BD819180BDFA9A17
:107CE000F99A2F5F3F4FE417F50799F76A0F7B1F4B
:107CF00070930701609306018091C00085FFFCCF5F
:107D0000F092C6008091C00085FFFCCFB092C60003
:107D1000E1CE83E00E94C73CDDCE82E00E94C73CFA
:107D2000D9CE0E94763C809309020E94763C8093D3
:107D300008028091060190910701880F991F909386
:107D40000701809306010E94763C853409F4A6C0A1
:107D500080910C028E7F80930C020E94763C8032D0
:107D600009F0B8CE8091C00085FFFCCFF092C6002C
:107D7000609108027091090261157105B9F140E046
:107D800050E080910C02A82FA170B82FB27011C0E2
:107D9000BB2309F45CC0E0910601F0910701319624
:107DA000F0930701E09306014F5F5F4F46175707B7
:107DB000E8F4AA2369F3F999FECF209106013091E6
:107DC000070132BD21BDF89A90B58091C00085FFB2
:107DD000FCCF9093C6002F5F3F4F30930701209355
:107DE00006014F5F5F4F4617570718F38091C00099
:107DF00085FDE5CE8091C00085FFF8CFE0CE81E023
:107E00000E94C73C67CE0E94763C803209F08CCE3F
:107E10008091C00085FFFCCFF092C6008091C00029
:107E200085FFFCCFE092C6008091C00085FFFCCFAB
:107E3000D092C6008091C00085FFFCCFC092C600E2
:107E40008091C00085FFFCCFB092C60043CEE09188
:107E50000601F091070194918091C00085FFFCCF4D
:107E60009093C6009CCF80E10E94C73C33CE0E9415
:107E7000763C0E94763C182F0E94763C112309F430
:107E800083C0113009F484C08FE00E94C73C22CE29
:107E900080910C02816080930C02E5CE80910C02EF
:107EA000816080930C0259CF809107018823880F4D
:107EB000880B8A2180930B02809106019091070123
:107EC000880F991F90930701809306018091080203
:107ED00080FF09C080910802909109020196909359
:107EE000090280930802F894F999FECF1127E091D6
:107EF0000601F0910701C8E0D1E08091080290915D
:107F00000902103091F40091570001700130D9F34B
:107F100003E000935700E89500915700017001308D
:107F2000D9F301E100935700E89509901990009169
:107F3000570001700130D9F301E000935700E89534
:107F40001395103498F011270091570001700130FB
:107F5000D9F305E000935700E895009157000170B0
:107F60000130D9F301E100935700E895329602976A
:107F700009F0C7CF103011F00296E5CF112480919F
:107F8000C00085FFB9CEBCCE8EE10E94C73CA2CD19
:0C7F900085E90E94C73C9ECDF894FFCF0D
:027F9C00800063
:040000030000780081
:00000001FF